{
  "_format": "hh-sol-artifact-1",
  "contractName": "PDRSmartContract2",
  "sourceName": "contracts/PDRSmartContract2.sol",
  "abi": [
    {
      "anonymous": false,
      "inputs": [
        {
          "indexed": true,
          "internalType": "address",
          "name": "previousOwner",
          "type": "address"
        },
        {
          "indexed": true,
          "internalType": "address",
          "name": "newOwner",
          "type": "address"
        }
      ],
      "name": "OwnershipTransferred",
      "type": "event"
    },
    {
      "inputs": [],
      "name": "getReceivedTokens",
      "outputs": [
        {
          "components": [
            {
              "internalType": "uint256",
              "name": "tokenId",
              "type": "uint256"
            },
            {
              "internalType": "address",
              "name": "tokenAddress",
              "type": "address"
            }
          ],
          "internalType": "struct PDRSmartContract2.Token[]",
          "name": "",
          "type": "tuple[]"
        }
      ],
      "stateMutability": "view",
      "type": "function"
    },
    {
      "inputs": [
        {
          "internalType": "address",
          "name": "operator",
          "type": "address"
        },
        {
          "internalType": "address",
          "name": "from",
          "type": "address"
        },
        {
          "internalType": "uint256",
          "name": "tokenId",
          "type": "uint256"
        },
        {
          "internalType": "bytes",
          "name": "data",
          "type": "bytes"
        }
      ],
      "name": "onERC721Received",
      "outputs": [
        {
          "internalType": "bytes4",
          "name": "",
          "type": "bytes4"
        }
      ],
      "stateMutability": "nonpayable",
      "type": "function"
    },
    {
      "inputs": [],
      "name": "owner",
      "outputs": [
        {
          "internalType": "address",
          "name": "",
          "type": "address"
        }
      ],
      "stateMutability": "view",
      "type": "function"
    },
    {
      "inputs": [
        {
          "internalType": "uint256",
          "name": "",
          "type": "uint256"
        }
      ],
      "name": "receivedTokens",
      "outputs": [
        {
          "internalType": "uint256",
          "name": "tokenId",
          "type": "uint256"
        },
        {
          "internalType": "address",
          "name": "tokenAddress",
          "type": "address"
        }
      ],
      "stateMutability": "view",
      "type": "function"
    },
    {
      "inputs": [],
      "name": "renounceOwnership",
      "outputs": [],
      "stateMutability": "nonpayable",
      "type": "function"
    },
    {
      "inputs": [
        {
          "internalType": "address",
          "name": "tokenAddress",
          "type": "address"
        },
        {
          "internalType": "address",
          "name": "from",
          "type": "address"
        },
        {
          "internalType": "address",
          "name": "to",
          "type": "address"
        },
        {
          "internalType": "uint256",
          "name": "tokenId",
          "type": "uint256"
        }
      ],
      "name": "transferExternalToken",
      "outputs": [],
      "stateMutability": "nonpayable",
      "type": "function"
    },
    {
      "inputs": [
        {
          "internalType": "address",
          "name": "newOwner",
          "type": "address"
        }
      ],
      "name": "transferOwnership",
      "outputs": [],
      "stateMutability": "nonpayable",
      "type": "function"
    }
  ],
  "bytecode": "0x608060405234801561001057600080fd5b5061001a3361001f565b61006f565b600080546001600160a01b038381166001600160a01b0319831681178455604051919092169283917f8be0079c531659141344cd1fd0a4f28419497f9722a3daafe3b4186f6b6457e09190a35050565b6106068061007e6000396000f3fe608060405234801561001057600080fd5b506004361061007c5760003560e01c8063715018a61161005b578063715018a61461017d5780638da5cb5b14610185578063d7791e26146101a0578063f2fde38b146101d057600080fd5b806241862414610081578063150b7a021461009f5780634d7e9b2014610168575b600080fd5b6100896101e3565b6040516100969190610578565b60405180910390f35b61014f6100ad3660046104ca565b505060408051808201909152908152336020820190815260018054808201825560009190915291517fb10e2d527612073b26eecdfd717e6a320cf44b4afac2b0732d9fcbe2b7fa0cf6600290930292830155517fb10e2d527612073b26eecdfd717e6a320cf44b4afac2b0732d9fcbe2b7fa0cf790910180546001600160a01b0319166001600160a01b0390921691909117905550630a85bd0160e11b919050565b6040516001600160e01b03199091168152602001610096565b61017b610176366004610480565b610258565b005b61017b6102d0565b6000546040516001600160a01b039091168152602001610096565b6101b36101ae366004610560565b6102e4565b604080519283526001600160a01b03909116602083015201610096565b61017b6101de36600461045f565b61031b565b60606001805480602002602001604051908101604052809291908181526020016000905b8282101561024f5760008481526020908190206040805180820190915260028502909101805482526001908101546001600160a01b0316828401529083529092019101610207565b50505050905090565b610260610399565b604051632142170760e11b81526001600160a01b0384811660048301528381166024830152604482018390528516906342842e0e90606401600060405180830381600087803b1580156102b257600080fd5b505af11580156102c6573d6000803e3d6000fd5b5050505050505050565b6102d8610399565b6102e260006103f3565b565b600181815481106102f457600080fd5b6000918252602090912060029091020180546001909101549091506001600160a01b031682565b610323610399565b6001600160a01b03811661038d5760405162461bcd60e51b815260206004820152602660248201527f4f776e61626c653a206e6577206f776e657220697320746865207a65726f206160448201526564647265737360d01b60648201526084015b60405180910390fd5b610396816103f3565b50565b6000546001600160a01b031633146102e25760405162461bcd60e51b815260206004820181905260248201527f4f776e61626c653a2063616c6c6572206973206e6f7420746865206f776e65726044820152606401610384565b600080546001600160a01b038381166001600160a01b0319831681178455604051919092169283917f8be0079c531659141344cd1fd0a4f28419497f9722a3daafe3b4186f6b6457e09190a35050565b80356001600160a01b038116811461045a57600080fd5b919050565b600060208284031215610470578081fd5b61047982610443565b9392505050565b60008060008060808587031215610495578283fd5b61049e85610443565b93506104ac60208601610443565b92506104ba60408601610443565b9396929550929360600135925050565b6000806000806000608086880312156104e1578081fd5b6104ea86610443565b94506104f860208701610443565b935060408601359250606086013567ffffffffffffffff8082111561051b578283fd5b818801915088601f83011261052e578283fd5b81358181111561053c578384fd5b89602082850101111561054d578384fd5b9699959850939650602001949392505050565b600060208284031215610571578081fd5b5035919050565b602080825282518282018190526000919060409081850190868401855b828110156105c3578151805185528601516001600160a01b0316868501529284019290850190600101610595565b509197965050505050505056fea2646970667358221220bcd8a96c055e242099968d663fe071a2c3c863902481cbbece43a4ae4467aed964736f6c63430008040033",
  "linkReferences": {},
  "deployedLinkReferences": {}
}