{"contracts/HyperPlayNFTLaunchpad.sol":{"HyperPlayNFTLaunchpad":{"abi":[{"anonymous":false,"inputs":[{"indexed":true,"internalType":"address","name":"previousOwner","type":"address"},{"indexed":true,"internalType":"address","name":"newOwner","type":"address"}],"name":"OwnershipTransferred","type":"event"},{"anonymous":false,"inputs":[{"indexed":true,"internalType":"uint256","name":"tokenId","type":"uint256"},{"indexed":true,"internalType":"address","name":"tokenAddress","type":"address"},{"indexed":false,"internalType":"enum HyperPlayNFTLaunchpad.TokenType","name":"tokenType","type":"uint8"},{"indexed":false,"internalType":"uint256","name":"price","type":"uint256"},{"indexed":false,"internalType":"bool","name":"isWhitelisted","type":"bool"},{"indexed":false,"internalType":"uint256","name":"maxPurchase","type":"uint256"},{"indexed":false,"internalType":"uint256","name":"startTime","type":"uint256"},{"indexed":false,"internalType":"uint256","name":"endTime","type":"uint256"}],"name":"TokenAdded","type":"event"},{"anonymous":false,"inputs":[{"indexed":true,"internalType":"uint256","name":"tokenId","type":"uint256"},{"indexed":true,"internalType":"address","name":"tokenAddress","type":"address"},{"indexed":false,"internalType":"enum HyperPlayNFTLaunchpad.TokenType","name":"tokenType","type":"uint8"},{"indexed":false,"internalType":"address","name":"buyer","type":"address"},{"indexed":false,"internalType":"uint256","name":"amount","type":"uint256"},{"indexed":false,"internalType":"uint256","name":"price","type":"uint256"}],"name":"TokenPurchased","type":"event"},{"anonymous":false,"inputs":[{"indexed":true,"internalType":"uint256","name":"tokenId","type":"uint256"},{"indexed":true,"internalType":"address","name":"tokenAddress","type":"address"},{"indexed":false,"internalType":"enum HyperPlayNFTLaunchpad.TokenType","name":"tokenType","type":"uint8"}],"name":"TokenRemoved","type":"event"},{"inputs":[{"internalType":"uint256","name":"tokenId","type":"uint256"},{"internalType":"address","name":"tokenAddress","type":"address"},{"internalType":"uint8","name":"round","type":"uint8"},{"internalType":"uint256","name":"amount","type":"uint256"},{"internalType":"uint256","name":"price","type":"uint256"},{"internalType":"bool","name":"isWhitelisted","type":"bool"},{"internalType":"uint256","name":"maxPurchase","type":"uint256"},{"internalType":"uint256","name":"startTime","type":"uint256"},{"internalType":"uint256","name":"endTime","type":"uint256"}],"name":"addTokenERC1155","outputs":[],"stateMutability":"nonpayable","type":"function"},{"inputs":[{"internalType":"uint256","name":"tokenId","type":"uint256"},{"internalType":"address","name":"tokenAddress","type":"address"},{"internalType":"uint8","name":"round","type":"uint8"},{"internalType":"uint256","name":"price","type":"uint256"},{"internalType":"bool","name":"isWhitelisted","type":"bool"},{"internalType":"uint256","name":"maxPurchase","type":"uint256"},{"internalType":"uint256","name":"startTime","type":"uint256"},{"internalType":"uint256","name":"endTime","type":"uint256"}],"name":"addTokenERC721","outputs":[],"stateMutability":"nonpayable","type":"function"},{"inputs":[{"internalType":"uint256[]","name":"tokenIds","type":"uint256[]"},{"internalType":"address","name":"tokenAddress","type":"address"},{"internalType":"uint8","name":"round","type":"uint8"},{"internalType":"uint256","name":"amount","type":"uint256"},{"internalType":"uint256","name":"price","type":"uint256"},{"internalType":"bool","name":"isWhitelisted","type":"bool"},{"internalType":"uint256","name":"maxPurchase","type":"uint256"},{"internalType":"uint256","name":"startTime","type":"uint256"},{"internalType":"uint256","name":"endTime","type":"uint256"}],"name":"addTokensERC1155","outputs":[],"stateMutability":"nonpayable","type":"function"},{"inputs":[{"internalType":"uint256[]","name":"tokenIds","type":"uint256[]"},{"internalType":"address","name":"tokenAddress","type":"address"},{"internalType":"uint8","name":"round","type":"uint8"},{"internalType":"uint256","name":"price","type":"uint256"},{"internalType":"bool","name":"isWhitelisted","type":"bool"},{"internalType":"uint256","name":"maxPurchase","type":"uint256"},{"internalType":"uint256","name":"startTime","type":"uint256"},{"internalType":"uint256","name":"endTime","type":"uint256"}],"name":"addTokensERC721","outputs":[],"stateMutability":"nonpayable","type":"function"},{"inputs":[{"internalType":"address","name":"_contractAddress","type":"address"},{"internalType":"uint8","name":"_round","type":"uint8"},{"internalType":"address","name":"_walletAddress","type":"address"},{"internalType":"uint256","name":"_quantity","type":"uint256"}],"name":"addWhitelist","outputs":[],"stateMutability":"nonpayable","type":"function"},{"inputs":[{"internalType":"address","name":"_contractAddress","type":"address"},{"internalType":"uint8[]","name":"_rounds","type":"uint8[]"},{"internalType":"address[]","name":"_walletAddresses","type":"address[]"},{"internalType":"uint256","name":"_quantity","type":"uint256"}],"name":"addWhitelistAll","outputs":[],"stateMutability":"nonpayable","type":"function"},{"inputs":[{"internalType":"address","name":"tokenAddress","type":"address"},{"internalType":"uint8","name":"round","type":"uint8"},{"internalType":"uint8","name":"qty","type":"uint8"},{"internalType":"uint256[]","name":"amounts","type":"uint256[]"}],"name":"buyRandomTokens","outputs":[],"stateMutability":"payable","type":"function"},{"inputs":[{"internalType":"uint256","name":"index","type":"uint256"},{"internalType":"uint256","name":"amount","type":"uint256"}],"name":"buyToken","outputs":[],"stateMutability":"payable","type":"function"},{"inputs":[{"internalType":"address","name":"tokenAddress","type":"address"},{"internalType":"uint256","name":"tokenId","type":"uint256"},{"internalType":"uint256","name":"amount","type":"uint256"}],"name":"buyToken","outputs":[],"stateMutability":"payable","type":"function"},{"inputs":[{"internalType":"address","name":"tokenAddress","type":"address"},{"internalType":"uint256[]","name":"tokenIds","type":"uint256[]"},{"internalType":"uint256[]","name":"amounts","type":"uint256[]"}],"name":"buyTokens","outputs":[],"stateMutability":"payable","type":"function"},{"inputs":[],"name":"getBlockTimestamp","outputs":[{"internalType":"uint256","name":"","type":"uint256"}],"stateMutability":"view","type":"function"},{"inputs":[{"internalType":"address","name":"tokenAddress","type":"address"},{"internalType":"uint8","name":"round","type":"uint8"}],"name":"getRandomTokenId","outputs":[{"internalType":"uint256","name":"","type":"uint256"}],"stateMutability":"view","type":"function"},{"inputs":[],"name":"getTokenCount","outputs":[{"internalType":"uint256","name":"","type":"uint256"}],"stateMutability":"view","type":"function"},{"inputs":[{"internalType":"address","name":"tokenAddress","type":"address"},{"internalType":"uint8","name":"round","type":"uint8"}],"name":"getTokenIds","outputs":[{"internalType":"uint256[]","name":"","type":"uint256[]"},{"internalType":"bool[]","name":"","type":"bool[]"}],"stateMutability":"view","type":"function"},{"inputs":[{"internalType":"address","name":"tokenAddress","type":"address"},{"internalType":"uint256","name":"tokenId","type":"uint256"},{"internalType":"uint8","name":"round","type":"uint8"}],"name":"getTokenInfo","outputs":[{"internalType":"uint256","name":"","type":"uint256"},{"internalType":"enum HyperPlayNFTLaunchpad.TokenType","name":"","type":"uint8"},{"internalType":"uint256","name":"","type":"uint256"},{"internalType":"uint256","name":"","type":"uint256"},{"internalType":"uint256","name":"","type":"uint256"},{"internalType":"bool","name":"","type":"bool"},{"internalType":"uint256","name":"","type":"uint256"},{"internalType":"uint256","name":"","type":"uint256"},{"internalType":"uint256","name":"","type":"uint256"},{"internalType":"bool","name":"","type":"bool"}],"stateMutability":"view","type":"function"},{"inputs":[{"internalType":"address","name":"tokenAddress","type":"address"}],"name":"getTotalTokenCount","outputs":[{"internalType":"uint256","name":"","type":"uint256"}],"stateMutability":"view","type":"function"},{"inputs":[{"internalType":"address","name":"_contractAddress","type":"address"},{"internalType":"uint8","name":"_round","type":"uint8"},{"internalType":"address","name":"_walletAddress","type":"address"}],"name":"getWhitelist","outputs":[{"internalType":"bool","name":"","type":"bool"},{"internalType":"uint256","name":"","type":"uint256"}],"stateMutability":"view","type":"function"},{"inputs":[{"internalType":"address","name":"tokenAddress","type":"address"},{"internalType":"uint256","name":"tokenId","type":"uint256"}],"name":"isTokenIndex","outputs":[{"internalType":"bool","name":"","type":"bool"}],"stateMutability":"view","type":"function"},{"inputs":[{"internalType":"address","name":"","type":"address"},{"internalType":"address","name":"","type":"address"},{"internalType":"uint256[]","name":"","type":"uint256[]"},{"internalType":"uint256[]","name":"","type":"uint256[]"},{"internalType":"bytes","name":"","type":"bytes"}],"name":"onERC1155BatchReceived","outputs":[{"internalType":"bytes4","name":"","type":"bytes4"}],"stateMutability":"pure","type":"function"},{"inputs":[{"internalType":"address","name":"","type":"address"},{"internalType":"address","name":"","type":"address"},{"internalType":"uint256","name":"","type":"uint256"},{"internalType":"uint256","name":"","type":"uint256"},{"internalType":"bytes","name":"","type":"bytes"}],"name":"onERC1155Received","outputs":[{"internalType":"bytes4","name":"","type":"bytes4"}],"stateMutability":"pure","type":"function"},{"inputs":[{"internalType":"address","name":"","type":"address"},{"internalType":"address","name":"","type":"address"},{"internalType":"uint256","name":"","type":"uint256"},{"internalType":"bytes","name":"","type":"bytes"}],"name":"onERC721Received","outputs":[{"internalType":"bytes4","name":"","type":"bytes4"}],"stateMutability":"pure","type":"function"},{"inputs":[],"name":"owner","outputs":[{"internalType":"address","name":"","type":"address"}],"stateMutability":"view","type":"function"},{"inputs":[{"internalType":"uint256","name":"index","type":"uint256"}],"name":"removeToken","outputs":[],"stateMutability":"nonpayable","type":"function"},{"inputs":[],"name":"renounceOwnership","outputs":[],"stateMutability":"nonpayable","type":"function"},{"inputs":[{"internalType":"bytes4","name":"interfaceId","type":"bytes4"}],"name":"supportsInterface","outputs":[{"internalType":"bool","name":"","type":"bool"}],"stateMutability":"view","type":"function"},{"inputs":[{"internalType":"uint256","name":"","type":"uint256"}],"name":"tokens","outputs":[{"internalType":"enum HyperPlayNFTLaunchpad.TokenType","name":"tokenType","type":"uint8"},{"internalType":"uint256","name":"tokenId","type":"uint256"},{"internalType":"address","name":"tokenAddress","type":"address"},{"internalType":"uint8","name":"round","type":"uint8"},{"internalType":"uint256","name":"amount","type":"uint256"},{"internalType":"uint256","name":"price","type":"uint256"},{"internalType":"bool","name":"isWhitelisted","type":"bool"},{"internalType":"uint256","name":"maxPurchase","type":"uint256"},{"internalType":"uint256","name":"purchased","type":"uint256"},{"internalType":"uint256","name":"startTime","type":"uint256"},{"internalType":"uint256","name":"endTime","type":"uint256"}],"stateMutability":"view","type":"function"},{"inputs":[{"internalType":"address","name":"newOwner","type":"address"}],"name":"transferOwnership","outputs":[],"stateMutability":"nonpayable","type":"function"},{"inputs":[{"internalType":"address","name":"tokenAddress","type":"address"},{"internalType":"uint256[]","name":"tokenIds","type":"uint256[]"},{"internalType":"uint256[]","name":"amounts","type":"uint256[]"},{"internalType":"address","name":"to","type":"address"}],"name":"transferToken","outputs":[],"stateMutability":"nonpayable","type":"function"},{"inputs":[{"internalType":"uint256","name":"index","type":"uint256"},{"internalType":"uint8","name":"round","type":"uint8"},{"internalType":"uint256","name":"price","type":"uint256"},{"internalType":"bool","name":"isWhitelisted","type":"bool"},{"internalType":"uint256","name":"maxPurchase","type":"uint256"},{"internalType":"uint256","name":"startTime","type":"uint256"},{"internalType":"uint256","name":"endTime","type":"uint256"}],"name":"updateTokenERC1155","outputs":[],"stateMutability":"nonpayable","type":"function"},{"inputs":[{"internalType":"uint256","name":"index","type":"uint256"},{"internalType":"uint8","name":"round","type":"uint8"},{"internalType":"uint256","name":"price","type":"uint256"},{"internalType":"bool","name":"isWhitelisted","type":"bool"},{"internalType":"uint256","name":"maxPurchase","type":"uint256"},{"internalType":"uint256","name":"startTime","type":"uint256"},{"internalType":"uint256","name":"endTime","type":"uint256"}],"name":"updateTokenERC721","outputs":[],"stateMutability":"nonpayable","type":"function"},{"inputs":[{"internalType":"address","name":"","type":"address"},{"internalType":"uint8","name":"","type":"uint8"},{"internalType":"address","name":"","type":"address"}],"name":"whitelist","outputs":[{"internalType":"bool","name":"hasPurchased","type":"bool"},{"internalType":"uint256","name":"quantity","type":"uint256"}],"stateMutability":"view","type":"function"},{"inputs":[],"name":"withdrawFunds","outputs":[],"stateMutability":"nonpayable","type":"function"}],"evm":{"bytecode":{"linkReferences":{},"object":"60806040523480156200001157600080fd5b506200001d3362000023565b62000073565b600080546001600160a01b038381166001600160a01b0319831681178455604051919092169283917f8be0079c531659141344cd1fd0a4f28419497f9722a3daafe3b4186f6b6457e09190a35050565b614af280620000836000396000f3fe6080604052600436106101e35760003560e01c80637d206de011610102578063bc197c8111610095578063e671499b11610064578063e671499b146105e3578063e9898d81146105f6578063f23a6e6114610624578063f2fde38b1461065157600080fd5b8063bc197c8114610554578063bf56739314610583578063c90af0fb146105a3578063d48310ef146105c357600080fd5b80639434a3fd116100d15780639434a3fd146104e157806398e0d2ee146105015780639c2343ae14610514578063a15a6ad81461053457600080fd5b80637d206de0146104175780638a3709fb146104375780638da5cb5b14610499578063933e430f146104c157600080fd5b80634e8561711161017a5780635fca1742116101495780635fca1742146103ba578063715018a6146103da57806378a89567146103ef578063796b89b91461040457600080fd5b80634e856171146103155780634f64b2be146103435780635759e5c31461037a5780635938a7251461039a57600080fd5b806329ed9205116101b657806329ed92051461028c5780632fd5916f1461029f57806334eea629146102bf57806336c5d724146102f557600080fd5b806301ffc9a7146101e8578063057466ea1461021d578063150b7a021461023257806324600fc314610277575b600080fd5b3480156101f457600080fd5b50610208610203366004614398565b610671565b60405190151581526020015b60405180910390f35b61023061022b36600461444e565b6106a8565b005b34801561023e57600080fd5b5061025e61024d366004613dd6565b630a85bd0160e11b95945050505050565b6040516001600160e01b03199091168152602001610214565b34801561028357600080fd5b50610230610a53565b61023061029a3660046141f8565b610a98565b3480156102ab57600080fd5b506102306102ba3660046143f0565b610fdf565b3480156102cb57600080fd5b506102df6102da3660046140f1565b61125c565b6040516102149a99989796959493929190614908565b34801561030157600080fd5b506102306103103660046143c0565b6113e7565b34801561032157600080fd5b5061033561033036600461412e565b6117f0565b604051908152602001610214565b34801561034f57600080fd5b5061036361035e3660046143c0565b6119fa565b6040516102149b9a999897969594939291906145fc565b34801561038657600080fd5b5061023061039536600461441e565b611a79565b3480156103a657600080fd5b506103356103b5366004613ce4565b611cf4565b3480156103c657600080fd5b506102306103d5366004613f31565b611d7a565b3480156103e657600080fd5b50610230612195565b3480156103fb57600080fd5b50600154610335565b34801561041057600080fd5b5042610335565b34801561042357600080fd5b50610230610432366004614266565b6121a9565b34801561044357600080fd5b50610482610452366004614162565b60026020908152600093845260408085208252928452828420905282529020805460019091015460ff9091169082565b604080519215158352602083019190915201610214565b3480156104a557600080fd5b506000546040516001600160a01b039091168152602001610214565b3480156104cd57600080fd5b506102306104dc366004613fb6565b6124d1565b3480156104ed57600080fd5b506102306104fc3660046141aa565b6125ee565b61023061050f366004613ebf565b612653565b34801561052057600080fd5b5061023061052f3660046142f9565b612b9a565b34801561054057600080fd5b5061048261054f366004614162565b612eb7565b34801561056057600080fd5b5061025e61056f366004613d1c565b63bc197c8160e01b98975050505050505050565b34801561058f57600080fd5b5061023061059e36600461446f565b612f2e565b3480156105af57600080fd5b506102086105be366004614092565b613088565b3480156105cf57600080fd5b506102306105de36600461446f565b61311b565b6102306105f13660046140bd565b613276565b34801561060257600080fd5b5061061661061136600461412e565b613607565b60405161021492919061454d565b34801561063057600080fd5b5061025e61063f366004613e46565b63f23a6e6160e01b9695505050505050565b34801561065d57600080fd5b5061023061066c366004613ce4565b61385e565b60006001600160e01b03198216630271189760e51b14806106a257506001600160e01b03198216630a85bd0160e11b145b92915050565b60015482106106d25760405162461bcd60e51b81526004016106c990614896565b60405180910390fd5b6000600183815481106106f557634e487b7160e01b600052603260045260246000fd5b60009182526020909120600a9091020190506001815460ff16600181111561072d57634e487b7160e01b600052602160045260246000fd5b14806107395750816001145b6107555760405162461bcd60e51b81526004016106c9906148c2565b600581015460ff16156107a3576002810154610787906001600160a01b03811690600160a01b900460ff1633856138d4565b6107a35760405162461bcd60e51b81526004016106c99061482a565b80600601548282600701546107b891906149b2565b11156107d65760405162461bcd60e51b81526004016106c99061469a565b80600801544210156107fa5760405162461bcd60e51b81526004016106c9906146d1565b8060090154421061081d5760405162461bcd60e51b81526004016106c990614708565b81816004015461082d91906149ca565b341461084b5760405162461bcd60e51b81526004016106c990614777565b8181600701600082825461085f91906149b2565b9091555060009050815460ff16600181111561088b57634e487b7160e01b600052602160045260246000fd5b141561090157600281015460018201546040516323b872dd60e01b81526001600160a01b03909216916323b872dd916108ca91309133916004016144f1565b600060405180830381600087803b1580156108e457600080fd5b505af11580156108f8573d6000803e3d6000fd5b5050505061096f565b60028101546001820154604051637921219560e11b81526001600160a01b039092169163f242432a9161093c91309133918890600401614515565b600060405180830381600087803b15801561095657600080fd5b505af115801561096a573d6000803e3d6000fd5b505050505b600581015460ff1615610a03576002818101546001600160a01b038116600090815260209283526040808220600160a01b90930460ff168252918352818120338252909252902060018101548311156109da5760405162461bcd60e51b81526004016106c9906147a5565b805460ff191660019081178255810180548491906000906109fc9084906149e9565b9091555050505b60028101546001820154825460048401546040516001600160a01b0390941693600080516020614a7d83398151915292610a469260ff90911691339189916145ca565b60405180910390a3505050565b610a5b613954565b600080546040516001600160a01b03909116914780156108fc02929091818181858888f19350505050158015610a95573d6000803e3d6000fd5b50565b6000805b8360ff16811015610fb7576000610abc87610ab789896117f0565b6139ae565b9050600060018281548110610ae157634e487b7160e01b600052603260045260246000fd5b60009182526020909120600a9091020190506001815460ff166001811115610b1957634e487b7160e01b600052602160045260246000fd5b1480610b4c5750848381518110610b4057634e487b7160e01b600052603260045260246000fd5b60200260200101516001145b610b685760405162461bcd60e51b81526004016106c9906148c2565b600581015460ff1615610be25760028101548551610bc6916001600160a01b03811691600160a01b90910460ff16903390899088908110610bb957634e487b7160e01b600052603260045260246000fd5b60200260200101516138d4565b610be25760405162461bcd60e51b81526004016106c99061482a565b8060060154858481518110610c0757634e487b7160e01b600052603260045260246000fd5b60200260200101518260070154610c1e91906149b2565b1115610c3c5760405162461bcd60e51b81526004016106c99061469a565b8060080154421015610c605760405162461bcd60e51b81526004016106c9906146d1565b80600901544210610c835760405162461bcd60e51b81526004016106c990614708565b848381518110610ca357634e487b7160e01b600052603260045260246000fd5b60200260200101518160040154610cba91906149ca565b610cc490856149b2565b9350848381518110610ce657634e487b7160e01b600052603260045260246000fd5b6020026020010151816007016000828254610d0191906149b2565b9091555060009050815460ff166001811115610d2d57634e487b7160e01b600052602160045260246000fd5b1415610da357600281015460018201546040516323b872dd60e01b81526001600160a01b03909216916323b872dd91610d6c91309133916004016144f1565b600060405180830381600087803b158015610d8657600080fd5b505af1158015610d9a573d6000803e3d6000fd5b50505050610e4a565b8060020160009054906101000a90046001600160a01b03166001600160a01b031663f242432a30338460010154898881518110610df057634e487b7160e01b600052603260045260246000fd5b60200260200101516040518563ffffffff1660e01b8152600401610e179493929190614515565b600060405180830381600087803b158015610e3157600080fd5b505af1158015610e45573d6000803e3d6000fd5b505050505b600581015460ff1615610f2d576002818101546001600160a01b038116600090815260209283526040808220600160a01b90930460ff16825291835281812033825290925290208551869085908110610eb357634e487b7160e01b600052603260045260246000fd5b602002602001015181600101541015610ede5760405162461bcd60e51b81526004016106c9906147a5565b805460ff191660011781558551869085908110610f0b57634e487b7160e01b600052603260045260246000fd5b6020026020010151816001016000828254610f2691906149e9565b9091555050505b60028101546001820154825487516001600160a01b0390931692600080516020614a7d8339815191529160ff169033908a9089908110610f7d57634e487b7160e01b600052603260045260246000fd5b60200260200101518660040154604051610f9a94939291906145ca565b60405180910390a350508080610faf90614a00565b915050610a9c565b5080341015610fd85760405162461bcd60e51b81526004016106c990614777565b5050505050565b610fe7613954565b6040516331a9108f60e11b81526004810189905230906001600160a01b03891690636352211e9060240160206040518083038186803b15801561102957600080fd5b505afa15801561103d573d6000803e3d6000fd5b505050506040513d601f19601f820116820180604052508101906110619190613d00565b6001600160a01b0316146110875760405162461bcd60e51b81526004016106c990614853565b6110918789613088565b156110ae5760405162461bcd60e51b81526004016106c9906147f3565b60408051610160810182526000808252602082018b90526001600160a01b038a169282019290925260ff881660608201526080810182905260a0810187905285151560c082015260e08101859052610100810182905261012081018490526101408101839052600180548082018255928190528151600a9093027fb10e2d527612073b26eecdfd717e6a320cf44b4afac2b0732d9fcbe2b7fa0cf6018054929390929091839160ff191690838181111561117857634e487b7160e01b600052602160045260246000fd5b02179055506020820151600180830191909155604080840151600284018054606087015160ff16600160a01b026001600160a81b03199091166001600160a01b03938416171790556080850151600385015560a0850151600485015560c085015160058501805491151560ff1990921691909117905560e0850151600685015561010085015160078501556101208501516008850155610140909401516009909301929092559051918916918a91600080516020614a9d8339815191529161124a91908a908a908a908a908a90614664565b60405180910390a35050505050505050565b60008060008060008060008060008060006112788e8e8e613a6f565b905060006001828154811061129d57634e487b7160e01b600052603260045260246000fd5b600091825260208220600a909102019150815460ff1660018111156112d257634e487b7160e01b600052602160045260246000fd5b141561131b5760048101546007820154600683015460058401546008850154600990950154959f5060009e50929c50909a50985060ff16965094509250889150508515156113d7565b6001815460ff16600181111561134157634e487b7160e01b600052602160045260246000fd5b141561139d578160018260040154836007015484600601548560050160009054906101000a900460ff1686600801548760090154886003015460008a60070154119b509b509b509b509b509b509b509b509b509b5050506113d7565b60405162461bcd60e51b815260206004820152600f60248201526e151bdad95b881b9bdd08199bdd5b99608a1b60448201526064016106c9565b93979b5093979b91959950939750565b6113ef613954565b60015481106114105760405162461bcd60e51b81526004016106c990614896565b60006001828154811061143357634e487b7160e01b600052603260045260246000fd5b90600052602060002090600a0201905080600701546000146114925760405162461bcd60e51b8152602060048201526018602482015277151bdad95b881a185cc81899595b881c1d5c98da185cd95960421b60448201526064016106c9565b6000815460ff1660018111156114b857634e487b7160e01b600052602160045260246000fd5b141561153e5760028101546001600160a01b03166323b872dd306114e46000546001600160a01b031690565b84600101546040518463ffffffff1660e01b8152600401611507939291906144f1565b600060405180830381600087803b15801561152157600080fd5b505af1158015611535573d6000803e3d6000fd5b505050506115c0565b60028101546001600160a01b031663f242432a306115646000546001600160a01b031690565b846001015485600301546040518563ffffffff1660e01b815260040161158d9493929190614515565b600060405180830381600087803b1580156115a757600080fd5b505af11580156115bb573d6000803e3d6000fd5b505050505b6002810154600182015482546040516001600160a01b03909316927fe4a29ccd55770f0547fb782db0ff996cb224cbef7622ae806009e0c249a9fcd49161160c9160ff909116906145bc565b60405180910390a3600180546116239082906149e9565b8154811061164157634e487b7160e01b600052603260045260246000fd5b90600052602060002090600a02016001838154811061167057634e487b7160e01b600052603260045260246000fd5b600091825260209091208254600a909202018054909160ff1690829060ff1916600183818111156116b157634e487b7160e01b600052602160045260246000fd5b0217905550600182810154828201556002808401805491840180546001600160a01b039093166001600160a01b031984168117825591546001600160a81b0319909316909117600160a01b9283900460ff9081169093021790556003808501549084015560048085015490840155600580850154908401805460ff1916919092161515179055600680840154908301556007808401549083015560088084015490830155600992830154929091019190915580548061178057634e487b7160e01b600052603160045260246000fd5b600082815260208120600a60001990930192830201805460ff199081168255600182018390556002820180546001600160a81b0319169055600382018390556004820183905560058201805490911690556006810182905560078101829055600881018290556009015590555050565b60015460009081906001600160401b0381111561181d57634e487b7160e01b600052604160045260246000fd5b604051908082528060200260200182016040528015611846578160200160208202803683370190505b5090506000805b6001548110156119205760006001828154811061187a57634e487b7160e01b600052603260045260246000fd5b60009182526020909120600a9091020160028101549091506001600160a01b0388811691161480156118bc5750600281015460ff878116600160a01b90920416145b80156118ca57506007810154155b1561190d5780600101548484815181106118f457634e487b7160e01b600052603260045260246000fd5b60209081029190910101528261190981614a00565b9350505b508061191881614a00565b91505061184d565b50600081116119715760405162461bcd60e51b815260206004820152601f60248201527f4e6f20617661696c61626c6520746f6b656e7320746f2070757263686173650060448201526064016106c9565b60008142336040516020016119a292919091825260601b6bffffffffffffffffffffffff1916602082015260340190565b6040516020818303038152906040528051906020012060001c6119c59190614a1b565b90508281815181106119e757634e487b7160e01b600052603260045260246000fd5b6020026020010151935050505092915050565b60018181548110611a0a57600080fd5b60009182526020909120600a9091020180546001820154600283015460038401546004850154600586015460068701546007880154600889015460099099015460ff9889169a5096986001600160a01b03871698600160a01b909704871697959694959490931693919290918b565b611a81613954565b604051627eeac760e11b8152306004820152602481018a905286906001600160a01b038a169062fdd58e9060440160206040518083038186803b158015611ac757600080fd5b505afa158015611adb573d6000803e3d6000fd5b505050506040513d601f19601f82011682018060405250810190611aff91906143d8565b1015611b1d5760405162461bcd60e51b81526004016106c990614730565b611b27888a613088565b15611b445760405162461bcd60e51b81526004016106c9906147f3565b60408051610160810182526001808252602082018c90526001600160a01b038b169282019290925260ff891660608201526080810188905260a0810187905285151560c082015260e08101859052600061010082018190526101208201859052610140820184905282548084018455908390528151600a9091027fb10e2d527612073b26eecdfd717e6a320cf44b4afac2b0732d9fcbe2b7fa0cf601805492939092839160ff1991909116908381811115611c0f57634e487b7160e01b600052602160045260246000fd5b02179055506020820151600180830191909155604080840151600284018054606087015160ff16600160a01b026001600160a81b03199091166001600160a01b03938416171790556080850151600385015560a0850151600485015560c085015160058501805491151560ff1990921691909117905560e0850151600685015561010085015160078501556101208501516008850155610140909401516009909301929092559051918a16918b91600080516020614a9d83398151915291611ce191908a908a908a908a908a90614664565b60405180910390a3505050505050505050565b60008060005b600154811015611d7357600060018281548110611d2757634e487b7160e01b600052603260045260246000fd5b60009182526020909120600a9091020160028101549091506001600160a01b0386811691161415611d605782611d5c81614a00565b9350505b5080611d6b81614a00565b915050611cfa565b5092915050565b611d82613954565b60005b8351811015610fd8576000611dc186868481518110611db457634e487b7160e01b600052603260045260246000fd5b60200260200101516139ae565b9050600060018281548110611de657634e487b7160e01b600052603260045260246000fd5b90600052602060002090600a020190508060070154600014611e455760405162461bcd60e51b8152602060048201526018602482015277151bdad95b881a185cc81899595b881c1d5c98da185cd95960421b60448201526064016106c9565b6000815460ff166001811115611e6b57634e487b7160e01b600052602160045260246000fd5b1415611ee157600281015460018201546040516323b872dd60e01b81526001600160a01b03909216916323b872dd91611eaa91309189916004016144f1565b600060405180830381600087803b158015611ec457600080fd5b505af1158015611ed8573d6000803e3d6000fd5b50505050611f54565b600281015460018201546003830154604051637921219560e11b81526001600160a01b039093169263f242432a92611f219230928a929190600401614515565b600060405180830381600087803b158015611f3b57600080fd5b505af1158015611f4f573d6000803e3d6000fd5b505050505b6002810154600182015482546040516001600160a01b03909316927fe4a29ccd55770f0547fb782db0ff996cb224cbef7622ae806009e0c249a9fcd491611fa09160ff909116906145bc565b60405180910390a360018054611fb79082906149e9565b81548110611fd557634e487b7160e01b600052603260045260246000fd5b90600052602060002090600a02016001838154811061200457634e487b7160e01b600052603260045260246000fd5b600091825260209091208254600a909202018054909160ff1690829060ff19166001838181111561204557634e487b7160e01b600052602160045260246000fd5b0217905550600182810154828201556002808401805491840180546001600160a01b039093166001600160a01b031984168117825591546001600160a81b0319909316909117600160a01b9283900460ff9081169093021790556003808501549084015560048085015490840155600580850154908401805460ff1916919092161515179055600680840154908301556007808401549083015560088084015490830155600992830154929091019190915580548061211457634e487b7160e01b600052603160045260246000fd5b600082815260208120600a60001990930192830201805460ff199081168255600182018390556002820180546001600160a81b0319169055600382018390556004820183905560058201805490911690556006810182905560078101829055600881018290556009015590555081905061218d81614a00565b915050611d85565b61219d613954565b6121a76000613b18565b565b6121b1613954565b60005b88518110156124c657306001600160a01b0316886001600160a01b0316636352211e8b84815181106121f657634e487b7160e01b600052603260045260246000fd5b60200260200101516040518263ffffffff1660e01b815260040161221c91815260200190565b60206040518083038186803b15801561223457600080fd5b505afa158015612248573d6000803e3d6000fd5b505050506040513d601f19601f8201168201806040525081019061226c9190613d00565b6001600160a01b0316146122925760405162461bcd60e51b81526004016106c990614853565b6122c3888a83815181106122b657634e487b7160e01b600052603260045260246000fd5b6020026020010151613088565b156122e05760405162461bcd60e51b81526004016106c9906147f3565b60408051610160810190915260019080600081526020018b848151811061231757634e487b7160e01b600052603260045260246000fd5b60209081029190910181015182526001600160a01b038c168282015260ff8b166040830152600060608301819052608083018b905289151560a084015260c0830189905260e08301819052610100830188905261012090920186905283546001818101865594835291208251600a90920201805492939092839160ff19919091169083818111156123b857634e487b7160e01b600052602160045260246000fd5b0217905550602082015160018201556040820151600282018054606085015160ff16600160a01b026001600160a81b03199091166001600160a01b03938416171790556080830151600383015560a0830151600483015560c083015160058301805491151560ff1990921691909117905560e0830151600683015561010083015160078301556101208301516008830155610140909201516009909101558951908916908a908390811061247c57634e487b7160e01b600052603260045260246000fd5b6020026020010151600080516020614a9d833981519152600089898989896040516124ac96959493929190614664565b60405180910390a3806124be81614a00565b9150506121b4565b505050505050505050565b6124d9613954565b60005b8351811015610fd85760005b83518110156125db5760405180604001604052806001151581526020018481525060026000886001600160a01b03166001600160a01b03168152602001908152602001600020600087858151811061255057634e487b7160e01b600052603260045260246000fd5b602002602001015160ff1660ff168152602001908152602001600020600086848151811061258e57634e487b7160e01b600052603260045260246000fd5b6020908102919091018101516001600160a01b03168252818101929092526040016000208251815460ff1916901515178155910151600190910155806125d381614a00565b9150506124e8565b50806125e681614a00565b9150506124dc565b6125f6613954565b604080518082018252600180825260208083019485526001600160a01b0397881660009081526002825284812060ff989098168152968152838720959097168652939095529092209251835460ff19169015151783559051910155565b6000805b8351811015612b7457600061268686868481518110611db457634e487b7160e01b600052603260045260246000fd5b90506000600182815481106126ab57634e487b7160e01b600052603260045260246000fd5b60009182526020909120600a9091020190506001815460ff1660018111156126e357634e487b7160e01b600052602160045260246000fd5b1480612716575084838151811061270a57634e487b7160e01b600052603260045260246000fd5b60200260200101516001145b6127325760405162461bcd60e51b81526004016106c9906148c2565b600581015460ff161561279f5760028101548551612783916001600160a01b03811691600160a01b90910460ff16903390899088908110610bb957634e487b7160e01b600052603260045260246000fd5b61279f5760405162461bcd60e51b81526004016106c99061482a565b80600601548584815181106127c457634e487b7160e01b600052603260045260246000fd5b602002602001015182600701546127db91906149b2565b11156127f95760405162461bcd60e51b81526004016106c99061469a565b806008015442101561281d5760405162461bcd60e51b81526004016106c9906146d1565b806009015442106128405760405162461bcd60e51b81526004016106c990614708565b84838151811061286057634e487b7160e01b600052603260045260246000fd5b6020026020010151816004015461287791906149ca565b61288190856149b2565b93508483815181106128a357634e487b7160e01b600052603260045260246000fd5b60200260200101518160070160008282546128be91906149b2565b9091555060009050815460ff1660018111156128ea57634e487b7160e01b600052602160045260246000fd5b141561296057600281015460018201546040516323b872dd60e01b81526001600160a01b03909216916323b872dd9161292991309133916004016144f1565b600060405180830381600087803b15801561294357600080fd5b505af1158015612957573d6000803e3d6000fd5b50505050612a07565b8060020160009054906101000a90046001600160a01b03166001600160a01b031663f242432a303384600101548988815181106129ad57634e487b7160e01b600052603260045260246000fd5b60200260200101516040518563ffffffff1660e01b81526004016129d49493929190614515565b600060405180830381600087803b1580156129ee57600080fd5b505af1158015612a02573d6000803e3d6000fd5b505050505b600581015460ff1615612aea576002818101546001600160a01b038116600090815260209283526040808220600160a01b90930460ff16825291835281812033825290925290208551869085908110612a7057634e487b7160e01b600052603260045260246000fd5b602002602001015181600101541015612a9b5760405162461bcd60e51b81526004016106c9906147a5565b805460ff191660011781558551869085908110612ac857634e487b7160e01b600052603260045260246000fd5b6020026020010151816001016000828254612ae391906149e9565b9091555050505b60028101546001820154825487516001600160a01b0390931692600080516020614a7d8339815191529160ff169033908a9089908110612b3a57634e487b7160e01b600052603260045260246000fd5b60200260200101518660040154604051612b5794939291906145ca565b60405180910390a350508080612b6c90614a00565b915050612657565b50803414612b945760405162461bcd60e51b81526004016106c990614777565b50505050565b612ba2613954565b60005b8951811015612eab5786896001600160a01b031662fdd58e308d8581518110612bde57634e487b7160e01b600052603260045260246000fd5b60200260200101516040518363ffffffff1660e01b8152600401612c179291906001600160a01b03929092168252602082015260400190565b60206040518083038186803b158015612c2f57600080fd5b505afa158015612c43573d6000803e3d6000fd5b505050506040513d601f19601f82011682018060405250810190612c6791906143d8565b1015612c855760405162461bcd60e51b81526004016106c990614730565b612ca9898b83815181106122b657634e487b7160e01b600052603260045260246000fd5b15612cc65760405162461bcd60e51b81526004016106c9906147f3565b604080516101608101909152600190808281526020018c8481518110612cfc57634e487b7160e01b600052603260045260246000fd5b60209081029190910181015182526001600160a01b038d168282015260ff8c166040830152606082018b9052608082018a905288151560a083015260c08201889052600060e08301819052610100830188905261012090920186905283546001818101865594835291208251600a90920201805492939092839160ff1991909116908381811115612d9d57634e487b7160e01b600052602160045260246000fd5b0217905550602082015160018201556040820151600282018054606085015160ff16600160a01b026001600160a81b03199091166001600160a01b03938416171790556080830151600383015560a0830151600483015560c083015160058301805491151560ff1990921691909117905560e0830151600683015561010083015160078301556101208301516008830155610140909201516009909101558a51908a16908b9083908110612e6157634e487b7160e01b600052603260045260246000fd5b6020026020010151600080516020614a9d83398151915260018989898989604051612e9196959493929190614664565b60405180910390a380612ea381614a00565b915050612ba5565b50505050505050505050565b6001600160a01b03808416600090815260026020908152604080832060ff8088168552908352818420948616845293825280832081518083019092528054909416151580825260019094015491810191909152909182919080612f1b576000612f21565b81602001515b9250925050935093915050565b612f36613954565b6001548710612f575760405162461bcd60e51b81526004016106c990614896565b600060018881548110612f7a57634e487b7160e01b600052603260045260246000fd5b600091825260208220600a909102019150815460ff166001811115612faf57634e487b7160e01b600052602160045260246000fd5b14612ffc5760405162461bcd60e51b815260206004820152601c60248201527f546f6b656e206d757374206265206f662074797065204552433732310000000060448201526064016106c9565b6004810186905560058101805460ff191686151517905560068101849055600881018390556009810182905560028101805460ff60a01b198116600160a01b60ff8b160290811790925560018301546040516001600160a01b03928316929093169190911791600080516020614a9d8339815191529061124a906000908b908b908b908b908b90614664565b6000805b600154811015613111576000600182815481106130b957634e487b7160e01b600052603260045260246000fd5b60009182526020909120600a9091020160028101549091506001600160a01b0386811691161480156130ee5750838160010154145b156130fe576001925050506106a2565b508061310981614a00565b91505061308c565b5060009392505050565b613123613954565b60015487106131445760405162461bcd60e51b81526004016106c990614896565b60006001888154811061316757634e487b7160e01b600052603260045260246000fd5b60009182526020909120600a9091020190506001815460ff16600181111561319f57634e487b7160e01b600052602160045260246000fd5b146131ec5760405162461bcd60e51b815260206004820152601d60248201527f546f6b656e206d757374206265206f662074797065204552433131353500000060448201526064016106c9565b6004810186905560058101805460ff191686151517905560068101849055600881018390556009810182905560028101805460ff60a01b198116600160a01b60ff8b16029081179092556001808401546040516001600160a01b03938416939094169290921792600080516020614a9d8339815191529161124a918b908b908b908b908b90614664565b600061328284846139ae565b90506000600182815481106132a757634e487b7160e01b600052603260045260246000fd5b60009182526020909120600a9091020190506001815460ff1660018111156132df57634e487b7160e01b600052602160045260246000fd5b14806132eb5750826001145b6133075760405162461bcd60e51b81526004016106c9906148c2565b600581015460ff1615613355576002810154613339906001600160a01b03811690600160a01b900460ff1633866138d4565b6133555760405162461bcd60e51b81526004016106c99061482a565b806006015483826007015461336a91906149b2565b11156133885760405162461bcd60e51b81526004016106c99061469a565b80600801544210156133ac5760405162461bcd60e51b81526004016106c9906146d1565b806009015442106133cf5760405162461bcd60e51b81526004016106c990614708565b8281600401546133df91906149ca565b34146133fd5760405162461bcd60e51b81526004016106c990614777565b8281600701600082825461341191906149b2565b9091555060009050815460ff16600181111561343d57634e487b7160e01b600052602160045260246000fd5b14156134b357600281015460018201546040516323b872dd60e01b81526001600160a01b03909216916323b872dd9161347c91309133916004016144f1565b600060405180830381600087803b15801561349657600080fd5b505af11580156134aa573d6000803e3d6000fd5b50505050613521565b60028101546001820154604051637921219560e11b81526001600160a01b039092169163f242432a916134ee91309133918990600401614515565b600060405180830381600087803b15801561350857600080fd5b505af115801561351c573d6000803e3d6000fd5b505050505b600581015460ff16156135b5576002818101546001600160a01b038116600090815260209283526040808220600160a01b90930460ff1682529183528181203382529092529020600181015484111561358c5760405162461bcd60e51b81526004016106c9906147a5565b805460ff191660019081178255810180548591906000906135ae9084906149e9565b9091555050505b60028101546001820154825460048401546040516001600160a01b0390941693600080516020614a7d833981519152926135f89260ff9091169133918a916145ca565b60405180910390a35050505050565b6060806000805b6001548110156136a35760006001828154811061363b57634e487b7160e01b600052603260045260246000fd5b60009182526020909120600a9091020160028101549091506001600160a01b03888116911614801561367d5750600281015460ff878116600160a01b90920416145b15613690578261368c81614a00565b9350505b508061369b81614a00565b91505061360e565b506000816001600160401b038111156136cc57634e487b7160e01b600052604160045260246000fd5b6040519080825280602002602001820160405280156136f5578160200160208202803683370190505b5090506000826001600160401b0381111561372057634e487b7160e01b600052604160045260246000fd5b604051908082528060200260200182016040528015613749578160200160208202803683370190505b5090506000805b60015481101561384e5760006001828154811061377d57634e487b7160e01b600052603260045260246000fd5b60009182526020909120600a9091020160028101549091506001600160a01b038b811691161480156137bf5750600281015460ff8a8116600160a01b90920416145b1561383b5780600101548584815181106137e957634e487b7160e01b600052603260045260246000fd5b602002602001018181525050600081600701541184848151811061381d57634e487b7160e01b600052603260045260246000fd5b911515602092830291909101909101528261383781614a00565b9350505b508061384681614a00565b915050613750565b50919450925050505b9250929050565b613866613954565b6001600160a01b0381166138cb5760405162461bcd60e51b815260206004820152602660248201527f4f776e61626c653a206e6577206f776e657220697320746865207a65726f206160448201526564647265737360d01b60648201526084016106c9565b610a9581613b18565b6001600160a01b03808516600090815260026020908152604080832060ff8089168552908352818420948716845293909152812054909116158061394b57506001600160a01b03808616600090815260026020908152604080832060ff891684528252808320938716835292905220600101548211155b95945050505050565b6000546001600160a01b031633146121a75760405162461bcd60e51b815260206004820181905260248201527f4f776e61626c653a2063616c6c6572206973206e6f7420746865206f776e657260448201526064016106c9565b6000805b600154811015613a34576000600182815481106139df57634e487b7160e01b600052603260045260246000fd5b60009182526020909120600a9091020160028101549091506001600160a01b038681169116148015613a145750838160010154145b15613a21575090506106a2565b5080613a2c81614a00565b9150506139b2565b5060405162461bcd60e51b815260206004820152600f60248201526e151bdad95b881b9bdd08199bdd5b99608a1b60448201526064016106c9565b6000805b600154811015613a3457600060018281548110613aa057634e487b7160e01b600052603260045260246000fd5b60009182526020909120600a9091020160028101549091506001600160a01b038781169116148015613ad55750848160010154145b8015613af15750600281015460ff858116600160a01b90920416145b15613afe57509050613b11565b5080613b0981614a00565b915050613a73565b9392505050565b600080546001600160a01b038381166001600160a01b0319831681178455604051919092169283917f8be0079c531659141344cd1fd0a4f28419497f9722a3daafe3b4186f6b6457e09190a35050565b600082601f830112613b78578081fd5b81356020613b8d613b888361498f565b61495f565b80838252828201915082860187848660051b8901011115613bac578586fd5b855b85811015613bd3578135613bc181614a67565b84529284019290840190600101613bae565b5090979650505050505050565b60008083601f840112613bf1578182fd5b5081356001600160401b03811115613c07578182fd5b6020830191508360208260051b850101111561385757600080fd5b600082601f830112613c32578081fd5b81356020613c42613b888361498f565b80838252828201915082860187848660051b8901011115613c61578586fd5b855b85811015613bd357813584529284019290840190600101613c63565b80358015158114613c8f57600080fd5b919050565b60008083601f840112613ca5578182fd5b5081356001600160401b03811115613cbb578182fd5b60208301915083602082850101111561385757600080fd5b803560ff81168114613c8f57600080fd5b600060208284031215613cf5578081fd5b8135613b1181614a67565b600060208284031215613d11578081fd5b8151613b1181614a67565b60008060008060008060008060a0898b031215613d37578384fd5b8835613d4281614a67565b97506020890135613d5281614a67565b965060408901356001600160401b0380821115613d6d578586fd5b613d798c838d01613be0565b909850965060608b0135915080821115613d91578586fd5b613d9d8c838d01613be0565b909650945060808b0135915080821115613db5578384fd5b50613dc28b828c01613c94565b999c989b5096995094979396929594505050565b600080600080600060808688031215613ded578081fd5b8535613df881614a67565b94506020860135613e0881614a67565b93506040860135925060608601356001600160401b03811115613e29578182fd5b613e3588828901613c94565b969995985093965092949392505050565b60008060008060008060a08789031215613e5e578182fd5b8635613e6981614a67565b95506020870135613e7981614a67565b9450604087013593506060870135925060808701356001600160401b03811115613ea1578283fd5b613ead89828a01613c94565b979a9699509497509295939492505050565b600080600060608486031215613ed3578283fd5b8335613ede81614a67565b925060208401356001600160401b0380821115613ef9578384fd5b613f0587838801613c22565b93506040860135915080821115613f1a578283fd5b50613f2786828701613c22565b9150509250925092565b60008060008060808587031215613f46578182fd5b8435613f5181614a67565b935060208501356001600160401b0380821115613f6c578384fd5b613f7888838901613c22565b94506040870135915080821115613f8d578384fd5b50613f9a87828801613c22565b9250506060850135613fab81614a67565b939692955090935050565b60008060008060808587031215613fcb578182fd5b8435613fd681614a67565b93506020858101356001600160401b0380821115613ff2578485fd5b818801915088601f830112614005578485fd5b8135614013613b888261498f565b8082825285820191508585018c878560051b8801011115614032578889fd5b8895505b8386101561405b5761404781613cd3565b835260019590950194918601918601614036565b50975050506040880135925080831115614073578485fd5b505061408187828801613b68565b949793965093946060013593505050565b600080604083850312156140a4578182fd5b82356140af81614a67565b946020939093013593505050565b6000806000606084860312156140d1578081fd5b83356140dc81614a67565b95602085013595506040909401359392505050565b600080600060608486031215614105578081fd5b833561411081614a67565b92506020840135915061412560408501613cd3565b90509250925092565b60008060408385031215614140578182fd5b823561414b81614a67565b915061415960208401613cd3565b90509250929050565b600080600060608486031215614176578081fd5b833561418181614a67565b925061418f60208501613cd3565b9150604084013561419f81614a67565b809150509250925092565b600080600080608085870312156141bf578182fd5b84356141ca81614a67565b93506141d860208601613cd3565b925060408501356141e881614a67565b9396929550929360600135925050565b6000806000806080858703121561420d578182fd5b843561421881614a67565b935061422660208601613cd3565b925061423460408601613cd3565b915060608501356001600160401b0381111561424e578182fd5b61425a87828801613c22565b91505092959194509250565b600080600080600080600080610100898b031215614282578182fd5b88356001600160401b03811115614297578283fd5b6142a38b828c01613c22565b98505060208901356142b481614a67565b96506142c260408a01613cd3565b9550606089013594506142d760808a01613c7f565b979a969950949793969560a0850135955060c08501359460e001359350915050565b60008060008060008060008060006101208a8c031215614317578283fd5b89356001600160401b0381111561432c578384fd5b6143388c828d01613c22565b99505060208a013561434981614a67565b975061435760408b01613cd3565b965060608a0135955060808a0135945061437360a08b01613c7f565b935060c08a0135925060e08a013591506101008a013590509295985092959850929598565b6000602082840312156143a9578081fd5b81356001600160e01b031981168114613b11578182fd5b6000602082840312156143d1578081fd5b5035919050565b6000602082840312156143e9578081fd5b5051919050565b600080600080600080600080610100898b03121561440c578182fd5b8835975060208901356142b481614a67565b60008060008060008060008060006101208a8c03121561443c578283fd5b8935985060208a013561434981614a67565b60008060408385031215614460578182fd5b50508035926020909101359150565b600080600080600080600060e0888a031215614489578081fd5b8735965061449960208901613cd3565b9550604088013594506144ae60608901613c7f565b9699959850939660808101359560a0820135955060c0909101359350915050565b600281106144ed57634e487b7160e01b600052602160045260246000fd5b9052565b6001600160a01b039384168152919092166020820152604081019190915260600190565b6001600160a01b0394851681529290931660208301526040820152606081019190915260a06080820181905260009082015260c00190565b604080825283519082018190526000906020906060840190828701845b828110156145865781518452928401929084019060010161456a565b50505083810382850152845180825285830191830190845b81811015613bd357835115158352928401929184019160010161459e565b602081016106a282846144cf565b608081016145d882876144cf565b6001600160a01b039490941660208201526040810192909252606090910152919050565b610160810161460b828e6144cf565b602082019b909b526001600160a01b039990991660408a015260ff979097166060890152608088019590955260a087019390935290151560c086015260e085015261010084015261012083015261014090910152919050565b60c0810161467282896144cf565b602082019690965293151560408501526060840192909252608083015260a090910152919050565b6020808252601f908201527f45786365656473206d6178696d756d20707572636861736520616d6f756e7400604082015260600190565b60208082526018908201527f53616c6520686173206e6f742073746172746564207965740000000000000000604082015260600190565b6020808252600e908201526d14d85b19481a185cc8195b99195960921b604082015260600190565b60208082526027908201527f546f6b656e206d757374206265206465706f736974656420746f2074686520636040820152661bdb9d1c9858dd60ca1b606082015260800190565b602080825260149082015273125b98dbdc9c9958dd081d985b1d59481cd95b9d60621b604082015260600190565b6020808252602e908201527f43616e6e6f74207075726368617365206d6f7265207468616e2074686520616c60408201526d6c6f776564207175616e7469747960901b606082015260800190565b60208082526019908201527f546f6b656e20616c726561647920726567697374657265642e00000000000000604082015260600190565b6020808252600f908201526e43616e6e6f7420707572636861736560881b604082015260600190565b60208082526023908201527f546f6b656e206d757374206265206f776e65642062792074686520636f6e74726040820152621858dd60ea1b606082015260800190565b602080825260129082015271496e646578206f7574206f662072616e676560701b604082015260600190565b60208082526026908201527f43616e206f6e6c79207075726368617365206f6e6520746f6b656e20666f722060408201526545524337323160d01b606082015260800190565b8a8152610140810161491d602083018c6144cf565b60408201999099526060810197909752608087019590955292151560a086015260c085019190915260e084015261010083015215156101209091015292915050565b604051601f8201601f191681016001600160401b038111828210171561498757614987614a51565b604052919050565b60006001600160401b038211156149a8576149a8614a51565b5060051b60200190565b600082198211156149c5576149c5614a3b565b500190565b60008160001904831182151516156149e4576149e4614a3b565b500290565b6000828210156149fb576149fb614a3b565b500390565b6000600019821415614a1457614a14614a3b565b5060010190565b600082614a3657634e487b7160e01b81526012600452602481fd5b500690565b634e487b7160e01b600052601160045260246000fd5b634e487b7160e01b600052604160045260246000fd5b6001600160a01b0381168114610a9557600080fdfe98c617079c3707c35fda6126d830e5dc8e65ea6dd54f1678b45794c14fa505a98aac78a50360bf157bae78722a15ba5dbecdbf740a6e914031ff1f0d4be2fb60a2646970667358221220e67702b42b01852d4f6bb60850bc4a476f3454aaabd9811886c42da3647ad33f64736f6c63430008040033","opcodes":"PUSH1 0x80 PUSH1 0x40 MSTORE CALLVALUE DUP1 ISZERO PUSH3 0x11 JUMPI PUSH1 0x0 DUP1 REVERT JUMPDEST POP PUSH3 0x1D CALLER PUSH3 0x23 JUMP JUMPDEST PUSH3 0x73 JUMP JUMPDEST PUSH1 0x0 DUP1 SLOAD PUSH1 0x1 PUSH1 0x1 PUSH1 0xA0 SHL SUB DUP4 DUP2 AND PUSH1 0x1 PUSH1 0x1 PUSH1 0xA0 SHL SUB NOT DUP4 AND DUP2 OR DUP5 SSTORE PUSH1 0x40 MLOAD SWAP2 SWAP1 SWAP3 AND SWAP3 DUP4 SWAP2 PUSH32 0x8BE0079C531659141344CD1FD0A4F28419497F9722A3DAAFE3B4186F6B6457E0 SWAP2 SWAP1 LOG3 POP POP JUMP JUMPDEST PUSH2 0x4AF2 DUP1 PUSH3 0x83 PUSH1 0x0 CODECOPY PUSH1 0x0 RETURN INVALID PUSH1 0x80 PUSH1 0x40 MSTORE PUSH1 0x4 CALLDATASIZE LT PUSH2 0x1E3 JUMPI PUSH1 0x0 CALLDATALOAD PUSH1 0xE0 SHR DUP1 PUSH4 0x7D206DE0 GT PUSH2 0x102 JUMPI DUP1 PUSH4 0xBC197C81 GT PUSH2 0x95 JUMPI DUP1 PUSH4 0xE671499B GT PUSH2 0x64 JUMPI DUP1 PUSH4 0xE671499B EQ PUSH2 0x5E3 JUMPI DUP1 PUSH4 0xE9898D81 EQ PUSH2 0x5F6 JUMPI DUP1 PUSH4 0xF23A6E61 EQ PUSH2 0x624 JUMPI DUP1 PUSH4 0xF2FDE38B EQ PUSH2 0x651 JUMPI PUSH1 0x0 DUP1 REVERT JUMPDEST DUP1 PUSH4 0xBC197C81 EQ PUSH2 0x554 JUMPI DUP1 PUSH4 0xBF567393 EQ PUSH2 0x583 JUMPI DUP1 PUSH4 0xC90AF0FB EQ PUSH2 0x5A3 JUMPI DUP1 PUSH4 0xD48310EF EQ PUSH2 0x5C3 JUMPI PUSH1 0x0 DUP1 REVERT JUMPDEST DUP1 PUSH4 0x9434A3FD GT PUSH2 0xD1 JUMPI DUP1 PUSH4 0x9434A3FD EQ PUSH2 0x4E1 JUMPI DUP1 PUSH4 0x98E0D2EE EQ PUSH2 0x501 JUMPI DUP1 PUSH4 0x9C2343AE EQ PUSH2 0x514 JUMPI DUP1 PUSH4 0xA15A6AD8 EQ PUSH2 0x534 JUMPI PUSH1 0x0 DUP1 REVERT JUMPDEST DUP1 PUSH4 0x7D206DE0 EQ PUSH2 0x417 JUMPI DUP1 PUSH4 0x8A3709FB EQ PUSH2 0x437 JUMPI DUP1 PUSH4 0x8DA5CB5B EQ PUSH2 0x499 JUMPI DUP1 PUSH4 0x933E430F EQ PUSH2 0x4C1 JUMPI PUSH1 0x0 DUP1 REVERT JUMPDEST DUP1 PUSH4 0x4E856171 GT PUSH2 0x17A JUMPI DUP1 PUSH4 0x5FCA1742 GT PUSH2 0x149 JUMPI DUP1 PUSH4 0x5FCA1742 EQ PUSH2 0x3BA JUMPI DUP1 PUSH4 0x715018A6 EQ PUSH2 0x3DA JUMPI DUP1 PUSH4 0x78A89567 EQ PUSH2 0x3EF JUMPI DUP1 PUSH4 0x796B89B9 EQ PUSH2 0x404 JUMPI PUSH1 0x0 DUP1 REVERT JUMPDEST DUP1 PUSH4 0x4E856171 EQ PUSH2 0x315 JUMPI DUP1 PUSH4 0x4F64B2BE EQ PUSH2 0x343 JUMPI DUP1 PUSH4 0x5759E5C3 EQ PUSH2 0x37A JUMPI DUP1 PUSH4 0x5938A725 EQ PUSH2 0x39A JUMPI PUSH1 0x0 DUP1 REVERT JUMPDEST DUP1 PUSH4 0x29ED9205 GT PUSH2 0x1B6 JUMPI DUP1 PUSH4 0x29ED9205 EQ PUSH2 0x28C JUMPI DUP1 PUSH4 0x2FD5916F EQ PUSH2 0x29F JUMPI DUP1 PUSH4 0x34EEA629 EQ PUSH2 0x2BF JUMPI DUP1 PUSH4 0x36C5D724 EQ PUSH2 0x2F5 JUMPI PUSH1 0x0 DUP1 REVERT JUMPDEST DUP1 PUSH4 0x1FFC9A7 EQ PUSH2 0x1E8 JUMPI DUP1 PUSH4 0x57466EA EQ PUSH2 0x21D JUMPI DUP1 PUSH4 0x150B7A02 EQ PUSH2 0x232 JUMPI DUP1 PUSH4 0x24600FC3 EQ PUSH2 0x277 JUMPI JUMPDEST PUSH1 0x0 DUP1 REVERT JUMPDEST CALLVALUE DUP1 ISZERO PUSH2 0x1F4 JUMPI PUSH1 0x0 DUP1 REVERT JUMPDEST POP PUSH2 0x208 PUSH2 0x203 CALLDATASIZE PUSH1 0x4 PUSH2 0x4398 JUMP JUMPDEST PUSH2 0x671 JUMP JUMPDEST PUSH1 0x40 MLOAD SWAP1 ISZERO ISZERO DUP2 MSTORE PUSH1 0x20 ADD JUMPDEST PUSH1 0x40 MLOAD DUP1 SWAP2 SUB SWAP1 RETURN JUMPDEST PUSH2 0x230 PUSH2 0x22B CALLDATASIZE PUSH1 0x4 PUSH2 0x444E JUMP JUMPDEST PUSH2 0x6A8 JUMP JUMPDEST STOP JUMPDEST CALLVALUE DUP1 ISZERO PUSH2 0x23E JUMPI PUSH1 0x0 DUP1 REVERT JUMPDEST POP PUSH2 0x25E PUSH2 0x24D CALLDATASIZE PUSH1 0x4 PUSH2 0x3DD6 JUMP JUMPDEST PUSH4 0xA85BD01 PUSH1 0xE1 SHL SWAP6 SWAP5 POP POP POP POP POP JUMP JUMPDEST PUSH1 0x40 MLOAD PUSH1 0x1 PUSH1 0x1 PUSH1 0xE0 SHL SUB NOT SWAP1 SWAP2 AND DUP2 MSTORE PUSH1 0x20 ADD PUSH2 0x214 JUMP JUMPDEST CALLVALUE DUP1 ISZERO PUSH2 0x283 JUMPI PUSH1 0x0 DUP1 REVERT JUMPDEST POP PUSH2 0x230 PUSH2 0xA53 JUMP JUMPDEST PUSH2 0x230 PUSH2 0x29A CALLDATASIZE PUSH1 0x4 PUSH2 0x41F8 JUMP JUMPDEST PUSH2 0xA98 JUMP JUMPDEST CALLVALUE DUP1 ISZERO PUSH2 0x2AB JUMPI PUSH1 0x0 DUP1 REVERT JUMPDEST POP PUSH2 0x230 PUSH2 0x2BA CALLDATASIZE PUSH1 0x4 PUSH2 0x43F0 JUMP JUMPDEST PUSH2 0xFDF JUMP JUMPDEST CALLVALUE DUP1 ISZERO PUSH2 0x2CB JUMPI PUSH1 0x0 DUP1 REVERT JUMPDEST POP PUSH2 0x2DF PUSH2 0x2DA CALLDATASIZE PUSH1 0x4 PUSH2 0x40F1 JUMP JUMPDEST PUSH2 0x125C JUMP JUMPDEST PUSH1 0x40 MLOAD PUSH2 0x214 SWAP11 SWAP10 SWAP9 SWAP8 SWAP7 SWAP6 SWAP5 SWAP4 SWAP3 SWAP2 SWAP1 PUSH2 0x4908 JUMP JUMPDEST CALLVALUE DUP1 ISZERO PUSH2 0x301 JUMPI PUSH1 0x0 DUP1 REVERT JUMPDEST POP PUSH2 0x230 PUSH2 0x310 CALLDATASIZE PUSH1 0x4 PUSH2 0x43C0 JUMP JUMPDEST PUSH2 0x13E7 JUMP JUMPDEST CALLVALUE DUP1 ISZERO PUSH2 0x321 JUMPI PUSH1 0x0 DUP1 REVERT JUMPDEST POP PUSH2 0x335 PUSH2 0x330 CALLDATASIZE PUSH1 0x4 PUSH2 0x412E JUMP JUMPDEST PUSH2 0x17F0 JUMP JUMPDEST PUSH1 0x40 MLOAD SWAP1 DUP2 MSTORE PUSH1 0x20 ADD PUSH2 0x214 JUMP JUMPDEST CALLVALUE DUP1 ISZERO PUSH2 0x34F JUMPI PUSH1 0x0 DUP1 REVERT JUMPDEST POP PUSH2 0x363 PUSH2 0x35E CALLDATASIZE PUSH1 0x4 PUSH2 0x43C0 JUMP JUMPDEST PUSH2 0x19FA JUMP JUMPDEST PUSH1 0x40 MLOAD PUSH2 0x214 SWAP12 SWAP11 SWAP10 SWAP9 SWAP8 SWAP7 SWAP6 SWAP5 SWAP4 SWAP3 SWAP2 SWAP1 PUSH2 0x45FC JUMP JUMPDEST CALLVALUE DUP1 ISZERO PUSH2 0x386 JUMPI PUSH1 0x0 DUP1 REVERT JUMPDEST POP PUSH2 0x230 PUSH2 0x395 CALLDATASIZE PUSH1 0x4 PUSH2 0x441E JUMP JUMPDEST PUSH2 0x1A79 JUMP JUMPDEST CALLVALUE DUP1 ISZERO PUSH2 0x3A6 JUMPI PUSH1 0x0 DUP1 REVERT JUMPDEST POP PUSH2 0x335 PUSH2 0x3B5 CALLDATASIZE PUSH1 0x4 PUSH2 0x3CE4 JUMP JUMPDEST PUSH2 0x1CF4 JUMP JUMPDEST CALLVALUE DUP1 ISZERO PUSH2 0x3C6 JUMPI PUSH1 0x0 DUP1 REVERT JUMPDEST POP PUSH2 0x230 PUSH2 0x3D5 CALLDATASIZE PUSH1 0x4 PUSH2 0x3F31 JUMP JUMPDEST PUSH2 0x1D7A JUMP JUMPDEST CALLVALUE DUP1 ISZERO PUSH2 0x3E6 JUMPI PUSH1 0x0 DUP1 REVERT JUMPDEST POP PUSH2 0x230 PUSH2 0x2195 JUMP JUMPDEST CALLVALUE DUP1 ISZERO PUSH2 0x3FB JUMPI PUSH1 0x0 DUP1 REVERT JUMPDEST POP PUSH1 0x1 SLOAD PUSH2 0x335 JUMP JUMPDEST CALLVALUE DUP1 ISZERO PUSH2 0x410 JUMPI PUSH1 0x0 DUP1 REVERT JUMPDEST POP TIMESTAMP PUSH2 0x335 JUMP JUMPDEST CALLVALUE DUP1 ISZERO PUSH2 0x423 JUMPI PUSH1 0x0 DUP1 REVERT JUMPDEST POP PUSH2 0x230 PUSH2 0x432 CALLDATASIZE PUSH1 0x4 PUSH2 0x4266 JUMP JUMPDEST PUSH2 0x21A9 JUMP JUMPDEST CALLVALUE DUP1 ISZERO PUSH2 0x443 JUMPI PUSH1 0x0 DUP1 REVERT JUMPDEST POP PUSH2 0x482 PUSH2 0x452 CALLDATASIZE PUSH1 0x4 PUSH2 0x4162 JUMP JUMPDEST PUSH1 0x2 PUSH1 0x20 SWAP1 DUP2 MSTORE PUSH1 0x0 SWAP4 DUP5 MSTORE PUSH1 0x40 DUP1 DUP6 KECCAK256 DUP3 MSTORE SWAP3 DUP5 MSTORE DUP3 DUP5 KECCAK256 SWAP1 MSTORE DUP3 MSTORE SWAP1 KECCAK256 DUP1 SLOAD PUSH1 0x1 SWAP1 SWAP2 ADD SLOAD PUSH1 0xFF SWAP1 SWAP2 AND SWAP1 DUP3 JUMP JUMPDEST PUSH1 0x40 DUP1 MLOAD SWAP3 ISZERO ISZERO DUP4 MSTORE PUSH1 0x20 DUP4 ADD SWAP2 SWAP1 SWAP2 MSTORE ADD PUSH2 0x214 JUMP JUMPDEST CALLVALUE DUP1 ISZERO PUSH2 0x4A5 JUMPI PUSH1 0x0 DUP1 REVERT JUMPDEST POP PUSH1 0x0 SLOAD PUSH1 0x40 MLOAD PUSH1 0x1 PUSH1 0x1 PUSH1 0xA0 SHL SUB SWAP1 SWAP2 AND DUP2 MSTORE PUSH1 0x20 ADD PUSH2 0x214 JUMP JUMPDEST CALLVALUE DUP1 ISZERO PUSH2 0x4CD JUMPI PUSH1 0x0 DUP1 REVERT JUMPDEST POP PUSH2 0x230 PUSH2 0x4DC CALLDATASIZE PUSH1 0x4 PUSH2 0x3FB6 JUMP JUMPDEST PUSH2 0x24D1 JUMP JUMPDEST CALLVALUE DUP1 ISZERO PUSH2 0x4ED JUMPI PUSH1 0x0 DUP1 REVERT JUMPDEST POP PUSH2 0x230 PUSH2 0x4FC CALLDATASIZE PUSH1 0x4 PUSH2 0x41AA JUMP JUMPDEST PUSH2 0x25EE JUMP JUMPDEST PUSH2 0x230 PUSH2 0x50F CALLDATASIZE PUSH1 0x4 PUSH2 0x3EBF JUMP JUMPDEST PUSH2 0x2653 JUMP JUMPDEST CALLVALUE DUP1 ISZERO PUSH2 0x520 JUMPI PUSH1 0x0 DUP1 REVERT JUMPDEST POP PUSH2 0x230 PUSH2 0x52F CALLDATASIZE PUSH1 0x4 PUSH2 0x42F9 JUMP JUMPDEST PUSH2 0x2B9A JUMP JUMPDEST CALLVALUE DUP1 ISZERO PUSH2 0x540 JUMPI PUSH1 0x0 DUP1 REVERT JUMPDEST POP PUSH2 0x482 PUSH2 0x54F CALLDATASIZE PUSH1 0x4 PUSH2 0x4162 JUMP JUMPDEST PUSH2 0x2EB7 JUMP JUMPDEST CALLVALUE DUP1 ISZERO PUSH2 0x560 JUMPI PUSH1 0x0 DUP1 REVERT JUMPDEST POP PUSH2 0x25E PUSH2 0x56F CALLDATASIZE PUSH1 0x4 PUSH2 0x3D1C JUMP JUMPDEST PUSH4 0xBC197C81 PUSH1 0xE0 SHL SWAP9 SWAP8 POP POP POP POP POP POP POP POP JUMP JUMPDEST CALLVALUE DUP1 ISZERO PUSH2 0x58F JUMPI PUSH1 0x0 DUP1 REVERT JUMPDEST POP PUSH2 0x230 PUSH2 0x59E CALLDATASIZE PUSH1 0x4 PUSH2 0x446F JUMP JUMPDEST PUSH2 0x2F2E JUMP JUMPDEST CALLVALUE DUP1 ISZERO PUSH2 0x5AF JUMPI PUSH1 0x0 DUP1 REVERT JUMPDEST POP PUSH2 0x208 PUSH2 0x5BE CALLDATASIZE PUSH1 0x4 PUSH2 0x4092 JUMP JUMPDEST PUSH2 0x3088 JUMP JUMPDEST CALLVALUE DUP1 ISZERO PUSH2 0x5CF JUMPI PUSH1 0x0 DUP1 REVERT JUMPDEST POP PUSH2 0x230 PUSH2 0x5DE CALLDATASIZE PUSH1 0x4 PUSH2 0x446F JUMP JUMPDEST PUSH2 0x311B JUMP JUMPDEST PUSH2 0x230 PUSH2 0x5F1 CALLDATASIZE PUSH1 0x4 PUSH2 0x40BD JUMP JUMPDEST PUSH2 0x3276 JUMP JUMPDEST CALLVALUE DUP1 ISZERO PUSH2 0x602 JUMPI PUSH1 0x0 DUP1 REVERT JUMPDEST POP PUSH2 0x616 PUSH2 0x611 CALLDATASIZE PUSH1 0x4 PUSH2 0x412E JUMP JUMPDEST PUSH2 0x3607 JUMP JUMPDEST PUSH1 0x40 MLOAD PUSH2 0x214 SWAP3 SWAP2 SWAP1 PUSH2 0x454D JUMP JUMPDEST CALLVALUE DUP1 ISZERO PUSH2 0x630 JUMPI PUSH1 0x0 DUP1 REVERT JUMPDEST POP PUSH2 0x25E PUSH2 0x63F CALLDATASIZE PUSH1 0x4 PUSH2 0x3E46 JUMP JUMPDEST PUSH4 0xF23A6E61 PUSH1 0xE0 SHL SWAP7 SWAP6 POP POP POP POP POP POP JUMP JUMPDEST CALLVALUE DUP1 ISZERO PUSH2 0x65D JUMPI PUSH1 0x0 DUP1 REVERT JUMPDEST POP PUSH2 0x230 PUSH2 0x66C CALLDATASIZE PUSH1 0x4 PUSH2 0x3CE4 JUMP JUMPDEST PUSH2 0x385E JUMP JUMPDEST PUSH1 0x0 PUSH1 0x1 PUSH1 0x1 PUSH1 0xE0 SHL SUB NOT DUP3 AND PUSH4 0x2711897 PUSH1 0xE5 SHL EQ DUP1 PUSH2 0x6A2 JUMPI POP PUSH1 0x1 PUSH1 0x1 PUSH1 0xE0 SHL SUB NOT DUP3 AND PUSH4 0xA85BD01 PUSH1 0xE1 SHL EQ JUMPDEST SWAP3 SWAP2 POP POP JUMP JUMPDEST PUSH1 0x1 SLOAD DUP3 LT PUSH2 0x6D2 JUMPI PUSH1 0x40 MLOAD PUSH3 0x461BCD PUSH1 0xE5 SHL DUP2 MSTORE PUSH1 0x4 ADD PUSH2 0x6C9 SWAP1 PUSH2 0x4896 JUMP JUMPDEST PUSH1 0x40 MLOAD DUP1 SWAP2 SUB SWAP1 REVERT JUMPDEST PUSH1 0x0 PUSH1 0x1 DUP4 DUP2 SLOAD DUP2 LT PUSH2 0x6F5 JUMPI PUSH4 0x4E487B71 PUSH1 0xE0 SHL PUSH1 0x0 MSTORE PUSH1 0x32 PUSH1 0x4 MSTORE PUSH1 0x24 PUSH1 0x0 REVERT JUMPDEST PUSH1 0x0 SWAP2 DUP3 MSTORE PUSH1 0x20 SWAP1 SWAP2 KECCAK256 PUSH1 0xA SWAP1 SWAP2 MUL ADD SWAP1 POP PUSH1 0x1 DUP2 SLOAD PUSH1 0xFF AND PUSH1 0x1 DUP2 GT ISZERO PUSH2 0x72D JUMPI PUSH4 0x4E487B71 PUSH1 0xE0 SHL PUSH1 0x0 MSTORE PUSH1 0x21 PUSH1 0x4 MSTORE PUSH1 0x24 PUSH1 0x0 REVERT JUMPDEST EQ DUP1 PUSH2 0x739 JUMPI POP DUP2 PUSH1 0x1 EQ JUMPDEST PUSH2 0x755 JUMPI PUSH1 0x40 MLOAD PUSH3 0x461BCD PUSH1 0xE5 SHL DUP2 MSTORE PUSH1 0x4 ADD PUSH2 0x6C9 SWAP1 PUSH2 0x48C2 JUMP JUMPDEST PUSH1 0x5 DUP2 ADD SLOAD PUSH1 0xFF AND ISZERO PUSH2 0x7A3 JUMPI PUSH1 0x2 DUP2 ADD SLOAD PUSH2 0x787 SWAP1 PUSH1 0x1 PUSH1 0x1 PUSH1 0xA0 SHL SUB DUP2 AND SWAP1 PUSH1 0x1 PUSH1 0xA0 SHL SWAP1 DIV PUSH1 0xFF AND CALLER DUP6 PUSH2 0x38D4 JUMP JUMPDEST PUSH2 0x7A3 JUMPI PUSH1 0x40 MLOAD PUSH3 0x461BCD PUSH1 0xE5 SHL DUP2 MSTORE PUSH1 0x4 ADD PUSH2 0x6C9 SWAP1 PUSH2 0x482A JUMP JUMPDEST DUP1 PUSH1 0x6 ADD SLOAD DUP3 DUP3 PUSH1 0x7 ADD SLOAD PUSH2 0x7B8 SWAP2 SWAP1 PUSH2 0x49B2 JUMP JUMPDEST GT ISZERO PUSH2 0x7D6 JUMPI PUSH1 0x40 MLOAD PUSH3 0x461BCD PUSH1 0xE5 SHL DUP2 MSTORE PUSH1 0x4 ADD PUSH2 0x6C9 SWAP1 PUSH2 0x469A JUMP JUMPDEST DUP1 PUSH1 0x8 ADD SLOAD TIMESTAMP LT ISZERO PUSH2 0x7FA JUMPI PUSH1 0x40 MLOAD PUSH3 0x461BCD PUSH1 0xE5 SHL DUP2 MSTORE PUSH1 0x4 ADD PUSH2 0x6C9 SWAP1 PUSH2 0x46D1 JUMP JUMPDEST DUP1 PUSH1 0x9 ADD SLOAD TIMESTAMP LT PUSH2 0x81D JUMPI PUSH1 0x40 MLOAD PUSH3 0x461BCD PUSH1 0xE5 SHL DUP2 MSTORE PUSH1 0x4 ADD PUSH2 0x6C9 SWAP1 PUSH2 0x4708 JUMP JUMPDEST DUP2 DUP2 PUSH1 0x4 ADD SLOAD PUSH2 0x82D SWAP2 SWAP1 PUSH2 0x49CA JUMP JUMPDEST CALLVALUE EQ PUSH2 0x84B JUMPI PUSH1 0x40 MLOAD PUSH3 0x461BCD PUSH1 0xE5 SHL DUP2 MSTORE PUSH1 0x4 ADD PUSH2 0x6C9 SWAP1 PUSH2 0x4777 JUMP JUMPDEST DUP2 DUP2 PUSH1 0x7 ADD PUSH1 0x0 DUP3 DUP3 SLOAD PUSH2 0x85F SWAP2 SWAP1 PUSH2 0x49B2 JUMP JUMPDEST SWAP1 SWAP2 SSTORE POP PUSH1 0x0 SWAP1 POP DUP2 SLOAD PUSH1 0xFF AND PUSH1 0x1 DUP2 GT ISZERO PUSH2 0x88B JUMPI PUSH4 0x4E487B71 PUSH1 0xE0 SHL PUSH1 0x0 MSTORE PUSH1 0x21 PUSH1 0x4 MSTORE PUSH1 0x24 PUSH1 0x0 REVERT JUMPDEST EQ ISZERO PUSH2 0x901 JUMPI PUSH1 0x2 DUP2 ADD SLOAD PUSH1 0x1 DUP3 ADD SLOAD PUSH1 0x40 MLOAD PUSH4 0x23B872DD PUSH1 0xE0 SHL DUP2 MSTORE PUSH1 0x1 PUSH1 0x1 PUSH1 0xA0 SHL SUB SWAP1 SWAP3 AND SWAP2 PUSH4 0x23B872DD SWAP2 PUSH2 0x8CA SWAP2 ADDRESS SWAP2 CALLER SWAP2 PUSH1 0x4 ADD PUSH2 0x44F1 JUMP JUMPDEST PUSH1 0x0 PUSH1 0x40 MLOAD DUP1 DUP4 SUB DUP2 PUSH1 0x0 DUP8 DUP1 EXTCODESIZE ISZERO DUP1 ISZERO PUSH2 0x8E4 JUMPI PUSH1 0x0 DUP1 REVERT JUMPDEST POP GAS CALL ISZERO DUP1 ISZERO PUSH2 0x8F8 JUMPI RETURNDATASIZE PUSH1 0x0 DUP1 RETURNDATACOPY RETURNDATASIZE PUSH1 0x0 REVERT JUMPDEST POP POP POP POP PUSH2 0x96F JUMP JUMPDEST PUSH1 0x2 DUP2 ADD SLOAD PUSH1 0x1 DUP3 ADD SLOAD PUSH1 0x40 MLOAD PUSH4 0x79212195 PUSH1 0xE1 SHL DUP2 MSTORE PUSH1 0x1 PUSH1 0x1 PUSH1 0xA0 SHL SUB SWAP1 SWAP3 AND SWAP2 PUSH4 0xF242432A SWAP2 PUSH2 0x93C SWAP2 ADDRESS SWAP2 CALLER SWAP2 DUP9 SWAP1 PUSH1 0x4 ADD PUSH2 0x4515 JUMP JUMPDEST PUSH1 0x0 PUSH1 0x40 MLOAD DUP1 DUP4 SUB DUP2 PUSH1 0x0 DUP8 DUP1 EXTCODESIZE ISZERO DUP1 ISZERO PUSH2 0x956 JUMPI PUSH1 0x0 DUP1 REVERT JUMPDEST POP GAS CALL ISZERO DUP1 ISZERO PUSH2 0x96A JUMPI RETURNDATASIZE PUSH1 0x0 DUP1 RETURNDATACOPY RETURNDATASIZE PUSH1 0x0 REVERT JUMPDEST POP POP POP POP JUMPDEST PUSH1 0x5 DUP2 ADD SLOAD PUSH1 0xFF AND ISZERO PUSH2 0xA03 JUMPI PUSH1 0x2 DUP2 DUP2 ADD SLOAD PUSH1 0x1 PUSH1 0x1 PUSH1 0xA0 SHL SUB DUP2 AND PUSH1 0x0 SWAP1 DUP2 MSTORE PUSH1 0x20 SWAP3 DUP4 MSTORE PUSH1 0x40 DUP1 DUP3 KECCAK256 PUSH1 0x1 PUSH1 0xA0 SHL SWAP1 SWAP4 DIV PUSH1 0xFF AND DUP3 MSTORE SWAP2 DUP4 MSTORE DUP2 DUP2 KECCAK256 CALLER DUP3 MSTORE SWAP1 SWAP3 MSTORE SWAP1 KECCAK256 PUSH1 0x1 DUP2 ADD SLOAD DUP4 GT ISZERO PUSH2 0x9DA JUMPI PUSH1 0x40 MLOAD PUSH3 0x461BCD PUSH1 0xE5 SHL DUP2 MSTORE PUSH1 0x4 ADD PUSH2 0x6C9 SWAP1 PUSH2 0x47A5 JUMP JUMPDEST DUP1 SLOAD PUSH1 0xFF NOT AND PUSH1 0x1 SWAP1 DUP2 OR DUP3 SSTORE DUP2 ADD DUP1 SLOAD DUP5 SWAP2 SWAP1 PUSH1 0x0 SWAP1 PUSH2 0x9FC SWAP1 DUP5 SWAP1 PUSH2 0x49E9 JUMP JUMPDEST SWAP1 SWAP2 SSTORE POP POP POP JUMPDEST PUSH1 0x2 DUP2 ADD SLOAD PUSH1 0x1 DUP3 ADD SLOAD DUP3 SLOAD PUSH1 0x4 DUP5 ADD SLOAD PUSH1 0x40 MLOAD PUSH1 0x1 PUSH1 0x1 PUSH1 0xA0 SHL SUB SWAP1 SWAP5 AND SWAP4 PUSH1 0x0 DUP1 MLOAD PUSH1 0x20 PUSH2 0x4A7D DUP4 CODECOPY DUP2 MLOAD SWAP2 MSTORE SWAP3 PUSH2 0xA46 SWAP3 PUSH1 0xFF SWAP1 SWAP2 AND SWAP2 CALLER SWAP2 DUP10 SWAP2 PUSH2 0x45CA JUMP JUMPDEST PUSH1 0x40 MLOAD DUP1 SWAP2 SUB SWAP1 LOG3 POP POP POP JUMP JUMPDEST PUSH2 0xA5B PUSH2 0x3954 JUMP JUMPDEST PUSH1 0x0 DUP1 SLOAD PUSH1 0x40 MLOAD PUSH1 0x1 PUSH1 0x1 PUSH1 0xA0 SHL SUB SWAP1 SWAP2 AND SWAP2 SELFBALANCE DUP1 ISZERO PUSH2 0x8FC MUL SWAP3 SWAP1 SWAP2 DUP2 DUP2 DUP2 DUP6 DUP9 DUP9 CALL SWAP4 POP POP POP POP ISZERO DUP1 ISZERO PUSH2 0xA95 JUMPI RETURNDATASIZE PUSH1 0x0 DUP1 RETURNDATACOPY RETURNDATASIZE PUSH1 0x0 REVERT JUMPDEST POP JUMP JUMPDEST PUSH1 0x0 DUP1 JUMPDEST DUP4 PUSH1 0xFF AND DUP2 LT ISZERO PUSH2 0xFB7 JUMPI PUSH1 0x0 PUSH2 0xABC DUP8 PUSH2 0xAB7 DUP10 DUP10 PUSH2 0x17F0 JUMP JUMPDEST PUSH2 0x39AE JUMP JUMPDEST SWAP1 POP PUSH1 0x0 PUSH1 0x1 DUP3 DUP2 SLOAD DUP2 LT PUSH2 0xAE1 JUMPI PUSH4 0x4E487B71 PUSH1 0xE0 SHL PUSH1 0x0 MSTORE PUSH1 0x32 PUSH1 0x4 MSTORE PUSH1 0x24 PUSH1 0x0 REVERT JUMPDEST PUSH1 0x0 SWAP2 DUP3 MSTORE PUSH1 0x20 SWAP1 SWAP2 KECCAK256 PUSH1 0xA SWAP1 SWAP2 MUL ADD SWAP1 POP PUSH1 0x1 DUP2 SLOAD PUSH1 0xFF AND PUSH1 0x1 DUP2 GT ISZERO PUSH2 0xB19 JUMPI PUSH4 0x4E487B71 PUSH1 0xE0 SHL PUSH1 0x0 MSTORE PUSH1 0x21 PUSH1 0x4 MSTORE PUSH1 0x24 PUSH1 0x0 REVERT JUMPDEST EQ DUP1 PUSH2 0xB4C JUMPI POP DUP5 DUP4 DUP2 MLOAD DUP2 LT PUSH2 0xB40 JUMPI PUSH4 0x4E487B71 PUSH1 0xE0 SHL PUSH1 0x0 MSTORE PUSH1 0x32 PUSH1 0x4 MSTORE PUSH1 0x24 PUSH1 0x0 REVERT JUMPDEST PUSH1 0x20 MUL PUSH1 0x20 ADD ADD MLOAD PUSH1 0x1 EQ JUMPDEST PUSH2 0xB68 JUMPI PUSH1 0x40 MLOAD PUSH3 0x461BCD PUSH1 0xE5 SHL DUP2 MSTORE PUSH1 0x4 ADD PUSH2 0x6C9 SWAP1 PUSH2 0x48C2 JUMP JUMPDEST PUSH1 0x5 DUP2 ADD SLOAD PUSH1 0xFF AND ISZERO PUSH2 0xBE2 JUMPI PUSH1 0x2 DUP2 ADD SLOAD DUP6 MLOAD PUSH2 0xBC6 SWAP2 PUSH1 0x1 PUSH1 0x1 PUSH1 0xA0 SHL SUB DUP2 AND SWAP2 PUSH1 0x1 PUSH1 0xA0 SHL SWAP1 SWAP2 DIV PUSH1 0xFF AND SWAP1 CALLER SWAP1 DUP10 SWAP1 DUP9 SWAP1 DUP2 LT PUSH2 0xBB9 JUMPI PUSH4 0x4E487B71 PUSH1 0xE0 SHL PUSH1 0x0 MSTORE PUSH1 0x32 PUSH1 0x4 MSTORE PUSH1 0x24 PUSH1 0x0 REVERT JUMPDEST PUSH1 0x20 MUL PUSH1 0x20 ADD ADD MLOAD PUSH2 0x38D4 JUMP JUMPDEST PUSH2 0xBE2 JUMPI PUSH1 0x40 MLOAD PUSH3 0x461BCD PUSH1 0xE5 SHL DUP2 MSTORE PUSH1 0x4 ADD PUSH2 0x6C9 SWAP1 PUSH2 0x482A JUMP JUMPDEST DUP1 PUSH1 0x6 ADD SLOAD DUP6 DUP5 DUP2 MLOAD DUP2 LT PUSH2 0xC07 JUMPI PUSH4 0x4E487B71 PUSH1 0xE0 SHL PUSH1 0x0 MSTORE PUSH1 0x32 PUSH1 0x4 MSTORE PUSH1 0x24 PUSH1 0x0 REVERT JUMPDEST PUSH1 0x20 MUL PUSH1 0x20 ADD ADD MLOAD DUP3 PUSH1 0x7 ADD SLOAD PUSH2 0xC1E SWAP2 SWAP1 PUSH2 0x49B2 JUMP JUMPDEST GT ISZERO PUSH2 0xC3C JUMPI PUSH1 0x40 MLOAD PUSH3 0x461BCD PUSH1 0xE5 SHL DUP2 MSTORE PUSH1 0x4 ADD PUSH2 0x6C9 SWAP1 PUSH2 0x469A JUMP JUMPDEST DUP1 PUSH1 0x8 ADD SLOAD TIMESTAMP LT ISZERO PUSH2 0xC60 JUMPI PUSH1 0x40 MLOAD PUSH3 0x461BCD PUSH1 0xE5 SHL DUP2 MSTORE PUSH1 0x4 ADD PUSH2 0x6C9 SWAP1 PUSH2 0x46D1 JUMP JUMPDEST DUP1 PUSH1 0x9 ADD SLOAD TIMESTAMP LT PUSH2 0xC83 JUMPI PUSH1 0x40 MLOAD PUSH3 0x461BCD PUSH1 0xE5 SHL DUP2 MSTORE PUSH1 0x4 ADD PUSH2 0x6C9 SWAP1 PUSH2 0x4708 JUMP JUMPDEST DUP5 DUP4 DUP2 MLOAD DUP2 LT PUSH2 0xCA3 JUMPI PUSH4 0x4E487B71 PUSH1 0xE0 SHL PUSH1 0x0 MSTORE PUSH1 0x32 PUSH1 0x4 MSTORE PUSH1 0x24 PUSH1 0x0 REVERT JUMPDEST PUSH1 0x20 MUL PUSH1 0x20 ADD ADD MLOAD DUP2 PUSH1 0x4 ADD SLOAD PUSH2 0xCBA SWAP2 SWAP1 PUSH2 0x49CA JUMP JUMPDEST PUSH2 0xCC4 SWAP1 DUP6 PUSH2 0x49B2 JUMP JUMPDEST SWAP4 POP DUP5 DUP4 DUP2 MLOAD DUP2 LT PUSH2 0xCE6 JUMPI PUSH4 0x4E487B71 PUSH1 0xE0 SHL PUSH1 0x0 MSTORE PUSH1 0x32 PUSH1 0x4 MSTORE PUSH1 0x24 PUSH1 0x0 REVERT JUMPDEST PUSH1 0x20 MUL PUSH1 0x20 ADD ADD MLOAD DUP2 PUSH1 0x7 ADD PUSH1 0x0 DUP3 DUP3 SLOAD PUSH2 0xD01 SWAP2 SWAP1 PUSH2 0x49B2 JUMP JUMPDEST SWAP1 SWAP2 SSTORE POP PUSH1 0x0 SWAP1 POP DUP2 SLOAD PUSH1 0xFF AND PUSH1 0x1 DUP2 GT ISZERO PUSH2 0xD2D JUMPI PUSH4 0x4E487B71 PUSH1 0xE0 SHL PUSH1 0x0 MSTORE PUSH1 0x21 PUSH1 0x4 MSTORE PUSH1 0x24 PUSH1 0x0 REVERT JUMPDEST EQ ISZERO PUSH2 0xDA3 JUMPI PUSH1 0x2 DUP2 ADD SLOAD PUSH1 0x1 DUP3 ADD SLOAD PUSH1 0x40 MLOAD PUSH4 0x23B872DD PUSH1 0xE0 SHL DUP2 MSTORE PUSH1 0x1 PUSH1 0x1 PUSH1 0xA0 SHL SUB SWAP1 SWAP3 AND SWAP2 PUSH4 0x23B872DD SWAP2 PUSH2 0xD6C SWAP2 ADDRESS SWAP2 CALLER SWAP2 PUSH1 0x4 ADD PUSH2 0x44F1 JUMP JUMPDEST PUSH1 0x0 PUSH1 0x40 MLOAD DUP1 DUP4 SUB DUP2 PUSH1 0x0 DUP8 DUP1 EXTCODESIZE ISZERO DUP1 ISZERO PUSH2 0xD86 JUMPI PUSH1 0x0 DUP1 REVERT JUMPDEST POP GAS CALL ISZERO DUP1 ISZERO PUSH2 0xD9A JUMPI RETURNDATASIZE PUSH1 0x0 DUP1 RETURNDATACOPY RETURNDATASIZE PUSH1 0x0 REVERT JUMPDEST POP POP POP POP PUSH2 0xE4A JUMP JUMPDEST DUP1 PUSH1 0x2 ADD PUSH1 0x0 SWAP1 SLOAD SWAP1 PUSH2 0x100 EXP SWAP1 DIV PUSH1 0x1 PUSH1 0x1 PUSH1 0xA0 SHL SUB AND PUSH1 0x1 PUSH1 0x1 PUSH1 0xA0 SHL SUB AND PUSH4 0xF242432A ADDRESS CALLER DUP5 PUSH1 0x1 ADD SLOAD DUP10 DUP9 DUP2 MLOAD DUP2 LT PUSH2 0xDF0 JUMPI PUSH4 0x4E487B71 PUSH1 0xE0 SHL PUSH1 0x0 MSTORE PUSH1 0x32 PUSH1 0x4 MSTORE PUSH1 0x24 PUSH1 0x0 REVERT JUMPDEST PUSH1 0x20 MUL PUSH1 0x20 ADD ADD MLOAD PUSH1 0x40 MLOAD DUP6 PUSH4 0xFFFFFFFF AND PUSH1 0xE0 SHL DUP2 MSTORE PUSH1 0x4 ADD PUSH2 0xE17 SWAP5 SWAP4 SWAP3 SWAP2 SWAP1 PUSH2 0x4515 JUMP JUMPDEST PUSH1 0x0 PUSH1 0x40 MLOAD DUP1 DUP4 SUB DUP2 PUSH1 0x0 DUP8 DUP1 EXTCODESIZE ISZERO DUP1 ISZERO PUSH2 0xE31 JUMPI PUSH1 0x0 DUP1 REVERT JUMPDEST POP GAS CALL ISZERO DUP1 ISZERO PUSH2 0xE45 JUMPI RETURNDATASIZE PUSH1 0x0 DUP1 RETURNDATACOPY RETURNDATASIZE PUSH1 0x0 REVERT JUMPDEST POP POP POP POP JUMPDEST PUSH1 0x5 DUP2 ADD SLOAD PUSH1 0xFF AND ISZERO PUSH2 0xF2D JUMPI PUSH1 0x2 DUP2 DUP2 ADD SLOAD PUSH1 0x1 PUSH1 0x1 PUSH1 0xA0 SHL SUB DUP2 AND PUSH1 0x0 SWAP1 DUP2 MSTORE PUSH1 0x20 SWAP3 DUP4 MSTORE PUSH1 0x40 DUP1 DUP3 KECCAK256 PUSH1 0x1 PUSH1 0xA0 SHL SWAP1 SWAP4 DIV PUSH1 0xFF AND DUP3 MSTORE SWAP2 DUP4 MSTORE DUP2 DUP2 KECCAK256 CALLER DUP3 MSTORE SWAP1 SWAP3 MSTORE SWAP1 KECCAK256 DUP6 MLOAD DUP7 SWAP1 DUP6 SWAP1 DUP2 LT PUSH2 0xEB3 JUMPI PUSH4 0x4E487B71 PUSH1 0xE0 SHL PUSH1 0x0 MSTORE PUSH1 0x32 PUSH1 0x4 MSTORE PUSH1 0x24 PUSH1 0x0 REVERT JUMPDEST PUSH1 0x20 MUL PUSH1 0x20 ADD ADD MLOAD DUP2 PUSH1 0x1 ADD SLOAD LT ISZERO PUSH2 0xEDE JUMPI PUSH1 0x40 MLOAD PUSH3 0x461BCD PUSH1 0xE5 SHL DUP2 MSTORE PUSH1 0x4 ADD PUSH2 0x6C9 SWAP1 PUSH2 0x47A5 JUMP JUMPDEST DUP1 SLOAD PUSH1 0xFF NOT AND PUSH1 0x1 OR DUP2 SSTORE DUP6 MLOAD DUP7 SWAP1 DUP6 SWAP1 DUP2 LT PUSH2 0xF0B JUMPI PUSH4 0x4E487B71 PUSH1 0xE0 SHL PUSH1 0x0 MSTORE PUSH1 0x32 PUSH1 0x4 MSTORE PUSH1 0x24 PUSH1 0x0 REVERT JUMPDEST PUSH1 0x20 MUL PUSH1 0x20 ADD ADD MLOAD DUP2 PUSH1 0x1 ADD PUSH1 0x0 DUP3 DUP3 SLOAD PUSH2 0xF26 SWAP2 SWAP1 PUSH2 0x49E9 JUMP JUMPDEST SWAP1 SWAP2 SSTORE POP POP POP JUMPDEST PUSH1 0x2 DUP2 ADD SLOAD PUSH1 0x1 DUP3 ADD SLOAD DUP3 SLOAD DUP8 MLOAD PUSH1 0x1 PUSH1 0x1 PUSH1 0xA0 SHL SUB SWAP1 SWAP4 AND SWAP3 PUSH1 0x0 DUP1 MLOAD PUSH1 0x20 PUSH2 0x4A7D DUP4 CODECOPY DUP2 MLOAD SWAP2 MSTORE SWAP2 PUSH1 0xFF AND SWAP1 CALLER SWAP1 DUP11 SWAP1 DUP10 SWAP1 DUP2 LT PUSH2 0xF7D JUMPI PUSH4 0x4E487B71 PUSH1 0xE0 SHL PUSH1 0x0 MSTORE PUSH1 0x32 PUSH1 0x4 MSTORE PUSH1 0x24 PUSH1 0x0 REVERT JUMPDEST PUSH1 0x20 MUL PUSH1 0x20 ADD ADD MLOAD DUP7 PUSH1 0x4 ADD SLOAD PUSH1 0x40 MLOAD PUSH2 0xF9A SWAP5 SWAP4 SWAP3 SWAP2 SWAP1 PUSH2 0x45CA JUMP JUMPDEST PUSH1 0x40 MLOAD DUP1 SWAP2 SUB SWAP1 LOG3 POP POP DUP1 DUP1 PUSH2 0xFAF SWAP1 PUSH2 0x4A00 JUMP JUMPDEST SWAP2 POP POP PUSH2 0xA9C JUMP JUMPDEST POP DUP1 CALLVALUE LT ISZERO PUSH2 0xFD8 JUMPI PUSH1 0x40 MLOAD PUSH3 0x461BCD PUSH1 0xE5 SHL DUP2 MSTORE PUSH1 0x4 ADD PUSH2 0x6C9 SWAP1 PUSH2 0x4777 JUMP JUMPDEST POP POP POP POP POP JUMP JUMPDEST PUSH2 0xFE7 PUSH2 0x3954 JUMP JUMPDEST PUSH1 0x40 MLOAD PUSH4 0x31A9108F PUSH1 0xE1 SHL DUP2 MSTORE PUSH1 0x4 DUP2 ADD DUP10 SWAP1 MSTORE ADDRESS SWAP1 PUSH1 0x1 PUSH1 0x1 PUSH1 0xA0 SHL SUB DUP10 AND SWAP1 PUSH4 0x6352211E SWAP1 PUSH1 0x24 ADD PUSH1 0x20 PUSH1 0x40 MLOAD DUP1 DUP4 SUB DUP2 DUP7 DUP1 EXTCODESIZE ISZERO DUP1 ISZERO PUSH2 0x1029 JUMPI PUSH1 0x0 DUP1 REVERT JUMPDEST POP GAS STATICCALL ISZERO DUP1 ISZERO PUSH2 0x103D JUMPI RETURNDATASIZE PUSH1 0x0 DUP1 RETURNDATACOPY RETURNDATASIZE PUSH1 0x0 REVERT JUMPDEST POP POP POP POP PUSH1 0x40 MLOAD RETURNDATASIZE PUSH1 0x1F NOT PUSH1 0x1F DUP3 ADD AND DUP3 ADD DUP1 PUSH1 0x40 MSTORE POP DUP2 ADD SWAP1 PUSH2 0x1061 SWAP2 SWAP1 PUSH2 0x3D00 JUMP JUMPDEST PUSH1 0x1 PUSH1 0x1 PUSH1 0xA0 SHL SUB AND EQ PUSH2 0x1087 JUMPI PUSH1 0x40 MLOAD PUSH3 0x461BCD PUSH1 0xE5 SHL DUP2 MSTORE PUSH1 0x4 ADD PUSH2 0x6C9 SWAP1 PUSH2 0x4853 JUMP JUMPDEST PUSH2 0x1091 DUP8 DUP10 PUSH2 0x3088 JUMP JUMPDEST ISZERO PUSH2 0x10AE JUMPI PUSH1 0x40 MLOAD PUSH3 0x461BCD PUSH1 0xE5 SHL DUP2 MSTORE PUSH1 0x4 ADD PUSH2 0x6C9 SWAP1 PUSH2 0x47F3 JUMP JUMPDEST PUSH1 0x40 DUP1 MLOAD PUSH2 0x160 DUP2 ADD DUP3 MSTORE PUSH1 0x0 DUP1 DUP3 MSTORE PUSH1 0x20 DUP3 ADD DUP12 SWAP1 MSTORE PUSH1 0x1 PUSH1 0x1 PUSH1 0xA0 SHL SUB DUP11 AND SWAP3 DUP3 ADD SWAP3 SWAP1 SWAP3 MSTORE PUSH1 0xFF DUP9 AND PUSH1 0x60 DUP3 ADD MSTORE PUSH1 0x80 DUP2 ADD DUP3 SWAP1 MSTORE PUSH1 0xA0 DUP2 ADD DUP8 SWAP1 MSTORE DUP6 ISZERO ISZERO PUSH1 0xC0 DUP3 ADD MSTORE PUSH1 0xE0 DUP2 ADD DUP6 SWAP1 MSTORE PUSH2 0x100 DUP2 ADD DUP3 SWAP1 MSTORE PUSH2 0x120 DUP2 ADD DUP5 SWAP1 MSTORE PUSH2 0x140 DUP2 ADD DUP4 SWAP1 MSTORE PUSH1 0x1 DUP1 SLOAD DUP1 DUP3 ADD DUP3 SSTORE SWAP3 DUP2 SWAP1 MSTORE DUP2 MLOAD PUSH1 0xA SWAP1 SWAP4 MUL PUSH32 0xB10E2D527612073B26EECDFD717E6A320CF44B4AFAC2B0732D9FCBE2B7FA0CF6 ADD DUP1 SLOAD SWAP3 SWAP4 SWAP1 SWAP3 SWAP1 SWAP2 DUP4 SWAP2 PUSH1 0xFF NOT AND SWAP1 DUP4 DUP2 DUP2 GT ISZERO PUSH2 0x1178 JUMPI PUSH4 0x4E487B71 PUSH1 0xE0 SHL PUSH1 0x0 MSTORE PUSH1 0x21 PUSH1 0x4 MSTORE PUSH1 0x24 PUSH1 0x0 REVERT JUMPDEST MUL OR SWAP1 SSTORE POP PUSH1 0x20 DUP3 ADD MLOAD PUSH1 0x1 DUP1 DUP4 ADD SWAP2 SWAP1 SWAP2 SSTORE PUSH1 0x40 DUP1 DUP5 ADD MLOAD PUSH1 0x2 DUP5 ADD DUP1 SLOAD PUSH1 0x60 DUP8 ADD MLOAD PUSH1 0xFF AND PUSH1 0x1 PUSH1 0xA0 SHL MUL PUSH1 0x1 PUSH1 0x1 PUSH1 0xA8 SHL SUB NOT SWAP1 SWAP2 AND PUSH1 0x1 PUSH1 0x1 PUSH1 0xA0 SHL SUB SWAP4 DUP5 AND OR OR SWAP1 SSTORE PUSH1 0x80 DUP6 ADD MLOAD PUSH1 0x3 DUP6 ADD SSTORE PUSH1 0xA0 DUP6 ADD MLOAD PUSH1 0x4 DUP6 ADD SSTORE PUSH1 0xC0 DUP6 ADD MLOAD PUSH1 0x5 DUP6 ADD DUP1 SLOAD SWAP2 ISZERO ISZERO PUSH1 0xFF NOT SWAP1 SWAP3 AND SWAP2 SWAP1 SWAP2 OR SWAP1 SSTORE PUSH1 0xE0 DUP6 ADD MLOAD PUSH1 0x6 DUP6 ADD SSTORE PUSH2 0x100 DUP6 ADD MLOAD PUSH1 0x7 DUP6 ADD SSTORE PUSH2 0x120 DUP6 ADD MLOAD PUSH1 0x8 DUP6 ADD SSTORE PUSH2 0x140 SWAP1 SWAP5 ADD MLOAD PUSH1 0x9 SWAP1 SWAP4 ADD SWAP3 SWAP1 SWAP3 SSTORE SWAP1 MLOAD SWAP2 DUP10 AND SWAP2 DUP11 SWAP2 PUSH1 0x0 DUP1 MLOAD PUSH1 0x20 PUSH2 0x4A9D DUP4 CODECOPY DUP2 MLOAD SWAP2 MSTORE SWAP2 PUSH2 0x124A SWAP2 SWAP1 DUP11 SWAP1 DUP11 SWAP1 DUP11 SWAP1 DUP11 SWAP1 DUP11 SWAP1 PUSH2 0x4664 JUMP JUMPDEST PUSH1 0x40 MLOAD DUP1 SWAP2 SUB SWAP1 LOG3 POP POP POP POP POP POP POP POP JUMP JUMPDEST PUSH1 0x0 DUP1 PUSH1 0x0 DUP1 PUSH1 0x0 DUP1 PUSH1 0x0 DUP1 PUSH1 0x0 DUP1 PUSH1 0x0 PUSH2 0x1278 DUP15 DUP15 DUP15 PUSH2 0x3A6F JUMP JUMPDEST SWAP1 POP PUSH1 0x0 PUSH1 0x1 DUP3 DUP2 SLOAD DUP2 LT PUSH2 0x129D JUMPI PUSH4 0x4E487B71 PUSH1 0xE0 SHL PUSH1 0x0 MSTORE PUSH1 0x32 PUSH1 0x4 MSTORE PUSH1 0x24 PUSH1 0x0 REVERT JUMPDEST PUSH1 0x0 SWAP2 DUP3 MSTORE PUSH1 0x20 DUP3 KECCAK256 PUSH1 0xA SWAP1 SWAP2 MUL ADD SWAP2 POP DUP2 SLOAD PUSH1 0xFF AND PUSH1 0x1 DUP2 GT ISZERO PUSH2 0x12D2 JUMPI PUSH4 0x4E487B71 PUSH1 0xE0 SHL PUSH1 0x0 MSTORE PUSH1 0x21 PUSH1 0x4 MSTORE PUSH1 0x24 PUSH1 0x0 REVERT JUMPDEST EQ ISZERO PUSH2 0x131B JUMPI PUSH1 0x4 DUP2 ADD SLOAD PUSH1 0x7 DUP3 ADD SLOAD PUSH1 0x6 DUP4 ADD SLOAD PUSH1 0x5 DUP5 ADD SLOAD PUSH1 0x8 DUP6 ADD SLOAD PUSH1 0x9 SWAP1 SWAP6 ADD SLOAD SWAP6 SWAP16 POP PUSH1 0x0 SWAP15 POP SWAP3 SWAP13 POP SWAP1 SWAP11 POP SWAP9 POP PUSH1 0xFF AND SWAP7 POP SWAP5 POP SWAP3 POP DUP9 SWAP2 POP POP DUP6 ISZERO ISZERO PUSH2 0x13D7 JUMP JUMPDEST PUSH1 0x1 DUP2 SLOAD PUSH1 0xFF AND PUSH1 0x1 DUP2 GT ISZERO PUSH2 0x1341 JUMPI PUSH4 0x4E487B71 PUSH1 0xE0 SHL PUSH1 0x0 MSTORE PUSH1 0x21 PUSH1 0x4 MSTORE PUSH1 0x24 PUSH1 0x0 REVERT JUMPDEST EQ ISZERO PUSH2 0x139D JUMPI DUP2 PUSH1 0x1 DUP3 PUSH1 0x4 ADD SLOAD DUP4 PUSH1 0x7 ADD SLOAD DUP5 PUSH1 0x6 ADD SLOAD DUP6 PUSH1 0x5 ADD PUSH1 0x0 SWAP1 SLOAD SWAP1 PUSH2 0x100 EXP SWAP1 DIV PUSH1 0xFF AND DUP7 PUSH1 0x8 ADD SLOAD DUP8 PUSH1 0x9 ADD SLOAD DUP9 PUSH1 0x3 ADD SLOAD PUSH1 0x0 DUP11 PUSH1 0x7 ADD SLOAD GT SWAP12 POP SWAP12 POP SWAP12 POP SWAP12 POP SWAP12 POP SWAP12 POP SWAP12 POP SWAP12 POP SWAP12 POP SWAP12 POP POP POP PUSH2 0x13D7 JUMP JUMPDEST PUSH1 0x40 MLOAD PUSH3 0x461BCD PUSH1 0xE5 SHL DUP2 MSTORE PUSH1 0x20 PUSH1 0x4 DUP3 ADD MSTORE PUSH1 0xF PUSH1 0x24 DUP3 ADD MSTORE PUSH15 0x151BDAD95B881B9BDD08199BDD5B99 PUSH1 0x8A SHL PUSH1 0x44 DUP3 ADD MSTORE PUSH1 0x64 ADD PUSH2 0x6C9 JUMP JUMPDEST SWAP4 SWAP8 SWAP12 POP SWAP4 SWAP8 SWAP12 SWAP2 SWAP6 SWAP10 POP SWAP4 SWAP8 POP JUMP JUMPDEST PUSH2 0x13EF PUSH2 0x3954 JUMP JUMPDEST PUSH1 0x1 SLOAD DUP2 LT PUSH2 0x1410 JUMPI PUSH1 0x40 MLOAD PUSH3 0x461BCD PUSH1 0xE5 SHL DUP2 MSTORE PUSH1 0x4 ADD PUSH2 0x6C9 SWAP1 PUSH2 0x4896 JUMP JUMPDEST PUSH1 0x0 PUSH1 0x1 DUP3 DUP2 SLOAD DUP2 LT PUSH2 0x1433 JUMPI PUSH4 0x4E487B71 PUSH1 0xE0 SHL PUSH1 0x0 MSTORE PUSH1 0x32 PUSH1 0x4 MSTORE PUSH1 0x24 PUSH1 0x0 REVERT JUMPDEST SWAP1 PUSH1 0x0 MSTORE PUSH1 0x20 PUSH1 0x0 KECCAK256 SWAP1 PUSH1 0xA MUL ADD SWAP1 POP DUP1 PUSH1 0x7 ADD SLOAD PUSH1 0x0 EQ PUSH2 0x1492 JUMPI PUSH1 0x40 MLOAD PUSH3 0x461BCD PUSH1 0xE5 SHL DUP2 MSTORE PUSH1 0x20 PUSH1 0x4 DUP3 ADD MSTORE PUSH1 0x18 PUSH1 0x24 DUP3 ADD MSTORE PUSH24 0x151BDAD95B881A185CC81899595B881C1D5C98DA185CD959 PUSH1 0x42 SHL PUSH1 0x44 DUP3 ADD MSTORE PUSH1 0x64 ADD PUSH2 0x6C9 JUMP JUMPDEST PUSH1 0x0 DUP2 SLOAD PUSH1 0xFF AND PUSH1 0x1 DUP2 GT ISZERO PUSH2 0x14B8 JUMPI PUSH4 0x4E487B71 PUSH1 0xE0 SHL PUSH1 0x0 MSTORE PUSH1 0x21 PUSH1 0x4 MSTORE PUSH1 0x24 PUSH1 0x0 REVERT JUMPDEST EQ ISZERO PUSH2 0x153E JUMPI PUSH1 0x2 DUP2 ADD SLOAD PUSH1 0x1 PUSH1 0x1 PUSH1 0xA0 SHL SUB AND PUSH4 0x23B872DD ADDRESS PUSH2 0x14E4 PUSH1 0x0 SLOAD PUSH1 0x1 PUSH1 0x1 PUSH1 0xA0 SHL SUB AND SWAP1 JUMP JUMPDEST DUP5 PUSH1 0x1 ADD SLOAD PUSH1 0x40 MLOAD DUP5 PUSH4 0xFFFFFFFF AND PUSH1 0xE0 SHL DUP2 MSTORE PUSH1 0x4 ADD PUSH2 0x1507 SWAP4 SWAP3 SWAP2 SWAP1 PUSH2 0x44F1 JUMP JUMPDEST PUSH1 0x0 PUSH1 0x40 MLOAD DUP1 DUP4 SUB DUP2 PUSH1 0x0 DUP8 DUP1 EXTCODESIZE ISZERO DUP1 ISZERO PUSH2 0x1521 JUMPI PUSH1 0x0 DUP1 REVERT JUMPDEST POP GAS CALL ISZERO DUP1 ISZERO PUSH2 0x1535 JUMPI RETURNDATASIZE PUSH1 0x0 DUP1 RETURNDATACOPY RETURNDATASIZE PUSH1 0x0 REVERT JUMPDEST POP POP POP POP PUSH2 0x15C0 JUMP JUMPDEST PUSH1 0x2 DUP2 ADD SLOAD PUSH1 0x1 PUSH1 0x1 PUSH1 0xA0 SHL SUB AND PUSH4 0xF242432A ADDRESS PUSH2 0x1564 PUSH1 0x0 SLOAD PUSH1 0x1 PUSH1 0x1 PUSH1 0xA0 SHL SUB AND SWAP1 JUMP JUMPDEST DUP5 PUSH1 0x1 ADD SLOAD DUP6 PUSH1 0x3 ADD SLOAD PUSH1 0x40 MLOAD DUP6 PUSH4 0xFFFFFFFF AND PUSH1 0xE0 SHL DUP2 MSTORE PUSH1 0x4 ADD PUSH2 0x158D SWAP5 SWAP4 SWAP3 SWAP2 SWAP1 PUSH2 0x4515 JUMP JUMPDEST PUSH1 0x0 PUSH1 0x40 MLOAD DUP1 DUP4 SUB DUP2 PUSH1 0x0 DUP8 DUP1 EXTCODESIZE ISZERO DUP1 ISZERO PUSH2 0x15A7 JUMPI PUSH1 0x0 DUP1 REVERT JUMPDEST POP GAS CALL ISZERO DUP1 ISZERO PUSH2 0x15BB JUMPI RETURNDATASIZE PUSH1 0x0 DUP1 RETURNDATACOPY RETURNDATASIZE PUSH1 0x0 REVERT JUMPDEST POP POP POP POP JUMPDEST PUSH1 0x2 DUP2 ADD SLOAD PUSH1 0x1 DUP3 ADD SLOAD DUP3 SLOAD PUSH1 0x40 MLOAD PUSH1 0x1 PUSH1 0x1 PUSH1 0xA0 SHL SUB SWAP1 SWAP4 AND SWAP3 PUSH32 0xE4A29CCD55770F0547FB782DB0FF996CB224CBEF7622AE806009E0C249A9FCD4 SWAP2 PUSH2 0x160C SWAP2 PUSH1 0xFF SWAP1 SWAP2 AND SWAP1 PUSH2 0x45BC JUMP JUMPDEST PUSH1 0x40 MLOAD DUP1 SWAP2 SUB SWAP1 LOG3 PUSH1 0x1 DUP1 SLOAD PUSH2 0x1623 SWAP1 DUP3 SWAP1 PUSH2 0x49E9 JUMP JUMPDEST DUP2 SLOAD DUP2 LT PUSH2 0x1641 JUMPI PUSH4 0x4E487B71 PUSH1 0xE0 SHL PUSH1 0x0 MSTORE PUSH1 0x32 PUSH1 0x4 MSTORE PUSH1 0x24 PUSH1 0x0 REVERT JUMPDEST SWAP1 PUSH1 0x0 MSTORE PUSH1 0x20 PUSH1 0x0 KECCAK256 SWAP1 PUSH1 0xA MUL ADD PUSH1 0x1 DUP4 DUP2 SLOAD DUP2 LT PUSH2 0x1670 JUMPI PUSH4 0x4E487B71 PUSH1 0xE0 SHL PUSH1 0x0 MSTORE PUSH1 0x32 PUSH1 0x4 MSTORE PUSH1 0x24 PUSH1 0x0 REVERT JUMPDEST PUSH1 0x0 SWAP2 DUP3 MSTORE PUSH1 0x20 SWAP1 SWAP2 KECCAK256 DUP3 SLOAD PUSH1 0xA SWAP1 SWAP3 MUL ADD DUP1 SLOAD SWAP1 SWAP2 PUSH1 0xFF AND SWAP1 DUP3 SWAP1 PUSH1 0xFF NOT AND PUSH1 0x1 DUP4 DUP2 DUP2 GT ISZERO PUSH2 0x16B1 JUMPI PUSH4 0x4E487B71 PUSH1 0xE0 SHL PUSH1 0x0 MSTORE PUSH1 0x21 PUSH1 0x4 MSTORE PUSH1 0x24 PUSH1 0x0 REVERT JUMPDEST MUL OR SWAP1 SSTORE POP PUSH1 0x1 DUP3 DUP2 ADD SLOAD DUP3 DUP3 ADD SSTORE PUSH1 0x2 DUP1 DUP5 ADD DUP1 SLOAD SWAP2 DUP5 ADD DUP1 SLOAD PUSH1 0x1 PUSH1 0x1 PUSH1 0xA0 SHL SUB SWAP1 SWAP4 AND PUSH1 0x1 PUSH1 0x1 PUSH1 0xA0 SHL SUB NOT DUP5 AND DUP2 OR DUP3 SSTORE SWAP2 SLOAD PUSH1 0x1 PUSH1 0x1 PUSH1 0xA8 SHL SUB NOT SWAP1 SWAP4 AND SWAP1 SWAP2 OR PUSH1 0x1 PUSH1 0xA0 SHL SWAP3 DUP4 SWAP1 DIV PUSH1 0xFF SWAP1 DUP2 AND SWAP1 SWAP4 MUL OR SWAP1 SSTORE PUSH1 0x3 DUP1 DUP6 ADD SLOAD SWAP1 DUP5 ADD SSTORE PUSH1 0x4 DUP1 DUP6 ADD SLOAD SWAP1 DUP5 ADD SSTORE PUSH1 0x5 DUP1 DUP6 ADD SLOAD SWAP1 DUP5 ADD DUP1 SLOAD PUSH1 0xFF NOT AND SWAP2 SWAP1 SWAP3 AND ISZERO ISZERO OR SWAP1 SSTORE PUSH1 0x6 DUP1 DUP5 ADD SLOAD SWAP1 DUP4 ADD SSTORE PUSH1 0x7 DUP1 DUP5 ADD SLOAD SWAP1 DUP4 ADD SSTORE PUSH1 0x8 DUP1 DUP5 ADD SLOAD SWAP1 DUP4 ADD SSTORE PUSH1 0x9 SWAP3 DUP4 ADD SLOAD SWAP3 SWAP1 SWAP2 ADD SWAP2 SWAP1 SWAP2 SSTORE DUP1 SLOAD DUP1 PUSH2 0x1780 JUMPI PUSH4 0x4E487B71 PUSH1 0xE0 SHL PUSH1 0x0 MSTORE PUSH1 0x31 PUSH1 0x4 MSTORE PUSH1 0x24 PUSH1 0x0 REVERT JUMPDEST PUSH1 0x0 DUP3 DUP2 MSTORE PUSH1 0x20 DUP2 KECCAK256 PUSH1 0xA PUSH1 0x0 NOT SWAP1 SWAP4 ADD SWAP3 DUP4 MUL ADD DUP1 SLOAD PUSH1 0xFF NOT SWAP1 DUP2 AND DUP3 SSTORE PUSH1 0x1 DUP3 ADD DUP4 SWAP1 SSTORE PUSH1 0x2 DUP3 ADD DUP1 SLOAD PUSH1 0x1 PUSH1 0x1 PUSH1 0xA8 SHL SUB NOT AND SWAP1 SSTORE PUSH1 0x3 DUP3 ADD DUP4 SWAP1 SSTORE PUSH1 0x4 DUP3 ADD DUP4 SWAP1 SSTORE PUSH1 0x5 DUP3 ADD DUP1 SLOAD SWAP1 SWAP2 AND SWAP1 SSTORE PUSH1 0x6 DUP2 ADD DUP3 SWAP1 SSTORE PUSH1 0x7 DUP2 ADD DUP3 SWAP1 SSTORE PUSH1 0x8 DUP2 ADD DUP3 SWAP1 SSTORE PUSH1 0x9 ADD SSTORE SWAP1 SSTORE POP POP JUMP JUMPDEST PUSH1 0x1 SLOAD PUSH1 0x0 SWAP1 DUP2 SWAP1 PUSH1 0x1 PUSH1 0x1 PUSH1 0x40 SHL SUB DUP2 GT ISZERO PUSH2 0x181D JUMPI PUSH4 0x4E487B71 PUSH1 0xE0 SHL PUSH1 0x0 MSTORE PUSH1 0x41 PUSH1 0x4 MSTORE PUSH1 0x24 PUSH1 0x0 REVERT JUMPDEST PUSH1 0x40 MLOAD SWAP1 DUP1 DUP3 MSTORE DUP1 PUSH1 0x20 MUL PUSH1 0x20 ADD DUP3 ADD PUSH1 0x40 MSTORE DUP1 ISZERO PUSH2 0x1846 JUMPI DUP2 PUSH1 0x20 ADD PUSH1 0x20 DUP3 MUL DUP1 CALLDATASIZE DUP4 CALLDATACOPY ADD SWAP1 POP JUMPDEST POP SWAP1 POP PUSH1 0x0 DUP1 JUMPDEST PUSH1 0x1 SLOAD DUP2 LT ISZERO PUSH2 0x1920 JUMPI PUSH1 0x0 PUSH1 0x1 DUP3 DUP2 SLOAD DUP2 LT PUSH2 0x187A JUMPI PUSH4 0x4E487B71 PUSH1 0xE0 SHL PUSH1 0x0 MSTORE PUSH1 0x32 PUSH1 0x4 MSTORE PUSH1 0x24 PUSH1 0x0 REVERT JUMPDEST PUSH1 0x0 SWAP2 DUP3 MSTORE PUSH1 0x20 SWAP1 SWAP2 KECCAK256 PUSH1 0xA SWAP1 SWAP2 MUL ADD PUSH1 0x2 DUP2 ADD SLOAD SWAP1 SWAP2 POP PUSH1 0x1 PUSH1 0x1 PUSH1 0xA0 SHL SUB DUP9 DUP2 AND SWAP2 AND EQ DUP1 ISZERO PUSH2 0x18BC JUMPI POP PUSH1 0x2 DUP2 ADD SLOAD PUSH1 0xFF DUP8 DUP2 AND PUSH1 0x1 PUSH1 0xA0 SHL SWAP1 SWAP3 DIV AND EQ JUMPDEST DUP1 ISZERO PUSH2 0x18CA JUMPI POP PUSH1 0x7 DUP2 ADD SLOAD ISZERO JUMPDEST ISZERO PUSH2 0x190D JUMPI DUP1 PUSH1 0x1 ADD SLOAD DUP5 DUP5 DUP2 MLOAD DUP2 LT PUSH2 0x18F4 JUMPI PUSH4 0x4E487B71 PUSH1 0xE0 SHL PUSH1 0x0 MSTORE PUSH1 0x32 PUSH1 0x4 MSTORE PUSH1 0x24 PUSH1 0x0 REVERT JUMPDEST PUSH1 0x20 SWAP1 DUP2 MUL SWAP2 SWAP1 SWAP2 ADD ADD MSTORE DUP3 PUSH2 0x1909 DUP2 PUSH2 0x4A00 JUMP JUMPDEST SWAP4 POP POP JUMPDEST POP DUP1 PUSH2 0x1918 DUP2 PUSH2 0x4A00 JUMP JUMPDEST SWAP2 POP POP PUSH2 0x184D JUMP JUMPDEST POP PUSH1 0x0 DUP2 GT PUSH2 0x1971 JUMPI PUSH1 0x40 MLOAD PUSH3 0x461BCD PUSH1 0xE5 SHL DUP2 MSTORE PUSH1 0x20 PUSH1 0x4 DUP3 ADD MSTORE PUSH1 0x1F PUSH1 0x24 DUP3 ADD MSTORE PUSH32 0x4E6F20617661696C61626C6520746F6B656E7320746F20707572636861736500 PUSH1 0x44 DUP3 ADD MSTORE PUSH1 0x64 ADD PUSH2 0x6C9 JUMP JUMPDEST PUSH1 0x0 DUP2 TIMESTAMP CALLER PUSH1 0x40 MLOAD PUSH1 0x20 ADD PUSH2 0x19A2 SWAP3 SWAP2 SWAP1 SWAP2 DUP3 MSTORE PUSH1 0x60 SHL PUSH12 0xFFFFFFFFFFFFFFFFFFFFFFFF NOT AND PUSH1 0x20 DUP3 ADD MSTORE PUSH1 0x34 ADD SWAP1 JUMP JUMPDEST PUSH1 0x40 MLOAD PUSH1 0x20 DUP2 DUP4 SUB SUB DUP2 MSTORE SWAP1 PUSH1 0x40 MSTORE DUP1 MLOAD SWAP1 PUSH1 0x20 ADD KECCAK256 PUSH1 0x0 SHR PUSH2 0x19C5 SWAP2 SWAP1 PUSH2 0x4A1B JUMP JUMPDEST SWAP1 POP DUP3 DUP2 DUP2 MLOAD DUP2 LT PUSH2 0x19E7 JUMPI PUSH4 0x4E487B71 PUSH1 0xE0 SHL PUSH1 0x0 MSTORE PUSH1 0x32 PUSH1 0x4 MSTORE PUSH1 0x24 PUSH1 0x0 REVERT JUMPDEST PUSH1 0x20 MUL PUSH1 0x20 ADD ADD MLOAD SWAP4 POP POP POP POP SWAP3 SWAP2 POP POP JUMP JUMPDEST PUSH1 0x1 DUP2 DUP2 SLOAD DUP2 LT PUSH2 0x1A0A JUMPI PUSH1 0x0 DUP1 REVERT JUMPDEST PUSH1 0x0 SWAP2 DUP3 MSTORE PUSH1 0x20 SWAP1 SWAP2 KECCAK256 PUSH1 0xA SWAP1 SWAP2 MUL ADD DUP1 SLOAD PUSH1 0x1 DUP3 ADD SLOAD PUSH1 0x2 DUP4 ADD SLOAD PUSH1 0x3 DUP5 ADD SLOAD PUSH1 0x4 DUP6 ADD SLOAD PUSH1 0x5 DUP7 ADD SLOAD PUSH1 0x6 DUP8 ADD SLOAD PUSH1 0x7 DUP9 ADD SLOAD PUSH1 0x8 DUP10 ADD SLOAD PUSH1 0x9 SWAP1 SWAP10 ADD SLOAD PUSH1 0xFF SWAP9 DUP10 AND SWAP11 POP SWAP7 SWAP9 PUSH1 0x1 PUSH1 0x1 PUSH1 0xA0 SHL SUB DUP8 AND SWAP9 PUSH1 0x1 PUSH1 0xA0 SHL SWAP1 SWAP8 DIV DUP8 AND SWAP8 SWAP6 SWAP7 SWAP5 SWAP6 SWAP5 SWAP1 SWAP4 AND SWAP4 SWAP2 SWAP3 SWAP1 SWAP2 DUP12 JUMP JUMPDEST PUSH2 0x1A81 PUSH2 0x3954 JUMP JUMPDEST PUSH1 0x40 MLOAD PUSH3 0x7EEAC7 PUSH1 0xE1 SHL DUP2 MSTORE ADDRESS PUSH1 0x4 DUP3 ADD MSTORE PUSH1 0x24 DUP2 ADD DUP11 SWAP1 MSTORE DUP7 SWAP1 PUSH1 0x1 PUSH1 0x1 PUSH1 0xA0 SHL SUB DUP11 AND SWAP1 PUSH3 0xFDD58E SWAP1 PUSH1 0x44 ADD PUSH1 0x20 PUSH1 0x40 MLOAD DUP1 DUP4 SUB DUP2 DUP7 DUP1 EXTCODESIZE ISZERO DUP1 ISZERO PUSH2 0x1AC7 JUMPI PUSH1 0x0 DUP1 REVERT JUMPDEST POP GAS STATICCALL ISZERO DUP1 ISZERO PUSH2 0x1ADB JUMPI RETURNDATASIZE PUSH1 0x0 DUP1 RETURNDATACOPY RETURNDATASIZE PUSH1 0x0 REVERT JUMPDEST POP POP POP POP PUSH1 0x40 MLOAD RETURNDATASIZE PUSH1 0x1F NOT PUSH1 0x1F DUP3 ADD AND DUP3 ADD DUP1 PUSH1 0x40 MSTORE POP DUP2 ADD SWAP1 PUSH2 0x1AFF SWAP2 SWAP1 PUSH2 0x43D8 JUMP JUMPDEST LT ISZERO PUSH2 0x1B1D JUMPI PUSH1 0x40 MLOAD PUSH3 0x461BCD PUSH1 0xE5 SHL DUP2 MSTORE PUSH1 0x4 ADD PUSH2 0x6C9 SWAP1 PUSH2 0x4730 JUMP JUMPDEST PUSH2 0x1B27 DUP9 DUP11 PUSH2 0x3088 JUMP JUMPDEST ISZERO PUSH2 0x1B44 JUMPI PUSH1 0x40 MLOAD PUSH3 0x461BCD PUSH1 0xE5 SHL DUP2 MSTORE PUSH1 0x4 ADD PUSH2 0x6C9 SWAP1 PUSH2 0x47F3 JUMP JUMPDEST PUSH1 0x40 DUP1 MLOAD PUSH2 0x160 DUP2 ADD DUP3 MSTORE PUSH1 0x1 DUP1 DUP3 MSTORE PUSH1 0x20 DUP3 ADD DUP13 SWAP1 MSTORE PUSH1 0x1 PUSH1 0x1 PUSH1 0xA0 SHL SUB DUP12 AND SWAP3 DUP3 ADD SWAP3 SWAP1 SWAP3 MSTORE PUSH1 0xFF DUP10 AND PUSH1 0x60 DUP3 ADD MSTORE PUSH1 0x80 DUP2 ADD DUP9 SWAP1 MSTORE PUSH1 0xA0 DUP2 ADD DUP8 SWAP1 MSTORE DUP6 ISZERO ISZERO PUSH1 0xC0 DUP3 ADD MSTORE PUSH1 0xE0 DUP2 ADD DUP6 SWAP1 MSTORE PUSH1 0x0 PUSH2 0x100 DUP3 ADD DUP2 SWAP1 MSTORE PUSH2 0x120 DUP3 ADD DUP6 SWAP1 MSTORE PUSH2 0x140 DUP3 ADD DUP5 SWAP1 MSTORE DUP3 SLOAD DUP1 DUP5 ADD DUP5 SSTORE SWAP1 DUP4 SWAP1 MSTORE DUP2 MLOAD PUSH1 0xA SWAP1 SWAP2 MUL PUSH32 0xB10E2D527612073B26EECDFD717E6A320CF44B4AFAC2B0732D9FCBE2B7FA0CF6 ADD DUP1 SLOAD SWAP3 SWAP4 SWAP1 SWAP3 DUP4 SWAP2 PUSH1 0xFF NOT SWAP2 SWAP1 SWAP2 AND SWAP1 DUP4 DUP2 DUP2 GT ISZERO PUSH2 0x1C0F JUMPI PUSH4 0x4E487B71 PUSH1 0xE0 SHL PUSH1 0x0 MSTORE PUSH1 0x21 PUSH1 0x4 MSTORE PUSH1 0x24 PUSH1 0x0 REVERT JUMPDEST MUL OR SWAP1 SSTORE POP PUSH1 0x20 DUP3 ADD MLOAD PUSH1 0x1 DUP1 DUP4 ADD SWAP2 SWAP1 SWAP2 SSTORE PUSH1 0x40 DUP1 DUP5 ADD MLOAD PUSH1 0x2 DUP5 ADD DUP1 SLOAD PUSH1 0x60 DUP8 ADD MLOAD PUSH1 0xFF AND PUSH1 0x1 PUSH1 0xA0 SHL MUL PUSH1 0x1 PUSH1 0x1 PUSH1 0xA8 SHL SUB NOT SWAP1 SWAP2 AND PUSH1 0x1 PUSH1 0x1 PUSH1 0xA0 SHL SUB SWAP4 DUP5 AND OR OR SWAP1 SSTORE PUSH1 0x80 DUP6 ADD MLOAD PUSH1 0x3 DUP6 ADD SSTORE PUSH1 0xA0 DUP6 ADD MLOAD PUSH1 0x4 DUP6 ADD SSTORE PUSH1 0xC0 DUP6 ADD MLOAD PUSH1 0x5 DUP6 ADD DUP1 SLOAD SWAP2 ISZERO ISZERO PUSH1 0xFF NOT SWAP1 SWAP3 AND SWAP2 SWAP1 SWAP2 OR SWAP1 SSTORE PUSH1 0xE0 DUP6 ADD MLOAD PUSH1 0x6 DUP6 ADD SSTORE PUSH2 0x100 DUP6 ADD MLOAD PUSH1 0x7 DUP6 ADD SSTORE PUSH2 0x120 DUP6 ADD MLOAD PUSH1 0x8 DUP6 ADD SSTORE PUSH2 0x140 SWAP1 SWAP5 ADD MLOAD PUSH1 0x9 SWAP1 SWAP4 ADD SWAP3 SWAP1 SWAP3 SSTORE SWAP1 MLOAD SWAP2 DUP11 AND SWAP2 DUP12 SWAP2 PUSH1 0x0 DUP1 MLOAD PUSH1 0x20 PUSH2 0x4A9D DUP4 CODECOPY DUP2 MLOAD SWAP2 MSTORE SWAP2 PUSH2 0x1CE1 SWAP2 SWAP1 DUP11 SWAP1 DUP11 SWAP1 DUP11 SWAP1 DUP11 SWAP1 DUP11 SWAP1 PUSH2 0x4664 JUMP JUMPDEST PUSH1 0x40 MLOAD DUP1 SWAP2 SUB SWAP1 LOG3 POP POP POP POP POP POP POP POP POP JUMP JUMPDEST PUSH1 0x0 DUP1 PUSH1 0x0 JUMPDEST PUSH1 0x1 SLOAD DUP2 LT ISZERO PUSH2 0x1D73 JUMPI PUSH1 0x0 PUSH1 0x1 DUP3 DUP2 SLOAD DUP2 LT PUSH2 0x1D27 JUMPI PUSH4 0x4E487B71 PUSH1 0xE0 SHL PUSH1 0x0 MSTORE PUSH1 0x32 PUSH1 0x4 MSTORE PUSH1 0x24 PUSH1 0x0 REVERT JUMPDEST PUSH1 0x0 SWAP2 DUP3 MSTORE PUSH1 0x20 SWAP1 SWAP2 KECCAK256 PUSH1 0xA SWAP1 SWAP2 MUL ADD PUSH1 0x2 DUP2 ADD SLOAD SWAP1 SWAP2 POP PUSH1 0x1 PUSH1 0x1 PUSH1 0xA0 SHL SUB DUP7 DUP2 AND SWAP2 AND EQ ISZERO PUSH2 0x1D60 JUMPI DUP3 PUSH2 0x1D5C DUP2 PUSH2 0x4A00 JUMP JUMPDEST SWAP4 POP POP JUMPDEST POP DUP1 PUSH2 0x1D6B DUP2 PUSH2 0x4A00 JUMP JUMPDEST SWAP2 POP POP PUSH2 0x1CFA JUMP JUMPDEST POP SWAP3 SWAP2 POP POP JUMP JUMPDEST PUSH2 0x1D82 PUSH2 0x3954 JUMP JUMPDEST PUSH1 0x0 JUMPDEST DUP4 MLOAD DUP2 LT ISZERO PUSH2 0xFD8 JUMPI PUSH1 0x0 PUSH2 0x1DC1 DUP7 DUP7 DUP5 DUP2 MLOAD DUP2 LT PUSH2 0x1DB4 JUMPI PUSH4 0x4E487B71 PUSH1 0xE0 SHL PUSH1 0x0 MSTORE PUSH1 0x32 PUSH1 0x4 MSTORE PUSH1 0x24 PUSH1 0x0 REVERT JUMPDEST PUSH1 0x20 MUL PUSH1 0x20 ADD ADD MLOAD PUSH2 0x39AE JUMP JUMPDEST SWAP1 POP PUSH1 0x0 PUSH1 0x1 DUP3 DUP2 SLOAD DUP2 LT PUSH2 0x1DE6 JUMPI PUSH4 0x4E487B71 PUSH1 0xE0 SHL PUSH1 0x0 MSTORE PUSH1 0x32 PUSH1 0x4 MSTORE PUSH1 0x24 PUSH1 0x0 REVERT JUMPDEST SWAP1 PUSH1 0x0 MSTORE PUSH1 0x20 PUSH1 0x0 KECCAK256 SWAP1 PUSH1 0xA MUL ADD SWAP1 POP DUP1 PUSH1 0x7 ADD SLOAD PUSH1 0x0 EQ PUSH2 0x1E45 JUMPI PUSH1 0x40 MLOAD PUSH3 0x461BCD PUSH1 0xE5 SHL DUP2 MSTORE PUSH1 0x20 PUSH1 0x4 DUP3 ADD MSTORE PUSH1 0x18 PUSH1 0x24 DUP3 ADD MSTORE PUSH24 0x151BDAD95B881A185CC81899595B881C1D5C98DA185CD959 PUSH1 0x42 SHL PUSH1 0x44 DUP3 ADD MSTORE PUSH1 0x64 ADD PUSH2 0x6C9 JUMP JUMPDEST PUSH1 0x0 DUP2 SLOAD PUSH1 0xFF AND PUSH1 0x1 DUP2 GT ISZERO PUSH2 0x1E6B JUMPI PUSH4 0x4E487B71 PUSH1 0xE0 SHL PUSH1 0x0 MSTORE PUSH1 0x21 PUSH1 0x4 MSTORE PUSH1 0x24 PUSH1 0x0 REVERT JUMPDEST EQ ISZERO PUSH2 0x1EE1 JUMPI PUSH1 0x2 DUP2 ADD SLOAD PUSH1 0x1 DUP3 ADD SLOAD PUSH1 0x40 MLOAD PUSH4 0x23B872DD PUSH1 0xE0 SHL DUP2 MSTORE PUSH1 0x1 PUSH1 0x1 PUSH1 0xA0 SHL SUB SWAP1 SWAP3 AND SWAP2 PUSH4 0x23B872DD SWAP2 PUSH2 0x1EAA SWAP2 ADDRESS SWAP2 DUP10 SWAP2 PUSH1 0x4 ADD PUSH2 0x44F1 JUMP JUMPDEST PUSH1 0x0 PUSH1 0x40 MLOAD DUP1 DUP4 SUB DUP2 PUSH1 0x0 DUP8 DUP1 EXTCODESIZE ISZERO DUP1 ISZERO PUSH2 0x1EC4 JUMPI PUSH1 0x0 DUP1 REVERT JUMPDEST POP GAS CALL ISZERO DUP1 ISZERO PUSH2 0x1ED8 JUMPI RETURNDATASIZE PUSH1 0x0 DUP1 RETURNDATACOPY RETURNDATASIZE PUSH1 0x0 REVERT JUMPDEST POP POP POP POP PUSH2 0x1F54 JUMP JUMPDEST PUSH1 0x2 DUP2 ADD SLOAD PUSH1 0x1 DUP3 ADD SLOAD PUSH1 0x3 DUP4 ADD SLOAD PUSH1 0x40 MLOAD PUSH4 0x79212195 PUSH1 0xE1 SHL DUP2 MSTORE PUSH1 0x1 PUSH1 0x1 PUSH1 0xA0 SHL SUB SWAP1 SWAP4 AND SWAP3 PUSH4 0xF242432A SWAP3 PUSH2 0x1F21 SWAP3 ADDRESS SWAP3 DUP11 SWAP3 SWAP2 SWAP1 PUSH1 0x4 ADD PUSH2 0x4515 JUMP JUMPDEST PUSH1 0x0 PUSH1 0x40 MLOAD DUP1 DUP4 SUB DUP2 PUSH1 0x0 DUP8 DUP1 EXTCODESIZE ISZERO DUP1 ISZERO PUSH2 0x1F3B JUMPI PUSH1 0x0 DUP1 REVERT JUMPDEST POP GAS CALL ISZERO DUP1 ISZERO PUSH2 0x1F4F JUMPI RETURNDATASIZE PUSH1 0x0 DUP1 RETURNDATACOPY RETURNDATASIZE PUSH1 0x0 REVERT JUMPDEST POP POP POP POP JUMPDEST PUSH1 0x2 DUP2 ADD SLOAD PUSH1 0x1 DUP3 ADD SLOAD DUP3 SLOAD PUSH1 0x40 MLOAD PUSH1 0x1 PUSH1 0x1 PUSH1 0xA0 SHL SUB SWAP1 SWAP4 AND SWAP3 PUSH32 0xE4A29CCD55770F0547FB782DB0FF996CB224CBEF7622AE806009E0C249A9FCD4 SWAP2 PUSH2 0x1FA0 SWAP2 PUSH1 0xFF SWAP1 SWAP2 AND SWAP1 PUSH2 0x45BC JUMP JUMPDEST PUSH1 0x40 MLOAD DUP1 SWAP2 SUB SWAP1 LOG3 PUSH1 0x1 DUP1 SLOAD PUSH2 0x1FB7 SWAP1 DUP3 SWAP1 PUSH2 0x49E9 JUMP JUMPDEST DUP2 SLOAD DUP2 LT PUSH2 0x1FD5 JUMPI PUSH4 0x4E487B71 PUSH1 0xE0 SHL PUSH1 0x0 MSTORE PUSH1 0x32 PUSH1 0x4 MSTORE PUSH1 0x24 PUSH1 0x0 REVERT JUMPDEST SWAP1 PUSH1 0x0 MSTORE PUSH1 0x20 PUSH1 0x0 KECCAK256 SWAP1 PUSH1 0xA MUL ADD PUSH1 0x1 DUP4 DUP2 SLOAD DUP2 LT PUSH2 0x2004 JUMPI PUSH4 0x4E487B71 PUSH1 0xE0 SHL PUSH1 0x0 MSTORE PUSH1 0x32 PUSH1 0x4 MSTORE PUSH1 0x24 PUSH1 0x0 REVERT JUMPDEST PUSH1 0x0 SWAP2 DUP3 MSTORE PUSH1 0x20 SWAP1 SWAP2 KECCAK256 DUP3 SLOAD PUSH1 0xA SWAP1 SWAP3 MUL ADD DUP1 SLOAD SWAP1 SWAP2 PUSH1 0xFF AND SWAP1 DUP3 SWAP1 PUSH1 0xFF NOT AND PUSH1 0x1 DUP4 DUP2 DUP2 GT ISZERO PUSH2 0x2045 JUMPI PUSH4 0x4E487B71 PUSH1 0xE0 SHL PUSH1 0x0 MSTORE PUSH1 0x21 PUSH1 0x4 MSTORE PUSH1 0x24 PUSH1 0x0 REVERT JUMPDEST MUL OR SWAP1 SSTORE POP PUSH1 0x1 DUP3 DUP2 ADD SLOAD DUP3 DUP3 ADD SSTORE PUSH1 0x2 DUP1 DUP5 ADD DUP1 SLOAD SWAP2 DUP5 ADD DUP1 SLOAD PUSH1 0x1 PUSH1 0x1 PUSH1 0xA0 SHL SUB SWAP1 SWAP4 AND PUSH1 0x1 PUSH1 0x1 PUSH1 0xA0 SHL SUB NOT DUP5 AND DUP2 OR DUP3 SSTORE SWAP2 SLOAD PUSH1 0x1 PUSH1 0x1 PUSH1 0xA8 SHL SUB NOT SWAP1 SWAP4 AND SWAP1 SWAP2 OR PUSH1 0x1 PUSH1 0xA0 SHL SWAP3 DUP4 SWAP1 DIV PUSH1 0xFF SWAP1 DUP2 AND SWAP1 SWAP4 MUL OR SWAP1 SSTORE PUSH1 0x3 DUP1 DUP6 ADD SLOAD SWAP1 DUP5 ADD SSTORE PUSH1 0x4 DUP1 DUP6 ADD SLOAD SWAP1 DUP5 ADD SSTORE PUSH1 0x5 DUP1 DUP6 ADD SLOAD SWAP1 DUP5 ADD DUP1 SLOAD PUSH1 0xFF NOT AND SWAP2 SWAP1 SWAP3 AND ISZERO ISZERO OR SWAP1 SSTORE PUSH1 0x6 DUP1 DUP5 ADD SLOAD SWAP1 DUP4 ADD SSTORE PUSH1 0x7 DUP1 DUP5 ADD SLOAD SWAP1 DUP4 ADD SSTORE PUSH1 0x8 DUP1 DUP5 ADD SLOAD SWAP1 DUP4 ADD SSTORE PUSH1 0x9 SWAP3 DUP4 ADD SLOAD SWAP3 SWAP1 SWAP2 ADD SWAP2 SWAP1 SWAP2 SSTORE DUP1 SLOAD DUP1 PUSH2 0x2114 JUMPI PUSH4 0x4E487B71 PUSH1 0xE0 SHL PUSH1 0x0 MSTORE PUSH1 0x31 PUSH1 0x4 MSTORE PUSH1 0x24 PUSH1 0x0 REVERT JUMPDEST PUSH1 0x0 DUP3 DUP2 MSTORE PUSH1 0x20 DUP2 KECCAK256 PUSH1 0xA PUSH1 0x0 NOT SWAP1 SWAP4 ADD SWAP3 DUP4 MUL ADD DUP1 SLOAD PUSH1 0xFF NOT SWAP1 DUP2 AND DUP3 SSTORE PUSH1 0x1 DUP3 ADD DUP4 SWAP1 SSTORE PUSH1 0x2 DUP3 ADD DUP1 SLOAD PUSH1 0x1 PUSH1 0x1 PUSH1 0xA8 SHL SUB NOT AND SWAP1 SSTORE PUSH1 0x3 DUP3 ADD DUP4 SWAP1 SSTORE PUSH1 0x4 DUP3 ADD DUP4 SWAP1 SSTORE PUSH1 0x5 DUP3 ADD DUP1 SLOAD SWAP1 SWAP2 AND SWAP1 SSTORE PUSH1 0x6 DUP2 ADD DUP3 SWAP1 SSTORE PUSH1 0x7 DUP2 ADD DUP3 SWAP1 SSTORE PUSH1 0x8 DUP2 ADD DUP3 SWAP1 SSTORE PUSH1 0x9 ADD SSTORE SWAP1 SSTORE POP DUP2 SWAP1 POP PUSH2 0x218D DUP2 PUSH2 0x4A00 JUMP JUMPDEST SWAP2 POP POP PUSH2 0x1D85 JUMP JUMPDEST PUSH2 0x219D PUSH2 0x3954 JUMP JUMPDEST PUSH2 0x21A7 PUSH1 0x0 PUSH2 0x3B18 JUMP JUMPDEST JUMP JUMPDEST PUSH2 0x21B1 PUSH2 0x3954 JUMP JUMPDEST PUSH1 0x0 JUMPDEST DUP9 MLOAD DUP2 LT ISZERO PUSH2 0x24C6 JUMPI ADDRESS PUSH1 0x1 PUSH1 0x1 PUSH1 0xA0 SHL SUB AND DUP9 PUSH1 0x1 PUSH1 0x1 PUSH1 0xA0 SHL SUB AND PUSH4 0x6352211E DUP12 DUP5 DUP2 MLOAD DUP2 LT PUSH2 0x21F6 JUMPI PUSH4 0x4E487B71 PUSH1 0xE0 SHL PUSH1 0x0 MSTORE PUSH1 0x32 PUSH1 0x4 MSTORE PUSH1 0x24 PUSH1 0x0 REVERT JUMPDEST PUSH1 0x20 MUL PUSH1 0x20 ADD ADD MLOAD PUSH1 0x40 MLOAD DUP3 PUSH4 0xFFFFFFFF AND PUSH1 0xE0 SHL DUP2 MSTORE PUSH1 0x4 ADD PUSH2 0x221C SWAP2 DUP2 MSTORE PUSH1 0x20 ADD SWAP1 JUMP JUMPDEST PUSH1 0x20 PUSH1 0x40 MLOAD DUP1 DUP4 SUB DUP2 DUP7 DUP1 EXTCODESIZE ISZERO DUP1 ISZERO PUSH2 0x2234 JUMPI PUSH1 0x0 DUP1 REVERT JUMPDEST POP GAS STATICCALL ISZERO DUP1 ISZERO PUSH2 0x2248 JUMPI RETURNDATASIZE PUSH1 0x0 DUP1 RETURNDATACOPY RETURNDATASIZE PUSH1 0x0 REVERT JUMPDEST POP POP POP POP PUSH1 0x40 MLOAD RETURNDATASIZE PUSH1 0x1F NOT PUSH1 0x1F DUP3 ADD AND DUP3 ADD DUP1 PUSH1 0x40 MSTORE POP DUP2 ADD SWAP1 PUSH2 0x226C SWAP2 SWAP1 PUSH2 0x3D00 JUMP JUMPDEST PUSH1 0x1 PUSH1 0x1 PUSH1 0xA0 SHL SUB AND EQ PUSH2 0x2292 JUMPI PUSH1 0x40 MLOAD PUSH3 0x461BCD PUSH1 0xE5 SHL DUP2 MSTORE PUSH1 0x4 ADD PUSH2 0x6C9 SWAP1 PUSH2 0x4853 JUMP JUMPDEST PUSH2 0x22C3 DUP9 DUP11 DUP4 DUP2 MLOAD DUP2 LT PUSH2 0x22B6 JUMPI PUSH4 0x4E487B71 PUSH1 0xE0 SHL PUSH1 0x0 MSTORE PUSH1 0x32 PUSH1 0x4 MSTORE PUSH1 0x24 PUSH1 0x0 REVERT JUMPDEST PUSH1 0x20 MUL PUSH1 0x20 ADD ADD MLOAD PUSH2 0x3088 JUMP JUMPDEST ISZERO PUSH2 0x22E0 JUMPI PUSH1 0x40 MLOAD PUSH3 0x461BCD PUSH1 0xE5 SHL DUP2 MSTORE PUSH1 0x4 ADD PUSH2 0x6C9 SWAP1 PUSH2 0x47F3 JUMP JUMPDEST PUSH1 0x40 DUP1 MLOAD PUSH2 0x160 DUP2 ADD SWAP1 SWAP2 MSTORE PUSH1 0x1 SWAP1 DUP1 PUSH1 0x0 DUP2 MSTORE PUSH1 0x20 ADD DUP12 DUP5 DUP2 MLOAD DUP2 LT PUSH2 0x2317 JUMPI PUSH4 0x4E487B71 PUSH1 0xE0 SHL PUSH1 0x0 MSTORE PUSH1 0x32 PUSH1 0x4 MSTORE PUSH1 0x24 PUSH1 0x0 REVERT JUMPDEST PUSH1 0x20 SWAP1 DUP2 MUL SWAP2 SWAP1 SWAP2 ADD DUP2 ADD MLOAD DUP3 MSTORE PUSH1 0x1 PUSH1 0x1 PUSH1 0xA0 SHL SUB DUP13 AND DUP3 DUP3 ADD MSTORE PUSH1 0xFF DUP12 AND PUSH1 0x40 DUP4 ADD MSTORE PUSH1 0x0 PUSH1 0x60 DUP4 ADD DUP2 SWAP1 MSTORE PUSH1 0x80 DUP4 ADD DUP12 SWAP1 MSTORE DUP10 ISZERO ISZERO PUSH1 0xA0 DUP5 ADD MSTORE PUSH1 0xC0 DUP4 ADD DUP10 SWAP1 MSTORE PUSH1 0xE0 DUP4 ADD DUP2 SWAP1 MSTORE PUSH2 0x100 DUP4 ADD DUP9 SWAP1 MSTORE PUSH2 0x120 SWAP1 SWAP3 ADD DUP7 SWAP1 MSTORE DUP4 SLOAD PUSH1 0x1 DUP2 DUP2 ADD DUP7 SSTORE SWAP5 DUP4 MSTORE SWAP2 KECCAK256 DUP3 MLOAD PUSH1 0xA SWAP1 SWAP3 MUL ADD DUP1 SLOAD SWAP3 SWAP4 SWAP1 SWAP3 DUP4 SWAP2 PUSH1 0xFF NOT SWAP2 SWAP1 SWAP2 AND SWAP1 DUP4 DUP2 DUP2 GT ISZERO PUSH2 0x23B8 JUMPI PUSH4 0x4E487B71 PUSH1 0xE0 SHL PUSH1 0x0 MSTORE PUSH1 0x21 PUSH1 0x4 MSTORE PUSH1 0x24 PUSH1 0x0 REVERT JUMPDEST MUL OR SWAP1 SSTORE POP PUSH1 0x20 DUP3 ADD MLOAD PUSH1 0x1 DUP3 ADD SSTORE PUSH1 0x40 DUP3 ADD MLOAD PUSH1 0x2 DUP3 ADD DUP1 SLOAD PUSH1 0x60 DUP6 ADD MLOAD PUSH1 0xFF AND PUSH1 0x1 PUSH1 0xA0 SHL MUL PUSH1 0x1 PUSH1 0x1 PUSH1 0xA8 SHL SUB NOT SWAP1 SWAP2 AND PUSH1 0x1 PUSH1 0x1 PUSH1 0xA0 SHL SUB SWAP4 DUP5 AND OR OR SWAP1 SSTORE PUSH1 0x80 DUP4 ADD MLOAD PUSH1 0x3 DUP4 ADD SSTORE PUSH1 0xA0 DUP4 ADD MLOAD PUSH1 0x4 DUP4 ADD SSTORE PUSH1 0xC0 DUP4 ADD MLOAD PUSH1 0x5 DUP4 ADD DUP1 SLOAD SWAP2 ISZERO ISZERO PUSH1 0xFF NOT SWAP1 SWAP3 AND SWAP2 SWAP1 SWAP2 OR SWAP1 SSTORE PUSH1 0xE0 DUP4 ADD MLOAD PUSH1 0x6 DUP4 ADD SSTORE PUSH2 0x100 DUP4 ADD MLOAD PUSH1 0x7 DUP4 ADD SSTORE PUSH2 0x120 DUP4 ADD MLOAD PUSH1 0x8 DUP4 ADD SSTORE PUSH2 0x140 SWAP1 SWAP3 ADD MLOAD PUSH1 0x9 SWAP1 SWAP2 ADD SSTORE DUP10 MLOAD SWAP1 DUP10 AND SWAP1 DUP11 SWAP1 DUP4 SWAP1 DUP2 LT PUSH2 0x247C JUMPI PUSH4 0x4E487B71 PUSH1 0xE0 SHL PUSH1 0x0 MSTORE PUSH1 0x32 PUSH1 0x4 MSTORE PUSH1 0x24 PUSH1 0x0 REVERT JUMPDEST PUSH1 0x20 MUL PUSH1 0x20 ADD ADD MLOAD PUSH1 0x0 DUP1 MLOAD PUSH1 0x20 PUSH2 0x4A9D DUP4 CODECOPY DUP2 MLOAD SWAP2 MSTORE PUSH1 0x0 DUP10 DUP10 DUP10 DUP10 DUP10 PUSH1 0x40 MLOAD PUSH2 0x24AC SWAP7 SWAP6 SWAP5 SWAP4 SWAP3 SWAP2 SWAP1 PUSH2 0x4664 JUMP JUMPDEST PUSH1 0x40 MLOAD DUP1 SWAP2 SUB SWAP1 LOG3 DUP1 PUSH2 0x24BE DUP2 PUSH2 0x4A00 JUMP JUMPDEST SWAP2 POP POP PUSH2 0x21B4 JUMP JUMPDEST POP POP POP POP POP POP POP POP POP JUMP JUMPDEST PUSH2 0x24D9 PUSH2 0x3954 JUMP JUMPDEST PUSH1 0x0 JUMPDEST DUP4 MLOAD DUP2 LT ISZERO PUSH2 0xFD8 JUMPI PUSH1 0x0 JUMPDEST DUP4 MLOAD DUP2 LT ISZERO PUSH2 0x25DB JUMPI PUSH1 0x40 MLOAD DUP1 PUSH1 0x40 ADD PUSH1 0x40 MSTORE DUP1 PUSH1 0x1 ISZERO ISZERO DUP2 MSTORE PUSH1 0x20 ADD DUP5 DUP2 MSTORE POP PUSH1 0x2 PUSH1 0x0 DUP9 PUSH1 0x1 PUSH1 0x1 PUSH1 0xA0 SHL SUB AND PUSH1 0x1 PUSH1 0x1 PUSH1 0xA0 SHL SUB AND DUP2 MSTORE PUSH1 0x20 ADD SWAP1 DUP2 MSTORE PUSH1 0x20 ADD PUSH1 0x0 KECCAK256 PUSH1 0x0 DUP8 DUP6 DUP2 MLOAD DUP2 LT PUSH2 0x2550 JUMPI PUSH4 0x4E487B71 PUSH1 0xE0 SHL PUSH1 0x0 MSTORE PUSH1 0x32 PUSH1 0x4 MSTORE PUSH1 0x24 PUSH1 0x0 REVERT JUMPDEST PUSH1 0x20 MUL PUSH1 0x20 ADD ADD MLOAD PUSH1 0xFF AND PUSH1 0xFF AND DUP2 MSTORE PUSH1 0x20 ADD SWAP1 DUP2 MSTORE PUSH1 0x20 ADD PUSH1 0x0 KECCAK256 PUSH1 0x0 DUP7 DUP5 DUP2 MLOAD DUP2 LT PUSH2 0x258E JUMPI PUSH4 0x4E487B71 PUSH1 0xE0 SHL PUSH1 0x0 MSTORE PUSH1 0x32 PUSH1 0x4 MSTORE PUSH1 0x24 PUSH1 0x0 REVERT JUMPDEST PUSH1 0x20 SWAP1 DUP2 MUL SWAP2 SWAP1 SWAP2 ADD DUP2 ADD MLOAD PUSH1 0x1 PUSH1 0x1 PUSH1 0xA0 SHL SUB AND DUP3 MSTORE DUP2 DUP2 ADD SWAP3 SWAP1 SWAP3 MSTORE PUSH1 0x40 ADD PUSH1 0x0 KECCAK256 DUP3 MLOAD DUP2 SLOAD PUSH1 0xFF NOT AND SWAP1 ISZERO ISZERO OR DUP2 SSTORE SWAP2 ADD MLOAD PUSH1 0x1 SWAP1 SWAP2 ADD SSTORE DUP1 PUSH2 0x25D3 DUP2 PUSH2 0x4A00 JUMP JUMPDEST SWAP2 POP POP PUSH2 0x24E8 JUMP JUMPDEST POP DUP1 PUSH2 0x25E6 DUP2 PUSH2 0x4A00 JUMP JUMPDEST SWAP2 POP POP PUSH2 0x24DC JUMP JUMPDEST PUSH2 0x25F6 PUSH2 0x3954 JUMP JUMPDEST PUSH1 0x40 DUP1 MLOAD DUP1 DUP3 ADD DUP3 MSTORE PUSH1 0x1 DUP1 DUP3 MSTORE PUSH1 0x20 DUP1 DUP4 ADD SWAP5 DUP6 MSTORE PUSH1 0x1 PUSH1 0x1 PUSH1 0xA0 SHL SUB SWAP8 DUP9 AND PUSH1 0x0 SWAP1 DUP2 MSTORE PUSH1 0x2 DUP3 MSTORE DUP5 DUP2 KECCAK256 PUSH1 0xFF SWAP9 SWAP1 SWAP9 AND DUP2 MSTORE SWAP7 DUP2 MSTORE DUP4 DUP8 KECCAK256 SWAP6 SWAP1 SWAP8 AND DUP7 MSTORE SWAP4 SWAP1 SWAP6 MSTORE SWAP1 SWAP3 KECCAK256 SWAP3 MLOAD DUP4 SLOAD PUSH1 0xFF NOT AND SWAP1 ISZERO ISZERO OR DUP4 SSTORE SWAP1 MLOAD SWAP2 ADD SSTORE JUMP JUMPDEST PUSH1 0x0 DUP1 JUMPDEST DUP4 MLOAD DUP2 LT ISZERO PUSH2 0x2B74 JUMPI PUSH1 0x0 PUSH2 0x2686 DUP7 DUP7 DUP5 DUP2 MLOAD DUP2 LT PUSH2 0x1DB4 JUMPI PUSH4 0x4E487B71 PUSH1 0xE0 SHL PUSH1 0x0 MSTORE PUSH1 0x32 PUSH1 0x4 MSTORE PUSH1 0x24 PUSH1 0x0 REVERT JUMPDEST SWAP1 POP PUSH1 0x0 PUSH1 0x1 DUP3 DUP2 SLOAD DUP2 LT PUSH2 0x26AB JUMPI PUSH4 0x4E487B71 PUSH1 0xE0 SHL PUSH1 0x0 MSTORE PUSH1 0x32 PUSH1 0x4 MSTORE PUSH1 0x24 PUSH1 0x0 REVERT JUMPDEST PUSH1 0x0 SWAP2 DUP3 MSTORE PUSH1 0x20 SWAP1 SWAP2 KECCAK256 PUSH1 0xA SWAP1 SWAP2 MUL ADD SWAP1 POP PUSH1 0x1 DUP2 SLOAD PUSH1 0xFF AND PUSH1 0x1 DUP2 GT ISZERO PUSH2 0x26E3 JUMPI PUSH4 0x4E487B71 PUSH1 0xE0 SHL PUSH1 0x0 MSTORE PUSH1 0x21 PUSH1 0x4 MSTORE PUSH1 0x24 PUSH1 0x0 REVERT JUMPDEST EQ DUP1 PUSH2 0x2716 JUMPI POP DUP5 DUP4 DUP2 MLOAD DUP2 LT PUSH2 0x270A JUMPI PUSH4 0x4E487B71 PUSH1 0xE0 SHL PUSH1 0x0 MSTORE PUSH1 0x32 PUSH1 0x4 MSTORE PUSH1 0x24 PUSH1 0x0 REVERT JUMPDEST PUSH1 0x20 MUL PUSH1 0x20 ADD ADD MLOAD PUSH1 0x1 EQ JUMPDEST PUSH2 0x2732 JUMPI PUSH1 0x40 MLOAD PUSH3 0x461BCD PUSH1 0xE5 SHL DUP2 MSTORE PUSH1 0x4 ADD PUSH2 0x6C9 SWAP1 PUSH2 0x48C2 JUMP JUMPDEST PUSH1 0x5 DUP2 ADD SLOAD PUSH1 0xFF AND ISZERO PUSH2 0x279F JUMPI PUSH1 0x2 DUP2 ADD SLOAD DUP6 MLOAD PUSH2 0x2783 SWAP2 PUSH1 0x1 PUSH1 0x1 PUSH1 0xA0 SHL SUB DUP2 AND SWAP2 PUSH1 0x1 PUSH1 0xA0 SHL SWAP1 SWAP2 DIV PUSH1 0xFF AND SWAP1 CALLER SWAP1 DUP10 SWAP1 DUP9 SWAP1 DUP2 LT PUSH2 0xBB9 JUMPI PUSH4 0x4E487B71 PUSH1 0xE0 SHL PUSH1 0x0 MSTORE PUSH1 0x32 PUSH1 0x4 MSTORE PUSH1 0x24 PUSH1 0x0 REVERT JUMPDEST PUSH2 0x279F JUMPI PUSH1 0x40 MLOAD PUSH3 0x461BCD PUSH1 0xE5 SHL DUP2 MSTORE PUSH1 0x4 ADD PUSH2 0x6C9 SWAP1 PUSH2 0x482A JUMP JUMPDEST DUP1 PUSH1 0x6 ADD SLOAD DUP6 DUP5 DUP2 MLOAD DUP2 LT PUSH2 0x27C4 JUMPI PUSH4 0x4E487B71 PUSH1 0xE0 SHL PUSH1 0x0 MSTORE PUSH1 0x32 PUSH1 0x4 MSTORE PUSH1 0x24 PUSH1 0x0 REVERT JUMPDEST PUSH1 0x20 MUL PUSH1 0x20 ADD ADD MLOAD DUP3 PUSH1 0x7 ADD SLOAD PUSH2 0x27DB SWAP2 SWAP1 PUSH2 0x49B2 JUMP JUMPDEST GT ISZERO PUSH2 0x27F9 JUMPI PUSH1 0x40 MLOAD PUSH3 0x461BCD PUSH1 0xE5 SHL DUP2 MSTORE PUSH1 0x4 ADD PUSH2 0x6C9 SWAP1 PUSH2 0x469A JUMP JUMPDEST DUP1 PUSH1 0x8 ADD SLOAD TIMESTAMP LT ISZERO PUSH2 0x281D JUMPI PUSH1 0x40 MLOAD PUSH3 0x461BCD PUSH1 0xE5 SHL DUP2 MSTORE PUSH1 0x4 ADD PUSH2 0x6C9 SWAP1 PUSH2 0x46D1 JUMP JUMPDEST DUP1 PUSH1 0x9 ADD SLOAD TIMESTAMP LT PUSH2 0x2840 JUMPI PUSH1 0x40 MLOAD PUSH3 0x461BCD PUSH1 0xE5 SHL DUP2 MSTORE PUSH1 0x4 ADD PUSH2 0x6C9 SWAP1 PUSH2 0x4708 JUMP JUMPDEST DUP5 DUP4 DUP2 MLOAD DUP2 LT PUSH2 0x2860 JUMPI PUSH4 0x4E487B71 PUSH1 0xE0 SHL PUSH1 0x0 MSTORE PUSH1 0x32 PUSH1 0x4 MSTORE PUSH1 0x24 PUSH1 0x0 REVERT JUMPDEST PUSH1 0x20 MUL PUSH1 0x20 ADD ADD MLOAD DUP2 PUSH1 0x4 ADD SLOAD PUSH2 0x2877 SWAP2 SWAP1 PUSH2 0x49CA JUMP JUMPDEST PUSH2 0x2881 SWAP1 DUP6 PUSH2 0x49B2 JUMP JUMPDEST SWAP4 POP DUP5 DUP4 DUP2 MLOAD DUP2 LT PUSH2 0x28A3 JUMPI PUSH4 0x4E487B71 PUSH1 0xE0 SHL PUSH1 0x0 MSTORE PUSH1 0x32 PUSH1 0x4 MSTORE PUSH1 0x24 PUSH1 0x0 REVERT JUMPDEST PUSH1 0x20 MUL PUSH1 0x20 ADD ADD MLOAD DUP2 PUSH1 0x7 ADD PUSH1 0x0 DUP3 DUP3 SLOAD PUSH2 0x28BE SWAP2 SWAP1 PUSH2 0x49B2 JUMP JUMPDEST SWAP1 SWAP2 SSTORE POP PUSH1 0x0 SWAP1 POP DUP2 SLOAD PUSH1 0xFF AND PUSH1 0x1 DUP2 GT ISZERO PUSH2 0x28EA JUMPI PUSH4 0x4E487B71 PUSH1 0xE0 SHL PUSH1 0x0 MSTORE PUSH1 0x21 PUSH1 0x4 MSTORE PUSH1 0x24 PUSH1 0x0 REVERT JUMPDEST EQ ISZERO PUSH2 0x2960 JUMPI PUSH1 0x2 DUP2 ADD SLOAD PUSH1 0x1 DUP3 ADD SLOAD PUSH1 0x40 MLOAD PUSH4 0x23B872DD PUSH1 0xE0 SHL DUP2 MSTORE PUSH1 0x1 PUSH1 0x1 PUSH1 0xA0 SHL SUB SWAP1 SWAP3 AND SWAP2 PUSH4 0x23B872DD SWAP2 PUSH2 0x2929 SWAP2 ADDRESS SWAP2 CALLER SWAP2 PUSH1 0x4 ADD PUSH2 0x44F1 JUMP JUMPDEST PUSH1 0x0 PUSH1 0x40 MLOAD DUP1 DUP4 SUB DUP2 PUSH1 0x0 DUP8 DUP1 EXTCODESIZE ISZERO DUP1 ISZERO PUSH2 0x2943 JUMPI PUSH1 0x0 DUP1 REVERT JUMPDEST POP GAS CALL ISZERO DUP1 ISZERO PUSH2 0x2957 JUMPI RETURNDATASIZE PUSH1 0x0 DUP1 RETURNDATACOPY RETURNDATASIZE PUSH1 0x0 REVERT JUMPDEST POP POP POP POP PUSH2 0x2A07 JUMP JUMPDEST DUP1 PUSH1 0x2 ADD PUSH1 0x0 SWAP1 SLOAD SWAP1 PUSH2 0x100 EXP SWAP1 DIV PUSH1 0x1 PUSH1 0x1 PUSH1 0xA0 SHL SUB AND PUSH1 0x1 PUSH1 0x1 PUSH1 0xA0 SHL SUB AND PUSH4 0xF242432A ADDRESS CALLER DUP5 PUSH1 0x1 ADD SLOAD DUP10 DUP9 DUP2 MLOAD DUP2 LT PUSH2 0x29AD JUMPI PUSH4 0x4E487B71 PUSH1 0xE0 SHL PUSH1 0x0 MSTORE PUSH1 0x32 PUSH1 0x4 MSTORE PUSH1 0x24 PUSH1 0x0 REVERT JUMPDEST PUSH1 0x20 MUL PUSH1 0x20 ADD ADD MLOAD PUSH1 0x40 MLOAD DUP6 PUSH4 0xFFFFFFFF AND PUSH1 0xE0 SHL DUP2 MSTORE PUSH1 0x4 ADD PUSH2 0x29D4 SWAP5 SWAP4 SWAP3 SWAP2 SWAP1 PUSH2 0x4515 JUMP JUMPDEST PUSH1 0x0 PUSH1 0x40 MLOAD DUP1 DUP4 SUB DUP2 PUSH1 0x0 DUP8 DUP1 EXTCODESIZE ISZERO DUP1 ISZERO PUSH2 0x29EE JUMPI PUSH1 0x0 DUP1 REVERT JUMPDEST POP GAS CALL ISZERO DUP1 ISZERO PUSH2 0x2A02 JUMPI RETURNDATASIZE PUSH1 0x0 DUP1 RETURNDATACOPY RETURNDATASIZE PUSH1 0x0 REVERT JUMPDEST POP POP POP POP JUMPDEST PUSH1 0x5 DUP2 ADD SLOAD PUSH1 0xFF AND ISZERO PUSH2 0x2AEA JUMPI PUSH1 0x2 DUP2 DUP2 ADD SLOAD PUSH1 0x1 PUSH1 0x1 PUSH1 0xA0 SHL SUB DUP2 AND PUSH1 0x0 SWAP1 DUP2 MSTORE PUSH1 0x20 SWAP3 DUP4 MSTORE PUSH1 0x40 DUP1 DUP3 KECCAK256 PUSH1 0x1 PUSH1 0xA0 SHL SWAP1 SWAP4 DIV PUSH1 0xFF AND DUP3 MSTORE SWAP2 DUP4 MSTORE DUP2 DUP2 KECCAK256 CALLER DUP3 MSTORE SWAP1 SWAP3 MSTORE SWAP1 KECCAK256 DUP6 MLOAD DUP7 SWAP1 DUP6 SWAP1 DUP2 LT PUSH2 0x2A70 JUMPI PUSH4 0x4E487B71 PUSH1 0xE0 SHL PUSH1 0x0 MSTORE PUSH1 0x32 PUSH1 0x4 MSTORE PUSH1 0x24 PUSH1 0x0 REVERT JUMPDEST PUSH1 0x20 MUL PUSH1 0x20 ADD ADD MLOAD DUP2 PUSH1 0x1 ADD SLOAD LT ISZERO PUSH2 0x2A9B JUMPI PUSH1 0x40 MLOAD PUSH3 0x461BCD PUSH1 0xE5 SHL DUP2 MSTORE PUSH1 0x4 ADD PUSH2 0x6C9 SWAP1 PUSH2 0x47A5 JUMP JUMPDEST DUP1 SLOAD PUSH1 0xFF NOT AND PUSH1 0x1 OR DUP2 SSTORE DUP6 MLOAD DUP7 SWAP1 DUP6 SWAP1 DUP2 LT PUSH2 0x2AC8 JUMPI PUSH4 0x4E487B71 PUSH1 0xE0 SHL PUSH1 0x0 MSTORE PUSH1 0x32 PUSH1 0x4 MSTORE PUSH1 0x24 PUSH1 0x0 REVERT JUMPDEST PUSH1 0x20 MUL PUSH1 0x20 ADD ADD MLOAD DUP2 PUSH1 0x1 ADD PUSH1 0x0 DUP3 DUP3 SLOAD PUSH2 0x2AE3 SWAP2 SWAP1 PUSH2 0x49E9 JUMP JUMPDEST SWAP1 SWAP2 SSTORE POP POP POP JUMPDEST PUSH1 0x2 DUP2 ADD SLOAD PUSH1 0x1 DUP3 ADD SLOAD DUP3 SLOAD DUP8 MLOAD PUSH1 0x1 PUSH1 0x1 PUSH1 0xA0 SHL SUB SWAP1 SWAP4 AND SWAP3 PUSH1 0x0 DUP1 MLOAD PUSH1 0x20 PUSH2 0x4A7D DUP4 CODECOPY DUP2 MLOAD SWAP2 MSTORE SWAP2 PUSH1 0xFF AND SWAP1 CALLER SWAP1 DUP11 SWAP1 DUP10 SWAP1 DUP2 LT PUSH2 0x2B3A JUMPI PUSH4 0x4E487B71 PUSH1 0xE0 SHL PUSH1 0x0 MSTORE PUSH1 0x32 PUSH1 0x4 MSTORE PUSH1 0x24 PUSH1 0x0 REVERT JUMPDEST PUSH1 0x20 MUL PUSH1 0x20 ADD ADD MLOAD DUP7 PUSH1 0x4 ADD SLOAD PUSH1 0x40 MLOAD PUSH2 0x2B57 SWAP5 SWAP4 SWAP3 SWAP2 SWAP1 PUSH2 0x45CA JUMP JUMPDEST PUSH1 0x40 MLOAD DUP1 SWAP2 SUB SWAP1 LOG3 POP POP DUP1 DUP1 PUSH2 0x2B6C SWAP1 PUSH2 0x4A00 JUMP JUMPDEST SWAP2 POP POP PUSH2 0x2657 JUMP JUMPDEST POP DUP1 CALLVALUE EQ PUSH2 0x2B94 JUMPI PUSH1 0x40 MLOAD PUSH3 0x461BCD PUSH1 0xE5 SHL DUP2 MSTORE PUSH1 0x4 ADD PUSH2 0x6C9 SWAP1 PUSH2 0x4777 JUMP JUMPDEST POP POP POP POP JUMP JUMPDEST PUSH2 0x2BA2 PUSH2 0x3954 JUMP JUMPDEST PUSH1 0x0 JUMPDEST DUP10 MLOAD DUP2 LT ISZERO PUSH2 0x2EAB JUMPI DUP7 DUP10 PUSH1 0x1 PUSH1 0x1 PUSH1 0xA0 SHL SUB AND PUSH3 0xFDD58E ADDRESS DUP14 DUP6 DUP2 MLOAD DUP2 LT PUSH2 0x2BDE JUMPI PUSH4 0x4E487B71 PUSH1 0xE0 SHL PUSH1 0x0 MSTORE PUSH1 0x32 PUSH1 0x4 MSTORE PUSH1 0x24 PUSH1 0x0 REVERT JUMPDEST PUSH1 0x20 MUL PUSH1 0x20 ADD ADD MLOAD PUSH1 0x40 MLOAD DUP4 PUSH4 0xFFFFFFFF AND PUSH1 0xE0 SHL DUP2 MSTORE PUSH1 0x4 ADD PUSH2 0x2C17 SWAP3 SWAP2 SWAP1 PUSH1 0x1 PUSH1 0x1 PUSH1 0xA0 SHL SUB SWAP3 SWAP1 SWAP3 AND DUP3 MSTORE PUSH1 0x20 DUP3 ADD MSTORE PUSH1 0x40 ADD SWAP1 JUMP JUMPDEST PUSH1 0x20 PUSH1 0x40 MLOAD DUP1 DUP4 SUB DUP2 DUP7 DUP1 EXTCODESIZE ISZERO DUP1 ISZERO PUSH2 0x2C2F JUMPI PUSH1 0x0 DUP1 REVERT JUMPDEST POP GAS STATICCALL ISZERO DUP1 ISZERO PUSH2 0x2C43 JUMPI RETURNDATASIZE PUSH1 0x0 DUP1 RETURNDATACOPY RETURNDATASIZE PUSH1 0x0 REVERT JUMPDEST POP POP POP POP PUSH1 0x40 MLOAD RETURNDATASIZE PUSH1 0x1F NOT PUSH1 0x1F DUP3 ADD AND DUP3 ADD DUP1 PUSH1 0x40 MSTORE POP DUP2 ADD SWAP1 PUSH2 0x2C67 SWAP2 SWAP1 PUSH2 0x43D8 JUMP JUMPDEST LT ISZERO PUSH2 0x2C85 JUMPI PUSH1 0x40 MLOAD PUSH3 0x461BCD PUSH1 0xE5 SHL DUP2 MSTORE PUSH1 0x4 ADD PUSH2 0x6C9 SWAP1 PUSH2 0x4730 JUMP JUMPDEST PUSH2 0x2CA9 DUP10 DUP12 DUP4 DUP2 MLOAD DUP2 LT PUSH2 0x22B6 JUMPI PUSH4 0x4E487B71 PUSH1 0xE0 SHL PUSH1 0x0 MSTORE PUSH1 0x32 PUSH1 0x4 MSTORE PUSH1 0x24 PUSH1 0x0 REVERT JUMPDEST ISZERO PUSH2 0x2CC6 JUMPI PUSH1 0x40 MLOAD PUSH3 0x461BCD PUSH1 0xE5 SHL DUP2 MSTORE PUSH1 0x4 ADD PUSH2 0x6C9 SWAP1 PUSH2 0x47F3 JUMP JUMPDEST PUSH1 0x40 DUP1 MLOAD PUSH2 0x160 DUP2 ADD SWAP1 SWAP2 MSTORE PUSH1 0x1 SWAP1 DUP1 DUP3 DUP2 MSTORE PUSH1 0x20 ADD DUP13 DUP5 DUP2 MLOAD DUP2 LT PUSH2 0x2CFC JUMPI PUSH4 0x4E487B71 PUSH1 0xE0 SHL PUSH1 0x0 MSTORE PUSH1 0x32 PUSH1 0x4 MSTORE PUSH1 0x24 PUSH1 0x0 REVERT JUMPDEST PUSH1 0x20 SWAP1 DUP2 MUL SWAP2 SWAP1 SWAP2 ADD DUP2 ADD MLOAD DUP3 MSTORE PUSH1 0x1 PUSH1 0x1 PUSH1 0xA0 SHL SUB DUP14 AND DUP3 DUP3 ADD MSTORE PUSH1 0xFF DUP13 AND PUSH1 0x40 DUP4 ADD MSTORE PUSH1 0x60 DUP3 ADD DUP12 SWAP1 MSTORE PUSH1 0x80 DUP3 ADD DUP11 SWAP1 MSTORE DUP9 ISZERO ISZERO PUSH1 0xA0 DUP4 ADD MSTORE PUSH1 0xC0 DUP3 ADD DUP9 SWAP1 MSTORE PUSH1 0x0 PUSH1 0xE0 DUP4 ADD DUP2 SWAP1 MSTORE PUSH2 0x100 DUP4 ADD DUP9 SWAP1 MSTORE PUSH2 0x120 SWAP1 SWAP3 ADD DUP7 SWAP1 MSTORE DUP4 SLOAD PUSH1 0x1 DUP2 DUP2 ADD DUP7 SSTORE SWAP5 DUP4 MSTORE SWAP2 KECCAK256 DUP3 MLOAD PUSH1 0xA SWAP1 SWAP3 MUL ADD DUP1 SLOAD SWAP3 SWAP4 SWAP1 SWAP3 DUP4 SWAP2 PUSH1 0xFF NOT SWAP2 SWAP1 SWAP2 AND SWAP1 DUP4 DUP2 DUP2 GT ISZERO PUSH2 0x2D9D JUMPI PUSH4 0x4E487B71 PUSH1 0xE0 SHL PUSH1 0x0 MSTORE PUSH1 0x21 PUSH1 0x4 MSTORE PUSH1 0x24 PUSH1 0x0 REVERT JUMPDEST MUL OR SWAP1 SSTORE POP PUSH1 0x20 DUP3 ADD MLOAD PUSH1 0x1 DUP3 ADD SSTORE PUSH1 0x40 DUP3 ADD MLOAD PUSH1 0x2 DUP3 ADD DUP1 SLOAD PUSH1 0x60 DUP6 ADD MLOAD PUSH1 0xFF AND PUSH1 0x1 PUSH1 0xA0 SHL MUL PUSH1 0x1 PUSH1 0x1 PUSH1 0xA8 SHL SUB NOT SWAP1 SWAP2 AND PUSH1 0x1 PUSH1 0x1 PUSH1 0xA0 SHL SUB SWAP4 DUP5 AND OR OR SWAP1 SSTORE PUSH1 0x80 DUP4 ADD MLOAD PUSH1 0x3 DUP4 ADD SSTORE PUSH1 0xA0 DUP4 ADD MLOAD PUSH1 0x4 DUP4 ADD SSTORE PUSH1 0xC0 DUP4 ADD MLOAD PUSH1 0x5 DUP4 ADD DUP1 SLOAD SWAP2 ISZERO ISZERO PUSH1 0xFF NOT SWAP1 SWAP3 AND SWAP2 SWAP1 SWAP2 OR SWAP1 SSTORE PUSH1 0xE0 DUP4 ADD MLOAD PUSH1 0x6 DUP4 ADD SSTORE PUSH2 0x100 DUP4 ADD MLOAD PUSH1 0x7 DUP4 ADD SSTORE PUSH2 0x120 DUP4 ADD MLOAD PUSH1 0x8 DUP4 ADD SSTORE PUSH2 0x140 SWAP1 SWAP3 ADD MLOAD PUSH1 0x9 SWAP1 SWAP2 ADD SSTORE DUP11 MLOAD SWAP1 DUP11 AND SWAP1 DUP12 SWAP1 DUP4 SWAP1 DUP2 LT PUSH2 0x2E61 JUMPI PUSH4 0x4E487B71 PUSH1 0xE0 SHL PUSH1 0x0 MSTORE PUSH1 0x32 PUSH1 0x4 MSTORE PUSH1 0x24 PUSH1 0x0 REVERT JUMPDEST PUSH1 0x20 MUL PUSH1 0x20 ADD ADD MLOAD PUSH1 0x0 DUP1 MLOAD PUSH1 0x20 PUSH2 0x4A9D DUP4 CODECOPY DUP2 MLOAD SWAP2 MSTORE PUSH1 0x1 DUP10 DUP10 DUP10 DUP10 DUP10 PUSH1 0x40 MLOAD PUSH2 0x2E91 SWAP7 SWAP6 SWAP5 SWAP4 SWAP3 SWAP2 SWAP1 PUSH2 0x4664 JUMP JUMPDEST PUSH1 0x40 MLOAD DUP1 SWAP2 SUB SWAP1 LOG3 DUP1 PUSH2 0x2EA3 DUP2 PUSH2 0x4A00 JUMP JUMPDEST SWAP2 POP POP PUSH2 0x2BA5 JUMP JUMPDEST POP POP POP POP POP POP POP POP POP POP JUMP JUMPDEST PUSH1 0x1 PUSH1 0x1 PUSH1 0xA0 SHL SUB DUP1 DUP5 AND PUSH1 0x0 SWAP1 DUP2 MSTORE PUSH1 0x2 PUSH1 0x20 SWAP1 DUP2 MSTORE PUSH1 0x40 DUP1 DUP4 KECCAK256 PUSH1 0xFF DUP1 DUP9 AND DUP6 MSTORE SWAP1 DUP4 MSTORE DUP2 DUP5 KECCAK256 SWAP5 DUP7 AND DUP5 MSTORE SWAP4 DUP3 MSTORE DUP1 DUP4 KECCAK256 DUP2 MLOAD DUP1 DUP4 ADD SWAP1 SWAP3 MSTORE DUP1 SLOAD SWAP1 SWAP5 AND ISZERO ISZERO DUP1 DUP3 MSTORE PUSH1 0x1 SWAP1 SWAP5 ADD SLOAD SWAP2 DUP2 ADD SWAP2 SWAP1 SWAP2 MSTORE SWAP1 SWAP2 DUP3 SWAP2 SWAP1 DUP1 PUSH2 0x2F1B JUMPI PUSH1 0x0 PUSH2 0x2F21 JUMP JUMPDEST DUP2 PUSH1 0x20 ADD MLOAD JUMPDEST SWAP3 POP SWAP3 POP POP SWAP4 POP SWAP4 SWAP2 POP POP JUMP JUMPDEST PUSH2 0x2F36 PUSH2 0x3954 JUMP JUMPDEST PUSH1 0x1 SLOAD DUP8 LT PUSH2 0x2F57 JUMPI PUSH1 0x40 MLOAD PUSH3 0x461BCD PUSH1 0xE5 SHL DUP2 MSTORE PUSH1 0x4 ADD PUSH2 0x6C9 SWAP1 PUSH2 0x4896 JUMP JUMPDEST PUSH1 0x0 PUSH1 0x1 DUP9 DUP2 SLOAD DUP2 LT PUSH2 0x2F7A JUMPI PUSH4 0x4E487B71 PUSH1 0xE0 SHL PUSH1 0x0 MSTORE PUSH1 0x32 PUSH1 0x4 MSTORE PUSH1 0x24 PUSH1 0x0 REVERT JUMPDEST PUSH1 0x0 SWAP2 DUP3 MSTORE PUSH1 0x20 DUP3 KECCAK256 PUSH1 0xA SWAP1 SWAP2 MUL ADD SWAP2 POP DUP2 SLOAD PUSH1 0xFF AND PUSH1 0x1 DUP2 GT ISZERO PUSH2 0x2FAF JUMPI PUSH4 0x4E487B71 PUSH1 0xE0 SHL PUSH1 0x0 MSTORE PUSH1 0x21 PUSH1 0x4 MSTORE PUSH1 0x24 PUSH1 0x0 REVERT JUMPDEST EQ PUSH2 0x2FFC JUMPI PUSH1 0x40 MLOAD PUSH3 0x461BCD PUSH1 0xE5 SHL DUP2 MSTORE PUSH1 0x20 PUSH1 0x4 DUP3 ADD MSTORE PUSH1 0x1C PUSH1 0x24 DUP3 ADD MSTORE PUSH32 0x546F6B656E206D757374206265206F6620747970652045524337323100000000 PUSH1 0x44 DUP3 ADD MSTORE PUSH1 0x64 ADD PUSH2 0x6C9 JUMP JUMPDEST PUSH1 0x4 DUP2 ADD DUP7 SWAP1 SSTORE PUSH1 0x5 DUP2 ADD DUP1 SLOAD PUSH1 0xFF NOT AND DUP7 ISZERO ISZERO OR SWAP1 SSTORE PUSH1 0x6 DUP2 ADD DUP5 SWAP1 SSTORE PUSH1 0x8 DUP2 ADD DUP4 SWAP1 SSTORE PUSH1 0x9 DUP2 ADD DUP3 SWAP1 SSTORE PUSH1 0x2 DUP2 ADD DUP1 SLOAD PUSH1 0xFF PUSH1 0xA0 SHL NOT DUP2 AND PUSH1 0x1 PUSH1 0xA0 SHL PUSH1 0xFF DUP12 AND MUL SWAP1 DUP2 OR SWAP1 SWAP3 SSTORE PUSH1 0x1 DUP4 ADD SLOAD PUSH1 0x40 MLOAD PUSH1 0x1 PUSH1 0x1 PUSH1 0xA0 SHL SUB SWAP3 DUP4 AND SWAP3 SWAP1 SWAP4 AND SWAP2 SWAP1 SWAP2 OR SWAP2 PUSH1 0x0 DUP1 MLOAD PUSH1 0x20 PUSH2 0x4A9D DUP4 CODECOPY DUP2 MLOAD SWAP2 MSTORE SWAP1 PUSH2 0x124A SWAP1 PUSH1 0x0 SWAP1 DUP12 SWAP1 DUP12 SWAP1 DUP12 SWAP1 DUP12 SWAP1 DUP12 SWAP1 PUSH2 0x4664 JUMP JUMPDEST PUSH1 0x0 DUP1 JUMPDEST PUSH1 0x1 SLOAD DUP2 LT ISZERO PUSH2 0x3111 JUMPI PUSH1 0x0 PUSH1 0x1 DUP3 DUP2 SLOAD DUP2 LT PUSH2 0x30B9 JUMPI PUSH4 0x4E487B71 PUSH1 0xE0 SHL PUSH1 0x0 MSTORE PUSH1 0x32 PUSH1 0x4 MSTORE PUSH1 0x24 PUSH1 0x0 REVERT JUMPDEST PUSH1 0x0 SWAP2 DUP3 MSTORE PUSH1 0x20 SWAP1 SWAP2 KECCAK256 PUSH1 0xA SWAP1 SWAP2 MUL ADD PUSH1 0x2 DUP2 ADD SLOAD SWAP1 SWAP2 POP PUSH1 0x1 PUSH1 0x1 PUSH1 0xA0 SHL SUB DUP7 DUP2 AND SWAP2 AND EQ DUP1 ISZERO PUSH2 0x30EE JUMPI POP DUP4 DUP2 PUSH1 0x1 ADD SLOAD EQ JUMPDEST ISZERO PUSH2 0x30FE JUMPI PUSH1 0x1 SWAP3 POP POP POP PUSH2 0x6A2 JUMP JUMPDEST POP DUP1 PUSH2 0x3109 DUP2 PUSH2 0x4A00 JUMP JUMPDEST SWAP2 POP POP PUSH2 0x308C JUMP JUMPDEST POP PUSH1 0x0 SWAP4 SWAP3 POP POP POP JUMP JUMPDEST PUSH2 0x3123 PUSH2 0x3954 JUMP JUMPDEST PUSH1 0x1 SLOAD DUP8 LT PUSH2 0x3144 JUMPI PUSH1 0x40 MLOAD PUSH3 0x461BCD PUSH1 0xE5 SHL DUP2 MSTORE PUSH1 0x4 ADD PUSH2 0x6C9 SWAP1 PUSH2 0x4896 JUMP JUMPDEST PUSH1 0x0 PUSH1 0x1 DUP9 DUP2 SLOAD DUP2 LT PUSH2 0x3167 JUMPI PUSH4 0x4E487B71 PUSH1 0xE0 SHL PUSH1 0x0 MSTORE PUSH1 0x32 PUSH1 0x4 MSTORE PUSH1 0x24 PUSH1 0x0 REVERT JUMPDEST PUSH1 0x0 SWAP2 DUP3 MSTORE PUSH1 0x20 SWAP1 SWAP2 KECCAK256 PUSH1 0xA SWAP1 SWAP2 MUL ADD SWAP1 POP PUSH1 0x1 DUP2 SLOAD PUSH1 0xFF AND PUSH1 0x1 DUP2 GT ISZERO PUSH2 0x319F JUMPI PUSH4 0x4E487B71 PUSH1 0xE0 SHL PUSH1 0x0 MSTORE PUSH1 0x21 PUSH1 0x4 MSTORE PUSH1 0x24 PUSH1 0x0 REVERT JUMPDEST EQ PUSH2 0x31EC JUMPI PUSH1 0x40 MLOAD PUSH3 0x461BCD PUSH1 0xE5 SHL DUP2 MSTORE PUSH1 0x20 PUSH1 0x4 DUP3 ADD MSTORE PUSH1 0x1D PUSH1 0x24 DUP3 ADD MSTORE PUSH32 0x546F6B656E206D757374206265206F6620747970652045524331313535000000 PUSH1 0x44 DUP3 ADD MSTORE PUSH1 0x64 ADD PUSH2 0x6C9 JUMP JUMPDEST PUSH1 0x4 DUP2 ADD DUP7 SWAP1 SSTORE PUSH1 0x5 DUP2 ADD DUP1 SLOAD PUSH1 0xFF NOT AND DUP7 ISZERO ISZERO OR SWAP1 SSTORE PUSH1 0x6 DUP2 ADD DUP5 SWAP1 SSTORE PUSH1 0x8 DUP2 ADD DUP4 SWAP1 SSTORE PUSH1 0x9 DUP2 ADD DUP3 SWAP1 SSTORE PUSH1 0x2 DUP2 ADD DUP1 SLOAD PUSH1 0xFF PUSH1 0xA0 SHL NOT DUP2 AND PUSH1 0x1 PUSH1 0xA0 SHL PUSH1 0xFF DUP12 AND MUL SWAP1 DUP2 OR SWAP1 SWAP3 SSTORE PUSH1 0x1 DUP1 DUP5 ADD SLOAD PUSH1 0x40 MLOAD PUSH1 0x1 PUSH1 0x1 PUSH1 0xA0 SHL SUB SWAP4 DUP5 AND SWAP4 SWAP1 SWAP5 AND SWAP3 SWAP1 SWAP3 OR SWAP3 PUSH1 0x0 DUP1 MLOAD PUSH1 0x20 PUSH2 0x4A9D DUP4 CODECOPY DUP2 MLOAD SWAP2 MSTORE SWAP2 PUSH2 0x124A SWAP2 DUP12 SWAP1 DUP12 SWAP1 DUP12 SWAP1 DUP12 SWAP1 DUP12 SWAP1 PUSH2 0x4664 JUMP JUMPDEST PUSH1 0x0 PUSH2 0x3282 DUP5 DUP5 PUSH2 0x39AE JUMP JUMPDEST SWAP1 POP PUSH1 0x0 PUSH1 0x1 DUP3 DUP2 SLOAD DUP2 LT PUSH2 0x32A7 JUMPI PUSH4 0x4E487B71 PUSH1 0xE0 SHL PUSH1 0x0 MSTORE PUSH1 0x32 PUSH1 0x4 MSTORE PUSH1 0x24 PUSH1 0x0 REVERT JUMPDEST PUSH1 0x0 SWAP2 DUP3 MSTORE PUSH1 0x20 SWAP1 SWAP2 KECCAK256 PUSH1 0xA SWAP1 SWAP2 MUL ADD SWAP1 POP PUSH1 0x1 DUP2 SLOAD PUSH1 0xFF AND PUSH1 0x1 DUP2 GT ISZERO PUSH2 0x32DF JUMPI PUSH4 0x4E487B71 PUSH1 0xE0 SHL PUSH1 0x0 MSTORE PUSH1 0x21 PUSH1 0x4 MSTORE PUSH1 0x24 PUSH1 0x0 REVERT JUMPDEST EQ DUP1 PUSH2 0x32EB JUMPI POP DUP3 PUSH1 0x1 EQ JUMPDEST PUSH2 0x3307 JUMPI PUSH1 0x40 MLOAD PUSH3 0x461BCD PUSH1 0xE5 SHL DUP2 MSTORE PUSH1 0x4 ADD PUSH2 0x6C9 SWAP1 PUSH2 0x48C2 JUMP JUMPDEST PUSH1 0x5 DUP2 ADD SLOAD PUSH1 0xFF AND ISZERO PUSH2 0x3355 JUMPI PUSH1 0x2 DUP2 ADD SLOAD PUSH2 0x3339 SWAP1 PUSH1 0x1 PUSH1 0x1 PUSH1 0xA0 SHL SUB DUP2 AND SWAP1 PUSH1 0x1 PUSH1 0xA0 SHL SWAP1 DIV PUSH1 0xFF AND CALLER DUP7 PUSH2 0x38D4 JUMP JUMPDEST PUSH2 0x3355 JUMPI PUSH1 0x40 MLOAD PUSH3 0x461BCD PUSH1 0xE5 SHL DUP2 MSTORE PUSH1 0x4 ADD PUSH2 0x6C9 SWAP1 PUSH2 0x482A JUMP JUMPDEST DUP1 PUSH1 0x6 ADD SLOAD DUP4 DUP3 PUSH1 0x7 ADD SLOAD PUSH2 0x336A SWAP2 SWAP1 PUSH2 0x49B2 JUMP JUMPDEST GT ISZERO PUSH2 0x3388 JUMPI PUSH1 0x40 MLOAD PUSH3 0x461BCD PUSH1 0xE5 SHL DUP2 MSTORE PUSH1 0x4 ADD PUSH2 0x6C9 SWAP1 PUSH2 0x469A JUMP JUMPDEST DUP1 PUSH1 0x8 ADD SLOAD TIMESTAMP LT ISZERO PUSH2 0x33AC JUMPI PUSH1 0x40 MLOAD PUSH3 0x461BCD PUSH1 0xE5 SHL DUP2 MSTORE PUSH1 0x4 ADD PUSH2 0x6C9 SWAP1 PUSH2 0x46D1 JUMP JUMPDEST DUP1 PUSH1 0x9 ADD SLOAD TIMESTAMP LT PUSH2 0x33CF JUMPI PUSH1 0x40 MLOAD PUSH3 0x461BCD PUSH1 0xE5 SHL DUP2 MSTORE PUSH1 0x4 ADD PUSH2 0x6C9 SWAP1 PUSH2 0x4708 JUMP JUMPDEST DUP3 DUP2 PUSH1 0x4 ADD SLOAD PUSH2 0x33DF SWAP2 SWAP1 PUSH2 0x49CA JUMP JUMPDEST CALLVALUE EQ PUSH2 0x33FD JUMPI PUSH1 0x40 MLOAD PUSH3 0x461BCD PUSH1 0xE5 SHL DUP2 MSTORE PUSH1 0x4 ADD PUSH2 0x6C9 SWAP1 PUSH2 0x4777 JUMP JUMPDEST DUP3 DUP2 PUSH1 0x7 ADD PUSH1 0x0 DUP3 DUP3 SLOAD PUSH2 0x3411 SWAP2 SWAP1 PUSH2 0x49B2 JUMP JUMPDEST SWAP1 SWAP2 SSTORE POP PUSH1 0x0 SWAP1 POP DUP2 SLOAD PUSH1 0xFF AND PUSH1 0x1 DUP2 GT ISZERO PUSH2 0x343D JUMPI PUSH4 0x4E487B71 PUSH1 0xE0 SHL PUSH1 0x0 MSTORE PUSH1 0x21 PUSH1 0x4 MSTORE PUSH1 0x24 PUSH1 0x0 REVERT JUMPDEST EQ ISZERO PUSH2 0x34B3 JUMPI PUSH1 0x2 DUP2 ADD SLOAD PUSH1 0x1 DUP3 ADD SLOAD PUSH1 0x40 MLOAD PUSH4 0x23B872DD PUSH1 0xE0 SHL DUP2 MSTORE PUSH1 0x1 PUSH1 0x1 PUSH1 0xA0 SHL SUB SWAP1 SWAP3 AND SWAP2 PUSH4 0x23B872DD SWAP2 PUSH2 0x347C SWAP2 ADDRESS SWAP2 CALLER SWAP2 PUSH1 0x4 ADD PUSH2 0x44F1 JUMP JUMPDEST PUSH1 0x0 PUSH1 0x40 MLOAD DUP1 DUP4 SUB DUP2 PUSH1 0x0 DUP8 DUP1 EXTCODESIZE ISZERO DUP1 ISZERO PUSH2 0x3496 JUMPI PUSH1 0x0 DUP1 REVERT JUMPDEST POP GAS CALL ISZERO DUP1 ISZERO PUSH2 0x34AA JUMPI RETURNDATASIZE PUSH1 0x0 DUP1 RETURNDATACOPY RETURNDATASIZE PUSH1 0x0 REVERT JUMPDEST POP POP POP POP PUSH2 0x3521 JUMP JUMPDEST PUSH1 0x2 DUP2 ADD SLOAD PUSH1 0x1 DUP3 ADD SLOAD PUSH1 0x40 MLOAD PUSH4 0x79212195 PUSH1 0xE1 SHL DUP2 MSTORE PUSH1 0x1 PUSH1 0x1 PUSH1 0xA0 SHL SUB SWAP1 SWAP3 AND SWAP2 PUSH4 0xF242432A SWAP2 PUSH2 0x34EE SWAP2 ADDRESS SWAP2 CALLER SWAP2 DUP10 SWAP1 PUSH1 0x4 ADD PUSH2 0x4515 JUMP JUMPDEST PUSH1 0x0 PUSH1 0x40 MLOAD DUP1 DUP4 SUB DUP2 PUSH1 0x0 DUP8 DUP1 EXTCODESIZE ISZERO DUP1 ISZERO PUSH2 0x3508 JUMPI PUSH1 0x0 DUP1 REVERT JUMPDEST POP GAS CALL ISZERO DUP1 ISZERO PUSH2 0x351C JUMPI RETURNDATASIZE PUSH1 0x0 DUP1 RETURNDATACOPY RETURNDATASIZE PUSH1 0x0 REVERT JUMPDEST POP POP POP POP JUMPDEST PUSH1 0x5 DUP2 ADD SLOAD PUSH1 0xFF AND ISZERO PUSH2 0x35B5 JUMPI PUSH1 0x2 DUP2 DUP2 ADD SLOAD PUSH1 0x1 PUSH1 0x1 PUSH1 0xA0 SHL SUB DUP2 AND PUSH1 0x0 SWAP1 DUP2 MSTORE PUSH1 0x20 SWAP3 DUP4 MSTORE PUSH1 0x40 DUP1 DUP3 KECCAK256 PUSH1 0x1 PUSH1 0xA0 SHL SWAP1 SWAP4 DIV PUSH1 0xFF AND DUP3 MSTORE SWAP2 DUP4 MSTORE DUP2 DUP2 KECCAK256 CALLER DUP3 MSTORE SWAP1 SWAP3 MSTORE SWAP1 KECCAK256 PUSH1 0x1 DUP2 ADD SLOAD DUP5 GT ISZERO PUSH2 0x358C JUMPI PUSH1 0x40 MLOAD PUSH3 0x461BCD PUSH1 0xE5 SHL DUP2 MSTORE PUSH1 0x4 ADD PUSH2 0x6C9 SWAP1 PUSH2 0x47A5 JUMP JUMPDEST DUP1 SLOAD PUSH1 0xFF NOT AND PUSH1 0x1 SWAP1 DUP2 OR DUP3 SSTORE DUP2 ADD DUP1 SLOAD DUP6 SWAP2 SWAP1 PUSH1 0x0 SWAP1 PUSH2 0x35AE SWAP1 DUP5 SWAP1 PUSH2 0x49E9 JUMP JUMPDEST SWAP1 SWAP2 SSTORE POP POP POP JUMPDEST PUSH1 0x2 DUP2 ADD SLOAD PUSH1 0x1 DUP3 ADD SLOAD DUP3 SLOAD PUSH1 0x4 DUP5 ADD SLOAD PUSH1 0x40 MLOAD PUSH1 0x1 PUSH1 0x1 PUSH1 0xA0 SHL SUB SWAP1 SWAP5 AND SWAP4 PUSH1 0x0 DUP1 MLOAD PUSH1 0x20 PUSH2 0x4A7D DUP4 CODECOPY DUP2 MLOAD SWAP2 MSTORE SWAP3 PUSH2 0x35F8 SWAP3 PUSH1 0xFF SWAP1 SWAP2 AND SWAP2 CALLER SWAP2 DUP11 SWAP2 PUSH2 0x45CA JUMP JUMPDEST PUSH1 0x40 MLOAD DUP1 SWAP2 SUB SWAP1 LOG3 POP POP POP POP POP JUMP JUMPDEST PUSH1 0x60 DUP1 PUSH1 0x0 DUP1 JUMPDEST PUSH1 0x1 SLOAD DUP2 LT ISZERO PUSH2 0x36A3 JUMPI PUSH1 0x0 PUSH1 0x1 DUP3 DUP2 SLOAD DUP2 LT PUSH2 0x363B JUMPI PUSH4 0x4E487B71 PUSH1 0xE0 SHL PUSH1 0x0 MSTORE PUSH1 0x32 PUSH1 0x4 MSTORE PUSH1 0x24 PUSH1 0x0 REVERT JUMPDEST PUSH1 0x0 SWAP2 DUP3 MSTORE PUSH1 0x20 SWAP1 SWAP2 KECCAK256 PUSH1 0xA SWAP1 SWAP2 MUL ADD PUSH1 0x2 DUP2 ADD SLOAD SWAP1 SWAP2 POP PUSH1 0x1 PUSH1 0x1 PUSH1 0xA0 SHL SUB DUP9 DUP2 AND SWAP2 AND EQ DUP1 ISZERO PUSH2 0x367D JUMPI POP PUSH1 0x2 DUP2 ADD SLOAD PUSH1 0xFF DUP8 DUP2 AND PUSH1 0x1 PUSH1 0xA0 SHL SWAP1 SWAP3 DIV AND EQ JUMPDEST ISZERO PUSH2 0x3690 JUMPI DUP3 PUSH2 0x368C DUP2 PUSH2 0x4A00 JUMP JUMPDEST SWAP4 POP POP JUMPDEST POP DUP1 PUSH2 0x369B DUP2 PUSH2 0x4A00 JUMP JUMPDEST SWAP2 POP POP PUSH2 0x360E JUMP JUMPDEST POP PUSH1 0x0 DUP2 PUSH1 0x1 PUSH1 0x1 PUSH1 0x40 SHL SUB DUP2 GT ISZERO PUSH2 0x36CC JUMPI PUSH4 0x4E487B71 PUSH1 0xE0 SHL PUSH1 0x0 MSTORE PUSH1 0x41 PUSH1 0x4 MSTORE PUSH1 0x24 PUSH1 0x0 REVERT JUMPDEST PUSH1 0x40 MLOAD SWAP1 DUP1 DUP3 MSTORE DUP1 PUSH1 0x20 MUL PUSH1 0x20 ADD DUP3 ADD PUSH1 0x40 MSTORE DUP1 ISZERO PUSH2 0x36F5 JUMPI DUP2 PUSH1 0x20 ADD PUSH1 0x20 DUP3 MUL DUP1 CALLDATASIZE DUP4 CALLDATACOPY ADD SWAP1 POP JUMPDEST POP SWAP1 POP PUSH1 0x0 DUP3 PUSH1 0x1 PUSH1 0x1 PUSH1 0x40 SHL SUB DUP2 GT ISZERO PUSH2 0x3720 JUMPI PUSH4 0x4E487B71 PUSH1 0xE0 SHL PUSH1 0x0 MSTORE PUSH1 0x41 PUSH1 0x4 MSTORE PUSH1 0x24 PUSH1 0x0 REVERT JUMPDEST PUSH1 0x40 MLOAD SWAP1 DUP1 DUP3 MSTORE DUP1 PUSH1 0x20 MUL PUSH1 0x20 ADD DUP3 ADD PUSH1 0x40 MSTORE DUP1 ISZERO PUSH2 0x3749 JUMPI DUP2 PUSH1 0x20 ADD PUSH1 0x20 DUP3 MUL DUP1 CALLDATASIZE DUP4 CALLDATACOPY ADD SWAP1 POP JUMPDEST POP SWAP1 POP PUSH1 0x0 DUP1 JUMPDEST PUSH1 0x1 SLOAD DUP2 LT ISZERO PUSH2 0x384E JUMPI PUSH1 0x0 PUSH1 0x1 DUP3 DUP2 SLOAD DUP2 LT PUSH2 0x377D JUMPI PUSH4 0x4E487B71 PUSH1 0xE0 SHL PUSH1 0x0 MSTORE PUSH1 0x32 PUSH1 0x4 MSTORE PUSH1 0x24 PUSH1 0x0 REVERT JUMPDEST PUSH1 0x0 SWAP2 DUP3 MSTORE PUSH1 0x20 SWAP1 SWAP2 KECCAK256 PUSH1 0xA SWAP1 SWAP2 MUL ADD PUSH1 0x2 DUP2 ADD SLOAD SWAP1 SWAP2 POP PUSH1 0x1 PUSH1 0x1 PUSH1 0xA0 SHL SUB DUP12 DUP2 AND SWAP2 AND EQ DUP1 ISZERO PUSH2 0x37BF JUMPI POP PUSH1 0x2 DUP2 ADD SLOAD PUSH1 0xFF DUP11 DUP2 AND PUSH1 0x1 PUSH1 0xA0 SHL SWAP1 SWAP3 DIV AND EQ JUMPDEST ISZERO PUSH2 0x383B JUMPI DUP1 PUSH1 0x1 ADD SLOAD DUP6 DUP5 DUP2 MLOAD DUP2 LT PUSH2 0x37E9 JUMPI PUSH4 0x4E487B71 PUSH1 0xE0 SHL PUSH1 0x0 MSTORE PUSH1 0x32 PUSH1 0x4 MSTORE PUSH1 0x24 PUSH1 0x0 REVERT JUMPDEST PUSH1 0x20 MUL PUSH1 0x20 ADD ADD DUP2 DUP2 MSTORE POP POP PUSH1 0x0 DUP2 PUSH1 0x7 ADD SLOAD GT DUP5 DUP5 DUP2 MLOAD DUP2 LT PUSH2 0x381D JUMPI PUSH4 0x4E487B71 PUSH1 0xE0 SHL PUSH1 0x0 MSTORE PUSH1 0x32 PUSH1 0x4 MSTORE PUSH1 0x24 PUSH1 0x0 REVERT JUMPDEST SWAP2 ISZERO ISZERO PUSH1 0x20 SWAP3 DUP4 MUL SWAP2 SWAP1 SWAP2 ADD SWAP1 SWAP2 ADD MSTORE DUP3 PUSH2 0x3837 DUP2 PUSH2 0x4A00 JUMP JUMPDEST SWAP4 POP POP JUMPDEST POP DUP1 PUSH2 0x3846 DUP2 PUSH2 0x4A00 JUMP JUMPDEST SWAP2 POP POP PUSH2 0x3750 JUMP JUMPDEST POP SWAP2 SWAP5 POP SWAP3 POP POP POP JUMPDEST SWAP3 POP SWAP3 SWAP1 POP JUMP JUMPDEST PUSH2 0x3866 PUSH2 0x3954 JUMP JUMPDEST PUSH1 0x1 PUSH1 0x1 PUSH1 0xA0 SHL SUB DUP2 AND PUSH2 0x38CB JUMPI PUSH1 0x40 MLOAD PUSH3 0x461BCD PUSH1 0xE5 SHL DUP2 MSTORE PUSH1 0x20 PUSH1 0x4 DUP3 ADD MSTORE PUSH1 0x26 PUSH1 0x24 DUP3 ADD MSTORE PUSH32 0x4F776E61626C653A206E6577206F776E657220697320746865207A65726F2061 PUSH1 0x44 DUP3 ADD MSTORE PUSH6 0x646472657373 PUSH1 0xD0 SHL PUSH1 0x64 DUP3 ADD MSTORE PUSH1 0x84 ADD PUSH2 0x6C9 JUMP JUMPDEST PUSH2 0xA95 DUP2 PUSH2 0x3B18 JUMP JUMPDEST PUSH1 0x1 PUSH1 0x1 PUSH1 0xA0 SHL SUB DUP1 DUP6 AND PUSH1 0x0 SWAP1 DUP2 MSTORE PUSH1 0x2 PUSH1 0x20 SWAP1 DUP2 MSTORE PUSH1 0x40 DUP1 DUP4 KECCAK256 PUSH1 0xFF DUP1 DUP10 AND DUP6 MSTORE SWAP1 DUP4 MSTORE DUP2 DUP5 KECCAK256 SWAP5 DUP8 AND DUP5 MSTORE SWAP4 SWAP1 SWAP2 MSTORE DUP2 KECCAK256 SLOAD SWAP1 SWAP2 AND ISZERO DUP1 PUSH2 0x394B JUMPI POP PUSH1 0x1 PUSH1 0x1 PUSH1 0xA0 SHL SUB DUP1 DUP7 AND PUSH1 0x0 SWAP1 DUP2 MSTORE PUSH1 0x2 PUSH1 0x20 SWAP1 DUP2 MSTORE PUSH1 0x40 DUP1 DUP4 KECCAK256 PUSH1 0xFF DUP10 AND DUP5 MSTORE DUP3 MSTORE DUP1 DUP4 KECCAK256 SWAP4 DUP8 AND DUP4 MSTORE SWAP3 SWAP1 MSTORE KECCAK256 PUSH1 0x1 ADD SLOAD DUP3 GT ISZERO JUMPDEST SWAP6 SWAP5 POP POP POP POP POP JUMP JUMPDEST PUSH1 0x0 SLOAD PUSH1 0x1 PUSH1 0x1 PUSH1 0xA0 SHL SUB AND CALLER EQ PUSH2 0x21A7 JUMPI PUSH1 0x40 MLOAD PUSH3 0x461BCD PUSH1 0xE5 SHL DUP2 MSTORE PUSH1 0x20 PUSH1 0x4 DUP3 ADD DUP2 SWAP1 MSTORE PUSH1 0x24 DUP3 ADD MSTORE PUSH32 0x4F776E61626C653A2063616C6C6572206973206E6F7420746865206F776E6572 PUSH1 0x44 DUP3 ADD MSTORE PUSH1 0x64 ADD PUSH2 0x6C9 JUMP JUMPDEST PUSH1 0x0 DUP1 JUMPDEST PUSH1 0x1 SLOAD DUP2 LT ISZERO PUSH2 0x3A34 JUMPI PUSH1 0x0 PUSH1 0x1 DUP3 DUP2 SLOAD DUP2 LT PUSH2 0x39DF JUMPI PUSH4 0x4E487B71 PUSH1 0xE0 SHL PUSH1 0x0 MSTORE PUSH1 0x32 PUSH1 0x4 MSTORE PUSH1 0x24 PUSH1 0x0 REVERT JUMPDEST PUSH1 0x0 SWAP2 DUP3 MSTORE PUSH1 0x20 SWAP1 SWAP2 KECCAK256 PUSH1 0xA SWAP1 SWAP2 MUL ADD PUSH1 0x2 DUP2 ADD SLOAD SWAP1 SWAP2 POP PUSH1 0x1 PUSH1 0x1 PUSH1 0xA0 SHL SUB DUP7 DUP2 AND SWAP2 AND EQ DUP1 ISZERO PUSH2 0x3A14 JUMPI POP DUP4 DUP2 PUSH1 0x1 ADD SLOAD EQ JUMPDEST ISZERO PUSH2 0x3A21 JUMPI POP SWAP1 POP PUSH2 0x6A2 JUMP JUMPDEST POP DUP1 PUSH2 0x3A2C DUP2 PUSH2 0x4A00 JUMP JUMPDEST SWAP2 POP POP PUSH2 0x39B2 JUMP JUMPDEST POP PUSH1 0x40 MLOAD PUSH3 0x461BCD PUSH1 0xE5 SHL DUP2 MSTORE PUSH1 0x20 PUSH1 0x4 DUP3 ADD MSTORE PUSH1 0xF PUSH1 0x24 DUP3 ADD MSTORE PUSH15 0x151BDAD95B881B9BDD08199BDD5B99 PUSH1 0x8A SHL PUSH1 0x44 DUP3 ADD MSTORE PUSH1 0x64 ADD PUSH2 0x6C9 JUMP JUMPDEST PUSH1 0x0 DUP1 JUMPDEST PUSH1 0x1 SLOAD DUP2 LT ISZERO PUSH2 0x3A34 JUMPI PUSH1 0x0 PUSH1 0x1 DUP3 DUP2 SLOAD DUP2 LT PUSH2 0x3AA0 JUMPI PUSH4 0x4E487B71 PUSH1 0xE0 SHL PUSH1 0x0 MSTORE PUSH1 0x32 PUSH1 0x4 MSTORE PUSH1 0x24 PUSH1 0x0 REVERT JUMPDEST PUSH1 0x0 SWAP2 DUP3 MSTORE PUSH1 0x20 SWAP1 SWAP2 KECCAK256 PUSH1 0xA SWAP1 SWAP2 MUL ADD PUSH1 0x2 DUP2 ADD SLOAD SWAP1 SWAP2 POP PUSH1 0x1 PUSH1 0x1 PUSH1 0xA0 SHL SUB DUP8 DUP2 AND SWAP2 AND EQ DUP1 ISZERO PUSH2 0x3AD5 JUMPI POP DUP5 DUP2 PUSH1 0x1 ADD SLOAD EQ JUMPDEST DUP1 ISZERO PUSH2 0x3AF1 JUMPI POP PUSH1 0x2 DUP2 ADD SLOAD PUSH1 0xFF DUP6 DUP2 AND PUSH1 0x1 PUSH1 0xA0 SHL SWAP1 SWAP3 DIV AND EQ JUMPDEST ISZERO PUSH2 0x3AFE JUMPI POP SWAP1 POP PUSH2 0x3B11 JUMP JUMPDEST POP DUP1 PUSH2 0x3B09 DUP2 PUSH2 0x4A00 JUMP JUMPDEST SWAP2 POP POP PUSH2 0x3A73 JUMP JUMPDEST SWAP4 SWAP3 POP POP POP JUMP JUMPDEST PUSH1 0x0 DUP1 SLOAD PUSH1 0x1 PUSH1 0x1 PUSH1 0xA0 SHL SUB DUP4 DUP2 AND PUSH1 0x1 PUSH1 0x1 PUSH1 0xA0 SHL SUB NOT DUP4 AND DUP2 OR DUP5 SSTORE PUSH1 0x40 MLOAD SWAP2 SWAP1 SWAP3 AND SWAP3 DUP4 SWAP2 PUSH32 0x8BE0079C531659141344CD1FD0A4F28419497F9722A3DAAFE3B4186F6B6457E0 SWAP2 SWAP1 LOG3 POP POP JUMP JUMPDEST PUSH1 0x0 DUP3 PUSH1 0x1F DUP4 ADD SLT PUSH2 0x3B78 JUMPI DUP1 DUP2 REVERT JUMPDEST DUP2 CALLDATALOAD PUSH1 0x20 PUSH2 0x3B8D PUSH2 0x3B88 DUP4 PUSH2 0x498F JUMP JUMPDEST PUSH2 0x495F JUMP JUMPDEST DUP1 DUP4 DUP3 MSTORE DUP3 DUP3 ADD SWAP2 POP DUP3 DUP7 ADD DUP8 DUP5 DUP7 PUSH1 0x5 SHL DUP10 ADD ADD GT ISZERO PUSH2 0x3BAC JUMPI DUP6 DUP7 REVERT JUMPDEST DUP6 JUMPDEST DUP6 DUP2 LT ISZERO PUSH2 0x3BD3 JUMPI DUP2 CALLDATALOAD PUSH2 0x3BC1 DUP2 PUSH2 0x4A67 JUMP JUMPDEST DUP5 MSTORE SWAP3 DUP5 ADD SWAP3 SWAP1 DUP5 ADD SWAP1 PUSH1 0x1 ADD PUSH2 0x3BAE JUMP JUMPDEST POP SWAP1 SWAP8 SWAP7 POP POP POP POP POP POP POP JUMP JUMPDEST PUSH1 0x0 DUP1 DUP4 PUSH1 0x1F DUP5 ADD SLT PUSH2 0x3BF1 JUMPI DUP2 DUP3 REVERT JUMPDEST POP DUP2 CALLDATALOAD PUSH1 0x1 PUSH1 0x1 PUSH1 0x40 SHL SUB DUP2 GT ISZERO PUSH2 0x3C07 JUMPI DUP2 DUP3 REVERT JUMPDEST PUSH1 0x20 DUP4 ADD SWAP2 POP DUP4 PUSH1 0x20 DUP3 PUSH1 0x5 SHL DUP6 ADD ADD GT ISZERO PUSH2 0x3857 JUMPI PUSH1 0x0 DUP1 REVERT JUMPDEST PUSH1 0x0 DUP3 PUSH1 0x1F DUP4 ADD SLT PUSH2 0x3C32 JUMPI DUP1 DUP2 REVERT JUMPDEST DUP2 CALLDATALOAD PUSH1 0x20 PUSH2 0x3C42 PUSH2 0x3B88 DUP4 PUSH2 0x498F JUMP JUMPDEST DUP1 DUP4 DUP3 MSTORE DUP3 DUP3 ADD SWAP2 POP DUP3 DUP7 ADD DUP8 DUP5 DUP7 PUSH1 0x5 SHL DUP10 ADD ADD GT ISZERO PUSH2 0x3C61 JUMPI DUP6 DUP7 REVERT JUMPDEST DUP6 JUMPDEST DUP6 DUP2 LT ISZERO PUSH2 0x3BD3 JUMPI DUP2 CALLDATALOAD DUP5 MSTORE SWAP3 DUP5 ADD SWAP3 SWAP1 DUP5 ADD SWAP1 PUSH1 0x1 ADD PUSH2 0x3C63 JUMP JUMPDEST DUP1 CALLDATALOAD DUP1 ISZERO ISZERO DUP2 EQ PUSH2 0x3C8F JUMPI PUSH1 0x0 DUP1 REVERT JUMPDEST SWAP2 SWAP1 POP JUMP JUMPDEST PUSH1 0x0 DUP1 DUP4 PUSH1 0x1F DUP5 ADD SLT PUSH2 0x3CA5 JUMPI DUP2 DUP3 REVERT JUMPDEST POP DUP2 CALLDATALOAD PUSH1 0x1 PUSH1 0x1 PUSH1 0x40 SHL SUB DUP2 GT ISZERO PUSH2 0x3CBB JUMPI DUP2 DUP3 REVERT JUMPDEST PUSH1 0x20 DUP4 ADD SWAP2 POP DUP4 PUSH1 0x20 DUP3 DUP6 ADD ADD GT ISZERO PUSH2 0x3857 JUMPI PUSH1 0x0 DUP1 REVERT JUMPDEST DUP1 CALLDATALOAD PUSH1 0xFF DUP2 AND DUP2 EQ PUSH2 0x3C8F JUMPI PUSH1 0x0 DUP1 REVERT JUMPDEST PUSH1 0x0 PUSH1 0x20 DUP3 DUP5 SUB SLT ISZERO PUSH2 0x3CF5 JUMPI DUP1 DUP2 REVERT JUMPDEST DUP2 CALLDATALOAD PUSH2 0x3B11 DUP2 PUSH2 0x4A67 JUMP JUMPDEST PUSH1 0x0 PUSH1 0x20 DUP3 DUP5 SUB SLT ISZERO PUSH2 0x3D11 JUMPI DUP1 DUP2 REVERT JUMPDEST DUP2 MLOAD PUSH2 0x3B11 DUP2 PUSH2 0x4A67 JUMP JUMPDEST PUSH1 0x0 DUP1 PUSH1 0x0 DUP1 PUSH1 0x0 DUP1 PUSH1 0x0 DUP1 PUSH1 0xA0 DUP10 DUP12 SUB SLT ISZERO PUSH2 0x3D37 JUMPI DUP4 DUP5 REVERT JUMPDEST DUP9 CALLDATALOAD PUSH2 0x3D42 DUP2 PUSH2 0x4A67 JUMP JUMPDEST SWAP8 POP PUSH1 0x20 DUP10 ADD CALLDATALOAD PUSH2 0x3D52 DUP2 PUSH2 0x4A67 JUMP JUMPDEST SWAP7 POP PUSH1 0x40 DUP10 ADD CALLDATALOAD PUSH1 0x1 PUSH1 0x1 PUSH1 0x40 SHL SUB DUP1 DUP3 GT ISZERO PUSH2 0x3D6D JUMPI DUP6 DUP7 REVERT JUMPDEST PUSH2 0x3D79 DUP13 DUP4 DUP14 ADD PUSH2 0x3BE0 JUMP JUMPDEST SWAP1 SWAP9 POP SWAP7 POP PUSH1 0x60 DUP12 ADD CALLDATALOAD SWAP2 POP DUP1 DUP3 GT ISZERO PUSH2 0x3D91 JUMPI DUP6 DUP7 REVERT JUMPDEST PUSH2 0x3D9D DUP13 DUP4 DUP14 ADD PUSH2 0x3BE0 JUMP JUMPDEST SWAP1 SWAP7 POP SWAP5 POP PUSH1 0x80 DUP12 ADD CALLDATALOAD SWAP2 POP DUP1 DUP3 GT ISZERO PUSH2 0x3DB5 JUMPI DUP4 DUP5 REVERT JUMPDEST POP PUSH2 0x3DC2 DUP12 DUP3 DUP13 ADD PUSH2 0x3C94 JUMP JUMPDEST SWAP10 SWAP13 SWAP9 SWAP12 POP SWAP7 SWAP10 POP SWAP5 SWAP8 SWAP4 SWAP7 SWAP3 SWAP6 SWAP5 POP POP POP JUMP JUMPDEST PUSH1 0x0 DUP1 PUSH1 0x0 DUP1 PUSH1 0x0 PUSH1 0x80 DUP7 DUP9 SUB SLT ISZERO PUSH2 0x3DED JUMPI DUP1 DUP2 REVERT JUMPDEST DUP6 CALLDATALOAD PUSH2 0x3DF8 DUP2 PUSH2 0x4A67 JUMP JUMPDEST SWAP5 POP PUSH1 0x20 DUP7 ADD CALLDATALOAD PUSH2 0x3E08 DUP2 PUSH2 0x4A67 JUMP JUMPDEST SWAP4 POP PUSH1 0x40 DUP7 ADD CALLDATALOAD SWAP3 POP PUSH1 0x60 DUP7 ADD CALLDATALOAD PUSH1 0x1 PUSH1 0x1 PUSH1 0x40 SHL SUB DUP2 GT ISZERO PUSH2 0x3E29 JUMPI DUP2 DUP3 REVERT JUMPDEST PUSH2 0x3E35 DUP9 DUP3 DUP10 ADD PUSH2 0x3C94 JUMP JUMPDEST SWAP7 SWAP10 SWAP6 SWAP9 POP SWAP4 SWAP7 POP SWAP3 SWAP5 SWAP4 SWAP3 POP POP POP JUMP JUMPDEST PUSH1 0x0 DUP1 PUSH1 0x0 DUP1 PUSH1 0x0 DUP1 PUSH1 0xA0 DUP8 DUP10 SUB SLT ISZERO PUSH2 0x3E5E JUMPI DUP2 DUP3 REVERT JUMPDEST DUP7 CALLDATALOAD PUSH2 0x3E69 DUP2 PUSH2 0x4A67 JUMP JUMPDEST SWAP6 POP PUSH1 0x20 DUP8 ADD CALLDATALOAD PUSH2 0x3E79 DUP2 PUSH2 0x4A67 JUMP JUMPDEST SWAP5 POP PUSH1 0x40 DUP8 ADD CALLDATALOAD SWAP4 POP PUSH1 0x60 DUP8 ADD CALLDATALOAD SWAP3 POP PUSH1 0x80 DUP8 ADD CALLDATALOAD PUSH1 0x1 PUSH1 0x1 PUSH1 0x40 SHL SUB DUP2 GT ISZERO PUSH2 0x3EA1 JUMPI DUP3 DUP4 REVERT JUMPDEST PUSH2 0x3EAD DUP10 DUP3 DUP11 ADD PUSH2 0x3C94 JUMP JUMPDEST SWAP8 SWAP11 SWAP7 SWAP10 POP SWAP5 SWAP8 POP SWAP3 SWAP6 SWAP4 SWAP5 SWAP3 POP POP POP JUMP JUMPDEST PUSH1 0x0 DUP1 PUSH1 0x0 PUSH1 0x60 DUP5 DUP7 SUB SLT ISZERO PUSH2 0x3ED3 JUMPI DUP3 DUP4 REVERT JUMPDEST DUP4 CALLDATALOAD PUSH2 0x3EDE DUP2 PUSH2 0x4A67 JUMP JUMPDEST SWAP3 POP PUSH1 0x20 DUP5 ADD CALLDATALOAD PUSH1 0x1 PUSH1 0x1 PUSH1 0x40 SHL SUB DUP1 DUP3 GT ISZERO PUSH2 0x3EF9 JUMPI DUP4 DUP5 REVERT JUMPDEST PUSH2 0x3F05 DUP8 DUP4 DUP9 ADD PUSH2 0x3C22 JUMP JUMPDEST SWAP4 POP PUSH1 0x40 DUP7 ADD CALLDATALOAD SWAP2 POP DUP1 DUP3 GT ISZERO PUSH2 0x3F1A JUMPI DUP3 DUP4 REVERT JUMPDEST POP PUSH2 0x3F27 DUP7 DUP3 DUP8 ADD PUSH2 0x3C22 JUMP JUMPDEST SWAP2 POP POP SWAP3 POP SWAP3 POP SWAP3 JUMP JUMPDEST PUSH1 0x0 DUP1 PUSH1 0x0 DUP1 PUSH1 0x80 DUP6 DUP8 SUB SLT ISZERO PUSH2 0x3F46 JUMPI DUP2 DUP3 REVERT JUMPDEST DUP5 CALLDATALOAD PUSH2 0x3F51 DUP2 PUSH2 0x4A67 JUMP JUMPDEST SWAP4 POP PUSH1 0x20 DUP6 ADD CALLDATALOAD PUSH1 0x1 PUSH1 0x1 PUSH1 0x40 SHL SUB DUP1 DUP3 GT ISZERO PUSH2 0x3F6C JUMPI DUP4 DUP5 REVERT JUMPDEST PUSH2 0x3F78 DUP9 DUP4 DUP10 ADD PUSH2 0x3C22 JUMP JUMPDEST SWAP5 POP PUSH1 0x40 DUP8 ADD CALLDATALOAD SWAP2 POP DUP1 DUP3 GT ISZERO PUSH2 0x3F8D JUMPI DUP4 DUP5 REVERT JUMPDEST POP PUSH2 0x3F9A DUP8 DUP3 DUP9 ADD PUSH2 0x3C22 JUMP JUMPDEST SWAP3 POP POP PUSH1 0x60 DUP6 ADD CALLDATALOAD PUSH2 0x3FAB DUP2 PUSH2 0x4A67 JUMP JUMPDEST SWAP4 SWAP7 SWAP3 SWAP6 POP SWAP1 SWAP4 POP POP JUMP JUMPDEST PUSH1 0x0 DUP1 PUSH1 0x0 DUP1 PUSH1 0x80 DUP6 DUP8 SUB SLT ISZERO PUSH2 0x3FCB JUMPI DUP2 DUP3 REVERT JUMPDEST DUP5 CALLDATALOAD PUSH2 0x3FD6 DUP2 PUSH2 0x4A67 JUMP JUMPDEST SWAP4 POP PUSH1 0x20 DUP6 DUP2 ADD CALLDATALOAD PUSH1 0x1 PUSH1 0x1 PUSH1 0x40 SHL SUB DUP1 DUP3 GT ISZERO PUSH2 0x3FF2 JUMPI DUP5 DUP6 REVERT JUMPDEST DUP2 DUP9 ADD SWAP2 POP DUP9 PUSH1 0x1F DUP4 ADD SLT PUSH2 0x4005 JUMPI DUP5 DUP6 REVERT JUMPDEST DUP2 CALLDATALOAD PUSH2 0x4013 PUSH2 0x3B88 DUP3 PUSH2 0x498F JUMP JUMPDEST DUP1 DUP3 DUP3 MSTORE DUP6 DUP3 ADD SWAP2 POP DUP6 DUP6 ADD DUP13 DUP8 DUP6 PUSH1 0x5 SHL DUP9 ADD ADD GT ISZERO PUSH2 0x4032 JUMPI DUP9 DUP10 REVERT JUMPDEST DUP9 SWAP6 POP JUMPDEST DUP4 DUP7 LT ISZERO PUSH2 0x405B JUMPI PUSH2 0x4047 DUP2 PUSH2 0x3CD3 JUMP JUMPDEST DUP4 MSTORE PUSH1 0x1 SWAP6 SWAP1 SWAP6 ADD SWAP5 SWAP2 DUP7 ADD SWAP2 DUP7 ADD PUSH2 0x4036 JUMP JUMPDEST POP SWAP8 POP POP POP PUSH1 0x40 DUP9 ADD CALLDATALOAD SWAP3 POP DUP1 DUP4 GT ISZERO PUSH2 0x4073 JUMPI DUP5 DUP6 REVERT JUMPDEST POP POP PUSH2 0x4081 DUP8 DUP3 DUP9 ADD PUSH2 0x3B68 JUMP JUMPDEST SWAP5 SWAP8 SWAP4 SWAP7 POP SWAP4 SWAP5 PUSH1 0x60 ADD CALLDATALOAD SWAP4 POP POP POP JUMP JUMPDEST PUSH1 0x0 DUP1 PUSH1 0x40 DUP4 DUP6 SUB SLT ISZERO PUSH2 0x40A4 JUMPI DUP2 DUP3 REVERT JUMPDEST DUP3 CALLDATALOAD PUSH2 0x40AF DUP2 PUSH2 0x4A67 JUMP JUMPDEST SWAP5 PUSH1 0x20 SWAP4 SWAP1 SWAP4 ADD CALLDATALOAD SWAP4 POP POP POP JUMP JUMPDEST PUSH1 0x0 DUP1 PUSH1 0x0 PUSH1 0x60 DUP5 DUP7 SUB SLT ISZERO PUSH2 0x40D1 JUMPI DUP1 DUP2 REVERT JUMPDEST DUP4 CALLDATALOAD PUSH2 0x40DC DUP2 PUSH2 0x4A67 JUMP JUMPDEST SWAP6 PUSH1 0x20 DUP6 ADD CALLDATALOAD SWAP6 POP PUSH1 0x40 SWAP1 SWAP5 ADD CALLDATALOAD SWAP4 SWAP3 POP POP POP JUMP JUMPDEST PUSH1 0x0 DUP1 PUSH1 0x0 PUSH1 0x60 DUP5 DUP7 SUB SLT ISZERO PUSH2 0x4105 JUMPI DUP1 DUP2 REVERT JUMPDEST DUP4 CALLDATALOAD PUSH2 0x4110 DUP2 PUSH2 0x4A67 JUMP JUMPDEST SWAP3 POP PUSH1 0x20 DUP5 ADD CALLDATALOAD SWAP2 POP PUSH2 0x4125 PUSH1 0x40 DUP6 ADD PUSH2 0x3CD3 JUMP JUMPDEST SWAP1 POP SWAP3 POP SWAP3 POP SWAP3 JUMP JUMPDEST PUSH1 0x0 DUP1 PUSH1 0x40 DUP4 DUP6 SUB SLT ISZERO PUSH2 0x4140 JUMPI DUP2 DUP3 REVERT JUMPDEST DUP3 CALLDATALOAD PUSH2 0x414B DUP2 PUSH2 0x4A67 JUMP JUMPDEST SWAP2 POP PUSH2 0x4159 PUSH1 0x20 DUP5 ADD PUSH2 0x3CD3 JUMP JUMPDEST SWAP1 POP SWAP3 POP SWAP3 SWAP1 POP JUMP JUMPDEST PUSH1 0x0 DUP1 PUSH1 0x0 PUSH1 0x60 DUP5 DUP7 SUB SLT ISZERO PUSH2 0x4176 JUMPI DUP1 DUP2 REVERT JUMPDEST DUP4 CALLDATALOAD PUSH2 0x4181 DUP2 PUSH2 0x4A67 JUMP JUMPDEST SWAP3 POP PUSH2 0x418F PUSH1 0x20 DUP6 ADD PUSH2 0x3CD3 JUMP JUMPDEST SWAP2 POP PUSH1 0x40 DUP5 ADD CALLDATALOAD PUSH2 0x419F DUP2 PUSH2 0x4A67 JUMP JUMPDEST DUP1 SWAP2 POP POP SWAP3 POP SWAP3 POP SWAP3 JUMP JUMPDEST PUSH1 0x0 DUP1 PUSH1 0x0 DUP1 PUSH1 0x80 DUP6 DUP8 SUB SLT ISZERO PUSH2 0x41BF JUMPI DUP2 DUP3 REVERT JUMPDEST DUP5 CALLDATALOAD PUSH2 0x41CA DUP2 PUSH2 0x4A67 JUMP JUMPDEST SWAP4 POP PUSH2 0x41D8 PUSH1 0x20 DUP7 ADD PUSH2 0x3CD3 JUMP JUMPDEST SWAP3 POP PUSH1 0x40 DUP6 ADD CALLDATALOAD PUSH2 0x41E8 DUP2 PUSH2 0x4A67 JUMP JUMPDEST SWAP4 SWAP7 SWAP3 SWAP6 POP SWAP3 SWAP4 PUSH1 0x60 ADD CALLDATALOAD SWAP3 POP POP JUMP JUMPDEST PUSH1 0x0 DUP1 PUSH1 0x0 DUP1 PUSH1 0x80 DUP6 DUP8 SUB SLT ISZERO PUSH2 0x420D JUMPI DUP2 DUP3 REVERT JUMPDEST DUP5 CALLDATALOAD PUSH2 0x4218 DUP2 PUSH2 0x4A67 JUMP JUMPDEST SWAP4 POP PUSH2 0x4226 PUSH1 0x20 DUP7 ADD PUSH2 0x3CD3 JUMP JUMPDEST SWAP3 POP PUSH2 0x4234 PUSH1 0x40 DUP7 ADD PUSH2 0x3CD3 JUMP JUMPDEST SWAP2 POP PUSH1 0x60 DUP6 ADD CALLDATALOAD PUSH1 0x1 PUSH1 0x1 PUSH1 0x40 SHL SUB DUP2 GT ISZERO PUSH2 0x424E JUMPI DUP2 DUP3 REVERT JUMPDEST PUSH2 0x425A DUP8 DUP3 DUP9 ADD PUSH2 0x3C22 JUMP JUMPDEST SWAP2 POP POP SWAP3 SWAP6 SWAP2 SWAP5 POP SWAP3 POP JUMP JUMPDEST PUSH1 0x0 DUP1 PUSH1 0x0 DUP1 PUSH1 0x0 DUP1 PUSH1 0x0 DUP1 PUSH2 0x100 DUP10 DUP12 SUB SLT ISZERO PUSH2 0x4282 JUMPI DUP2 DUP3 REVERT JUMPDEST DUP9 CALLDATALOAD PUSH1 0x1 PUSH1 0x1 PUSH1 0x40 SHL SUB DUP2 GT ISZERO PUSH2 0x4297 JUMPI DUP3 DUP4 REVERT JUMPDEST PUSH2 0x42A3 DUP12 DUP3 DUP13 ADD PUSH2 0x3C22 JUMP JUMPDEST SWAP9 POP POP PUSH1 0x20 DUP10 ADD CALLDATALOAD PUSH2 0x42B4 DUP2 PUSH2 0x4A67 JUMP JUMPDEST SWAP7 POP PUSH2 0x42C2 PUSH1 0x40 DUP11 ADD PUSH2 0x3CD3 JUMP JUMPDEST SWAP6 POP PUSH1 0x60 DUP10 ADD CALLDATALOAD SWAP5 POP PUSH2 0x42D7 PUSH1 0x80 DUP11 ADD PUSH2 0x3C7F JUMP JUMPDEST SWAP8 SWAP11 SWAP7 SWAP10 POP SWAP5 SWAP8 SWAP4 SWAP7 SWAP6 PUSH1 0xA0 DUP6 ADD CALLDATALOAD SWAP6 POP PUSH1 0xC0 DUP6 ADD CALLDATALOAD SWAP5 PUSH1 0xE0 ADD CALLDATALOAD SWAP4 POP SWAP2 POP POP JUMP JUMPDEST PUSH1 0x0 DUP1 PUSH1 0x0 DUP1 PUSH1 0x0 DUP1 PUSH1 0x0 DUP1 PUSH1 0x0 PUSH2 0x120 DUP11 DUP13 SUB SLT ISZERO PUSH2 0x4317 JUMPI DUP3 DUP4 REVERT JUMPDEST DUP10 CALLDATALOAD PUSH1 0x1 PUSH1 0x1 PUSH1 0x40 SHL SUB DUP2 GT ISZERO PUSH2 0x432C JUMPI DUP4 DUP5 REVERT JUMPDEST PUSH2 0x4338 DUP13 DUP3 DUP14 ADD PUSH2 0x3C22 JUMP JUMPDEST SWAP10 POP POP PUSH1 0x20 DUP11 ADD CALLDATALOAD PUSH2 0x4349 DUP2 PUSH2 0x4A67 JUMP JUMPDEST SWAP8 POP PUSH2 0x4357 PUSH1 0x40 DUP12 ADD PUSH2 0x3CD3 JUMP JUMPDEST SWAP7 POP PUSH1 0x60 DUP11 ADD CALLDATALOAD SWAP6 POP PUSH1 0x80 DUP11 ADD CALLDATALOAD SWAP5 POP PUSH2 0x4373 PUSH1 0xA0 DUP12 ADD PUSH2 0x3C7F JUMP JUMPDEST SWAP4 POP PUSH1 0xC0 DUP11 ADD CALLDATALOAD SWAP3 POP PUSH1 0xE0 DUP11 ADD CALLDATALOAD SWAP2 POP PUSH2 0x100 DUP11 ADD CALLDATALOAD SWAP1 POP SWAP3 SWAP6 SWAP9 POP SWAP3 SWAP6 SWAP9 POP SWAP3 SWAP6 SWAP9 JUMP JUMPDEST PUSH1 0x0 PUSH1 0x20 DUP3 DUP5 SUB SLT ISZERO PUSH2 0x43A9 JUMPI DUP1 DUP2 REVERT JUMPDEST DUP2 CALLDATALOAD PUSH1 0x1 PUSH1 0x1 PUSH1 0xE0 SHL SUB NOT DUP2 AND DUP2 EQ PUSH2 0x3B11 JUMPI DUP2 DUP3 REVERT JUMPDEST PUSH1 0x0 PUSH1 0x20 DUP3 DUP5 SUB SLT ISZERO PUSH2 0x43D1 JUMPI DUP1 DUP2 REVERT JUMPDEST POP CALLDATALOAD SWAP2 SWAP1 POP JUMP JUMPDEST PUSH1 0x0 PUSH1 0x20 DUP3 DUP5 SUB SLT ISZERO PUSH2 0x43E9 JUMPI DUP1 DUP2 REVERT JUMPDEST POP MLOAD SWAP2 SWAP1 POP JUMP JUMPDEST PUSH1 0x0 DUP1 PUSH1 0x0 DUP1 PUSH1 0x0 DUP1 PUSH1 0x0 DUP1 PUSH2 0x100 DUP10 DUP12 SUB SLT ISZERO PUSH2 0x440C JUMPI DUP2 DUP3 REVERT JUMPDEST DUP9 CALLDATALOAD SWAP8 POP PUSH1 0x20 DUP10 ADD CALLDATALOAD PUSH2 0x42B4 DUP2 PUSH2 0x4A67 JUMP JUMPDEST PUSH1 0x0 DUP1 PUSH1 0x0 DUP1 PUSH1 0x0 DUP1 PUSH1 0x0 DUP1 PUSH1 0x0 PUSH2 0x120 DUP11 DUP13 SUB SLT ISZERO PUSH2 0x443C JUMPI DUP3 DUP4 REVERT JUMPDEST DUP10 CALLDATALOAD SWAP9 POP PUSH1 0x20 DUP11 ADD CALLDATALOAD PUSH2 0x4349 DUP2 PUSH2 0x4A67 JUMP JUMPDEST PUSH1 0x0 DUP1 PUSH1 0x40 DUP4 DUP6 SUB SLT ISZERO PUSH2 0x4460 JUMPI DUP2 DUP3 REVERT JUMPDEST POP POP DUP1 CALLDATALOAD SWAP3 PUSH1 0x20 SWAP1 SWAP2 ADD CALLDATALOAD SWAP2 POP JUMP JUMPDEST PUSH1 0x0 DUP1 PUSH1 0x0 DUP1 PUSH1 0x0 DUP1 PUSH1 0x0 PUSH1 0xE0 DUP9 DUP11 SUB SLT ISZERO PUSH2 0x4489 JUMPI DUP1 DUP2 REVERT JUMPDEST DUP8 CALLDATALOAD SWAP7 POP PUSH2 0x4499 PUSH1 0x20 DUP10 ADD PUSH2 0x3CD3 JUMP JUMPDEST SWAP6 POP PUSH1 0x40 DUP9 ADD CALLDATALOAD SWAP5 POP PUSH2 0x44AE PUSH1 0x60 DUP10 ADD PUSH2 0x3C7F JUMP JUMPDEST SWAP7 SWAP10 SWAP6 SWAP9 POP SWAP4 SWAP7 PUSH1 0x80 DUP2 ADD CALLDATALOAD SWAP6 PUSH1 0xA0 DUP3 ADD CALLDATALOAD SWAP6 POP PUSH1 0xC0 SWAP1 SWAP2 ADD CALLDATALOAD SWAP4 POP SWAP2 POP POP JUMP JUMPDEST PUSH1 0x2 DUP2 LT PUSH2 0x44ED JUMPI PUSH4 0x4E487B71 PUSH1 0xE0 SHL PUSH1 0x0 MSTORE PUSH1 0x21 PUSH1 0x4 MSTORE PUSH1 0x24 PUSH1 0x0 REVERT JUMPDEST SWAP1 MSTORE JUMP JUMPDEST PUSH1 0x1 PUSH1 0x1 PUSH1 0xA0 SHL SUB SWAP4 DUP5 AND DUP2 MSTORE SWAP2 SWAP1 SWAP3 AND PUSH1 0x20 DUP3 ADD MSTORE PUSH1 0x40 DUP2 ADD SWAP2 SWAP1 SWAP2 MSTORE PUSH1 0x60 ADD SWAP1 JUMP JUMPDEST PUSH1 0x1 PUSH1 0x1 PUSH1 0xA0 SHL SUB SWAP5 DUP6 AND DUP2 MSTORE SWAP3 SWAP1 SWAP4 AND PUSH1 0x20 DUP4 ADD MSTORE PUSH1 0x40 DUP3 ADD MSTORE PUSH1 0x60 DUP2 ADD SWAP2 SWAP1 SWAP2 MSTORE PUSH1 0xA0 PUSH1 0x80 DUP3 ADD DUP2 SWAP1 MSTORE PUSH1 0x0 SWAP1 DUP3 ADD MSTORE PUSH1 0xC0 ADD SWAP1 JUMP JUMPDEST PUSH1 0x40 DUP1 DUP3 MSTORE DUP4 MLOAD SWAP1 DUP3 ADD DUP2 SWAP1 MSTORE PUSH1 0x0 SWAP1 PUSH1 0x20 SWAP1 PUSH1 0x60 DUP5 ADD SWAP1 DUP3 DUP8 ADD DUP5 JUMPDEST DUP3 DUP2 LT ISZERO PUSH2 0x4586 JUMPI DUP2 MLOAD DUP5 MSTORE SWAP3 DUP5 ADD SWAP3 SWAP1 DUP5 ADD SWAP1 PUSH1 0x1 ADD PUSH2 0x456A JUMP JUMPDEST POP POP POP DUP4 DUP2 SUB DUP3 DUP6 ADD MSTORE DUP5 MLOAD DUP1 DUP3 MSTORE DUP6 DUP4 ADD SWAP2 DUP4 ADD SWAP1 DUP5 JUMPDEST DUP2 DUP2 LT ISZERO PUSH2 0x3BD3 JUMPI DUP4 MLOAD ISZERO ISZERO DUP4 MSTORE SWAP3 DUP5 ADD SWAP3 SWAP2 DUP5 ADD SWAP2 PUSH1 0x1 ADD PUSH2 0x459E JUMP JUMPDEST PUSH1 0x20 DUP2 ADD PUSH2 0x6A2 DUP3 DUP5 PUSH2 0x44CF JUMP JUMPDEST PUSH1 0x80 DUP2 ADD PUSH2 0x45D8 DUP3 DUP8 PUSH2 0x44CF JUMP JUMPDEST PUSH1 0x1 PUSH1 0x1 PUSH1 0xA0 SHL SUB SWAP5 SWAP1 SWAP5 AND PUSH1 0x20 DUP3 ADD MSTORE PUSH1 0x40 DUP2 ADD SWAP3 SWAP1 SWAP3 MSTORE PUSH1 0x60 SWAP1 SWAP2 ADD MSTORE SWAP2 SWAP1 POP JUMP JUMPDEST PUSH2 0x160 DUP2 ADD PUSH2 0x460B DUP3 DUP15 PUSH2 0x44CF JUMP JUMPDEST PUSH1 0x20 DUP3 ADD SWAP12 SWAP1 SWAP12 MSTORE PUSH1 0x1 PUSH1 0x1 PUSH1 0xA0 SHL SUB SWAP10 SWAP1 SWAP10 AND PUSH1 0x40 DUP11 ADD MSTORE PUSH1 0xFF SWAP8 SWAP1 SWAP8 AND PUSH1 0x60 DUP10 ADD MSTORE PUSH1 0x80 DUP9 ADD SWAP6 SWAP1 SWAP6 MSTORE PUSH1 0xA0 DUP8 ADD SWAP4 SWAP1 SWAP4 MSTORE SWAP1 ISZERO ISZERO PUSH1 0xC0 DUP7 ADD MSTORE PUSH1 0xE0 DUP6 ADD MSTORE PUSH2 0x100 DUP5 ADD MSTORE PUSH2 0x120 DUP4 ADD MSTORE PUSH2 0x140 SWAP1 SWAP2 ADD MSTORE SWAP2 SWAP1 POP JUMP JUMPDEST PUSH1 0xC0 DUP2 ADD PUSH2 0x4672 DUP3 DUP10 PUSH2 0x44CF JUMP JUMPDEST PUSH1 0x20 DUP3 ADD SWAP7 SWAP1 SWAP7 MSTORE SWAP4 ISZERO ISZERO PUSH1 0x40 DUP6 ADD MSTORE PUSH1 0x60 DUP5 ADD SWAP3 SWAP1 SWAP3 MSTORE PUSH1 0x80 DUP4 ADD MSTORE PUSH1 0xA0 SWAP1 SWAP2 ADD MSTORE SWAP2 SWAP1 POP JUMP JUMPDEST PUSH1 0x20 DUP1 DUP3 MSTORE PUSH1 0x1F SWAP1 DUP3 ADD MSTORE PUSH32 0x45786365656473206D6178696D756D20707572636861736520616D6F756E7400 PUSH1 0x40 DUP3 ADD MSTORE PUSH1 0x60 ADD SWAP1 JUMP JUMPDEST PUSH1 0x20 DUP1 DUP3 MSTORE PUSH1 0x18 SWAP1 DUP3 ADD MSTORE PUSH32 0x53616C6520686173206E6F742073746172746564207965740000000000000000 PUSH1 0x40 DUP3 ADD MSTORE PUSH1 0x60 ADD SWAP1 JUMP JUMPDEST PUSH1 0x20 DUP1 DUP3 MSTORE PUSH1 0xE SWAP1 DUP3 ADD MSTORE PUSH14 0x14D85B19481A185CC8195B991959 PUSH1 0x92 SHL PUSH1 0x40 DUP3 ADD MSTORE PUSH1 0x60 ADD SWAP1 JUMP JUMPDEST PUSH1 0x20 DUP1 DUP3 MSTORE PUSH1 0x27 SWAP1 DUP3 ADD MSTORE PUSH32 0x546F6B656E206D757374206265206465706F736974656420746F207468652063 PUSH1 0x40 DUP3 ADD MSTORE PUSH7 0x1BDB9D1C9858DD PUSH1 0xCA SHL PUSH1 0x60 DUP3 ADD MSTORE PUSH1 0x80 ADD SWAP1 JUMP JUMPDEST PUSH1 0x20 DUP1 DUP3 MSTORE PUSH1 0x14 SWAP1 DUP3 ADD MSTORE PUSH20 0x125B98DBDC9C9958DD081D985B1D59481CD95B9D PUSH1 0x62 SHL PUSH1 0x40 DUP3 ADD MSTORE PUSH1 0x60 ADD SWAP1 JUMP JUMPDEST PUSH1 0x20 DUP1 DUP3 MSTORE PUSH1 0x2E SWAP1 DUP3 ADD MSTORE PUSH32 0x43616E6E6F74207075726368617365206D6F7265207468616E2074686520616C PUSH1 0x40 DUP3 ADD MSTORE PUSH14 0x6C6F776564207175616E74697479 PUSH1 0x90 SHL PUSH1 0x60 DUP3 ADD MSTORE PUSH1 0x80 ADD SWAP1 JUMP JUMPDEST PUSH1 0x20 DUP1 DUP3 MSTORE PUSH1 0x19 SWAP1 DUP3 ADD MSTORE PUSH32 0x546F6B656E20616C726561647920726567697374657265642E00000000000000 PUSH1 0x40 DUP3 ADD MSTORE PUSH1 0x60 ADD SWAP1 JUMP JUMPDEST PUSH1 0x20 DUP1 DUP3 MSTORE PUSH1 0xF SWAP1 DUP3 ADD MSTORE PUSH15 0x43616E6E6F74207075726368617365 PUSH1 0x88 SHL PUSH1 0x40 DUP3 ADD MSTORE PUSH1 0x60 ADD SWAP1 JUMP JUMPDEST PUSH1 0x20 DUP1 DUP3 MSTORE PUSH1 0x23 SWAP1 DUP3 ADD MSTORE PUSH32 0x546F6B656E206D757374206265206F776E65642062792074686520636F6E7472 PUSH1 0x40 DUP3 ADD MSTORE PUSH3 0x1858DD PUSH1 0xEA SHL PUSH1 0x60 DUP3 ADD MSTORE PUSH1 0x80 ADD SWAP1 JUMP JUMPDEST PUSH1 0x20 DUP1 DUP3 MSTORE PUSH1 0x12 SWAP1 DUP3 ADD MSTORE PUSH18 0x496E646578206F7574206F662072616E6765 PUSH1 0x70 SHL PUSH1 0x40 DUP3 ADD MSTORE PUSH1 0x60 ADD SWAP1 JUMP JUMPDEST PUSH1 0x20 DUP1 DUP3 MSTORE PUSH1 0x26 SWAP1 DUP3 ADD MSTORE PUSH32 0x43616E206F6E6C79207075726368617365206F6E6520746F6B656E20666F7220 PUSH1 0x40 DUP3 ADD MSTORE PUSH6 0x455243373231 PUSH1 0xD0 SHL PUSH1 0x60 DUP3 ADD MSTORE PUSH1 0x80 ADD SWAP1 JUMP JUMPDEST DUP11 DUP2 MSTORE PUSH2 0x140 DUP2 ADD PUSH2 0x491D PUSH1 0x20 DUP4 ADD DUP13 PUSH2 0x44CF JUMP JUMPDEST PUSH1 0x40 DUP3 ADD SWAP10 SWAP1 SWAP10 MSTORE PUSH1 0x60 DUP2 ADD SWAP8 SWAP1 SWAP8 MSTORE PUSH1 0x80 DUP8 ADD SWAP6 SWAP1 SWAP6 MSTORE SWAP3 ISZERO ISZERO PUSH1 0xA0 DUP7 ADD MSTORE PUSH1 0xC0 DUP6 ADD SWAP2 SWAP1 SWAP2 MSTORE PUSH1 0xE0 DUP5 ADD MSTORE PUSH2 0x100 DUP4 ADD MSTORE ISZERO ISZERO PUSH2 0x120 SWAP1 SWAP2 ADD MSTORE SWAP3 SWAP2 POP POP JUMP JUMPDEST PUSH1 0x40 MLOAD PUSH1 0x1F DUP3 ADD PUSH1 0x1F NOT AND DUP2 ADD PUSH1 0x1 PUSH1 0x1 PUSH1 0x40 SHL SUB DUP2 GT DUP3 DUP3 LT OR ISZERO PUSH2 0x4987 JUMPI PUSH2 0x4987 PUSH2 0x4A51 JUMP JUMPDEST PUSH1 0x40 MSTORE SWAP2 SWAP1 POP JUMP JUMPDEST PUSH1 0x0 PUSH1 0x1 PUSH1 0x1 PUSH1 0x40 SHL SUB DUP3 GT ISZERO PUSH2 0x49A8 JUMPI PUSH2 0x49A8 PUSH2 0x4A51 JUMP JUMPDEST POP PUSH1 0x5 SHL PUSH1 0x20 ADD SWAP1 JUMP JUMPDEST PUSH1 0x0 DUP3 NOT DUP3 GT ISZERO PUSH2 0x49C5 JUMPI PUSH2 0x49C5 PUSH2 0x4A3B JUMP JUMPDEST POP ADD SWAP1 JUMP JUMPDEST PUSH1 0x0 DUP2 PUSH1 0x0 NOT DIV DUP4 GT DUP3 ISZERO ISZERO AND ISZERO PUSH2 0x49E4 JUMPI PUSH2 0x49E4 PUSH2 0x4A3B JUMP JUMPDEST POP MUL SWAP1 JUMP JUMPDEST PUSH1 0x0 DUP3 DUP3 LT ISZERO PUSH2 0x49FB JUMPI PUSH2 0x49FB PUSH2 0x4A3B JUMP JUMPDEST POP SUB SWAP1 JUMP JUMPDEST PUSH1 0x0 PUSH1 0x0 NOT DUP3 EQ ISZERO PUSH2 0x4A14 JUMPI PUSH2 0x4A14 PUSH2 0x4A3B JUMP JUMPDEST POP PUSH1 0x1 ADD SWAP1 JUMP JUMPDEST PUSH1 0x0 DUP3 PUSH2 0x4A36 JUMPI PUSH4 0x4E487B71 PUSH1 0xE0 SHL DUP2 MSTORE PUSH1 0x12 PUSH1 0x4 MSTORE PUSH1 0x24 DUP2 REVERT JUMPDEST POP MOD SWAP1 JUMP JUMPDEST PUSH4 0x4E487B71 PUSH1 0xE0 SHL PUSH1 0x0 MSTORE PUSH1 0x11 PUSH1 0x4 MSTORE PUSH1 0x24 PUSH1 0x0 REVERT JUMPDEST PUSH4 0x4E487B71 PUSH1 0xE0 SHL PUSH1 0x0 MSTORE PUSH1 0x41 PUSH1 0x4 MSTORE PUSH1 0x24 PUSH1 0x0 REVERT JUMPDEST PUSH1 0x1 PUSH1 0x1 PUSH1 0xA0 SHL SUB DUP2 AND DUP2 EQ PUSH2 0xA95 JUMPI PUSH1 0x0 DUP1 REVERT INVALID SWAP9 0xC6 OR SMOD SWAP13 CALLDATACOPY SMOD 0xC3 0x5F 0xDA PUSH2 0x26D8 ADDRESS 0xE5 0xDC DUP15 PUSH6 0xEA6DD54F1678 0xB4 JUMPI SWAP5 0xC1 0x4F 0xA5 SDIV 0xA9 DUP11 0xAC PUSH25 0xA50360BF157BAE78722A15BA5DBECDBF740A6E914031FF1F0D 0x4B 0xE2 0xFB PUSH1 0xA2 PUSH5 0x6970667358 0x22 SLT KECCAK256 0xE6 PUSH24 0x2B42B01852D4F6BB60850BC4A476F3454AAABD9811886C4 0x2D LOG3 PUSH5 0x7AD33F6473 PUSH16 0x6C634300080400330000000000000000 "},"methodIdentifiers":{"addTokenERC1155(uint256,address,uint8,uint256,uint256,bool,uint256,uint256,uint256)":"5759e5c3","addTokenERC721(uint256,address,uint8,uint256,bool,uint256,uint256,uint256)":"2fd5916f","addTokensERC1155(uint256[],address,uint8,uint256,uint256,bool,uint256,uint256,uint256)":"9c2343ae","addTokensERC721(uint256[],address,uint8,uint256,bool,uint256,uint256,uint256)":"7d206de0","addWhitelist(address,uint8,address,uint256)":"9434a3fd","addWhitelistAll(address,uint8[],address[],uint256)":"933e430f","buyRandomTokens(address,uint8,uint8,uint256[])":"29ed9205","buyToken(address,uint256,uint256)":"e671499b","buyToken(uint256,uint256)":"057466ea","buyTokens(address,uint256[],uint256[])":"98e0d2ee","getBlockTimestamp()":"796b89b9","getRandomTokenId(address,uint8)":"4e856171","getTokenCount()":"78a89567","getTokenIds(address,uint8)":"e9898d81","getTokenInfo(address,uint256,uint8)":"34eea629","getTotalTokenCount(address)":"5938a725","getWhitelist(address,uint8,address)":"a15a6ad8","isTokenIndex(address,uint256)":"c90af0fb","onERC1155BatchReceived(address,address,uint256[],uint256[],bytes)":"bc197c81","onERC1155Received(address,address,uint256,uint256,bytes)":"f23a6e61","onERC721Received(address,address,uint256,bytes)":"150b7a02","owner()":"8da5cb5b","removeToken(uint256)":"36c5d724","renounceOwnership()":"715018a6","supportsInterface(bytes4)":"01ffc9a7","tokens(uint256)":"4f64b2be","transferOwnership(address)":"f2fde38b","transferToken(address,uint256[],uint256[],address)":"5fca1742","updateTokenERC1155(uint256,uint8,uint256,bool,uint256,uint256,uint256)":"d48310ef","updateTokenERC721(uint256,uint8,uint256,bool,uint256,uint256,uint256)":"bf567393","whitelist(address,uint8,address)":"8a3709fb","withdrawFunds()":"24600fc3"}}}}}